:020000040800F2
:100000000000022055620008395E0008415E0008C9
:10001000495E0008515E0008595E000800000000BB
:10002000000000000000000000000000615E000809
:100030006F5E0008000000007D5E00088B5E000817
:10004000A5620008A5620008A5620008A562000874
:10005000A5620008A5620008995E0008215F0008FB
:10006000BD5F00085960000867600008A5620008CD
:10007000A5620008A5620008A5620008A562000844
:1000800075600008A5620008A5620008A562000866
:10009000A5620008A5620008A56200088960000842
:1000A000AD600008A5620008A5620008A56200080E
:1000B000E1600008A5620008A5620008A5620008CA
:1000C000A5620008A5620008A5620008A5620008F4
:1000D000A5620008A562000809610008A562000881
:1000E0001D610008A5620008A5620008A56200085D
:1000F000A5620008A5620008A5620008A5620008C4
:10010000A5620008A562000855610008A562000804
:10011000A5620008A56200087D61000895610008DD
:10012000A5620008A5620008A5620008A562000893
:10013000A5620008A5620008A5620008A562000883
:10014000A5620008A5620008A5620008A562000873
:10015000A5620008A5620008A5620008A562000863
:10016000A5620008A5620008A5620008A562000853
:10017000A5620008A5620008A56200080000000052
:08018000A5620008A562000859
:1001880010B5054C237833B9044B13B10448AFF3C9
:1001980000800123237010BDE00A00200000000049
:1001A800D4A7000808B5034B1BB103490348AFF3B4
:1001B800008008BD00000000E40A0020D4A7000861
:1001C80081F0004102E000BF83F0004330B54FEA00
:1001D80041044FEA430594EA050F08BF90EA020F6D
:1001E8001FBF54EA000C55EA020C7FEA645C7FEA00
:1001F800655C00F0E2804FEA5454D4EB5555B8BF23
:100208006D420CDD2C4480EA020281EA030382EA93
:10021800000083EA010180EA020281EA0303362D25
:1002280088BF30BD11F0004F4FEA01314FF4801CF8
:100238004CEA113102D0404261EB410113F0004F0A
:100248004FEA03334CEA133302D0524263EB4303C1
:1002580094EA050F00F0A780A4F10104D5F1200E5F
:100268000DDB02FA0EFC22FA05F2801841F10001BA
:1002780003FA0EF2801843FA05F359410EE0A5F18E
:1002880020050EF1200E012A03FA0EFC28BF4CF0BF
:10029800020C43FA05F3C01851EBE37101F0004575
:1002A80007D54FF0000EDCF1000C7EEB00006EEB82
:1002B8000101B1F5801F1BD3B1F5001F0CD349080C
:1002C8005FEA30004FEA3C0C04F101044FEA445263
:1002D80012F5800F80F09A80BCF1004F08BF5FEAEA
:1002E800500C50F1000041EB045141EA050130BDCA
:1002F8005FEA4C0C404141EB0101013C28BFB1F5DC
:10030800801FE9D291F0000F04BF01460020B1FA26
:1003180081F308BF2033A3F10B03B3F120020CDAF9
:100328000C3208DD02F1140CC2F10C0201FA0CF0D7
:1003380021FA02F10CE002F11402D8BFC2F1200C3C
:1003480001FA02F120FA0CFCDCBF41EA0C019040F2
:10035800E41AA2BF01EB0451294330BD6FEA04043B
:100368001F3C1CDA0C340EDC04F11404C4F1200226
:1003780020FA04F001FA02F340EA030021FA04F338
:1003880045EA030130BDC4F10C04C4F1200220FA8F
:1003980002F001FA04F340EA0300294630BD21FACD
:1003A80004F0294630BD94F0000F83F4801306BF93
:1003B80081F480110134013D4EE77FEA645C18BF87
:1003C8007FEA655C29D094EA050F08BF90EA020F1E
:1003D80005D054EA000C04BF1946104630BD91EA16
:1003E800030F1EBF0021002030BD5FEA545C05D119
:1003F8004000494128BF41F0004130BD14F5800458
:100408003CBF01F5801130BD01F0004545F0FE41CB
:1004180041F470014FF0000030BD7FEA645C1ABF00
:10042800194610467FEA655C1CBF0B46024650EA37
:10043800013406BF52EA033591EA030F41F4002163
:1004480030BD00BF90F0000F04BF0021704730B5E9
:100458004FF4806404F132044FF000054FF00001BE
:1004680050E700BF90F0000F04BF0021704730B57F
:100478004FF4806404F1320410F0004548BF404254
:100488004FF000013EE700BF42004FEAE2014FEAA9
:1004980031014FEA02701FBF12F07F4393F07F4F84
:1004A80081F06051704732F07F4208BF704793F087
:1004B8007F4F04BF41F40021704730B54FF460749A
:1004C80001F0004521F000411CE700BF50EA01029D
:1004D80008BF704730B54FF000050AE050EA010246
:1004E80008BF704730B511F0004502D5404261EBB6
:1004F80041014FF4806404F132045FEA915C3FF4F7
:10050800D8AE4FF003025FEADC0C18BF03325FEA93
:10051800DC0C18BF033202EBDC02C2F1200300FA44
:1005280003FC20FA02F001FA03FE40EA0E0021FA69
:1005380002F11444BDE600BF70B54FF0FF0C4CF457
:10054800E06C1CEA11541DBF1CEA135594EA0C0F09
:1005580095EA0C0F00F0DEF82C4481EA030621EA44
:100568004C5123EA4C5350EA013518BF52EA03357F
:1005780041F4801143F4801338D0A0FB02CE4FF031
:100588000005E1FB02E506F00042E0FB03E54FF061
:100598000006E1FB03569CF0000F18BF4EF0010E59
:1005A800A4F1FF04B6F5007F64F5407404D25FEA55
:1005B8004E0E6D4146EB060642EAC62141EA555108
:1005C8004FEAC52040EA5E504FEACE2EB4F1FD0C4A
:1005D80088BFBCF5E06F1ED8BEF1004F08BF5FEAC8
:1005E800500E50F1000041EB045170BD06F000467A
:1005F80046EA010140EA020081EA0301B4EB5C0427
:10060800C2BFD4EB0C0541EA045170BD41F480111E
:100618004FF0000E013C00F3AB8014F1360FDEBF43
:10062800002001F0004170BDC4F10004203C35DA1F
:100638000C341BDC04F11404C4F1200500FA05F3A2
:1006480020FA04F001FA05F240EA020001F0004243
:1006580021F0004110EBD37021FA04F642EB0601B9
:100668005EEA430E08BF20EAD37070BDC4F10C04E3
:10067800C4F1200500FA04F320FA05F001FA04F2A7
:1006880040EA020001F0004110EBD37041F1000193
:100698005EEA430E08BF20EAD37070BDC4F120059E
:1006A80000FA05F24EEA020E20FA04F301FA05F206
:1006B80043EA020321FA04F001F0004121FA04F2AE
:1006C80020EA020000EBD3705EEA430E08BF20EA7E
:1006D800D37070BD94F0000F0FD101F000464000B8
:1006E80041EB010111F4801F08BF013CF7D041EA3A
:1006F800060195F0000F18BF704703F0004652003E
:1007080043EB030313F4801F08BF013DF7D043EA0E
:100718000603704794EA0C0F0CEA135518BF95EAC4
:100728000C0F0CD050EA410618BF52EA4306D1D14B
:1007380081EA030101F000414FF0000070BD50EA6A
:10074800410606BF1046194652EA430619D094EAF4
:100758000C0F02D150EA013613D195EA0C0F05D1DE
:1007680052EA03361CBF104619460AD181EA030132
:1007780001F0004141F0FE4141F470014FF00000EA
:1007880070BD41F0FE4141F4780170BD70B54FF085
:10079800FF0C4CF4E06C1CEA11541DBF1CEA135505
:1007A80094EA0C0F95EA0C0F00F0A7F8A4EB0504E7
:1007B80081EA030E52EA03354FEA013100F08880DE
:1007C8004FEA03334FF0805545EA131343EA1263A7
:1007D8004FEA022245EA111545EA10654FEA00265C
:1007E8000EF000419D4208BF964244F1FD0404F515
:1007F800407402D25B084FEA3202B61A65EB030571
:100808005B084FEA32024FF480104FF4002CB6EB2D
:10081800020E75EB030E22BFB61A754640EA0C00AD
:100828005B084FEA3202B6EB020E75EB030E22BFED
:10083800B61A754640EA5C005B084FEA3202B6EB2E
:10084800020E75EB030E22BFB61A754640EA9C00ED
:100858005B084FEA3202B6EB020E75EB030E22BFBD
:10086800B61A754640EADC0055EA060E18D04FEA7B
:10087800051545EA16754FEA06164FEAC30343EA1B
:1008880052734FEAC2025FEA1C1CC0D111F4801FE8
:100898000BD141EA00014FF000004FF0004CB6E7E1
:1008A80011F4801F04BF01430020B4F1FD0C88BF80
:1008B800BCF5E06F3FF6AFAEB5EB030C04BFB6EB8B
:1008C800020C5FEA500C50F1000041EB045170BD7E
:1008D8000EF0004E4EEA113114EB5C04C2BFD4EBAB
:1008E8000C0541EA045170BD41F480114FF0000E2F
:1008F800013C90E645EA060E8DE60CEA135594EAAB
:100908000C0F08BF95EA0C0F3FF43BAF94EA0C0FAD
:100918000AD150EA01347FF434AF95EA0C0F7FF422
:1009280025AF104619462CE795EA0C0F06D152EA76
:1009380003353FF4FDAE1046194622E750EA41065A
:1009480018BF52EA43067FF4C5AE50EA41047FF46B
:100958000DAF52EA43057FF4EBAE12E74A0011D21D
:1009680012F5001211D20DD56FF47873B3EB625201
:100978000ED44FEAC12343F0004343EA505323FA0D
:1009880002F070474FF00000704750EA013002D182
:100998004FF0FF3070474FF00000704753B94AB925
:1009A800002908BF00281CBF4FF0FF314FF0FF306F
:1009B80000F06AB9ADF1080C6DE904CE00F006F854
:1009C800DDF804E0DDE9022304B070472DE9F047C3
:1009D800089D0C46002B4ED194468C458646B2FAAB
:1009E80082F262D94AB1C2F12003914020FA03F39E
:1009F8000CFA02FC194300FA02FE4FEA1C471FFAE0
:100A08008CF6B1FBF7F44FEA1E4307FB141143EAD7
:100A1800014304FB06F199420AD91CEB030304F1D4
:100A2800FF3080F01281994240F20F81023C63440A
:100A3800591A1FFA8EF3B1FBF7F007FB101143EABE
:100A4800014300FB06F69E420AD91CEB030300F1A2
:100A5800FF3180F0FC809E4240F2F9806344023806
:100A68009B1B40EA044000211DB1D3400022C5E988
:100A78000032BDE8F0878B4205D90DB1C5E9000108
:100A880000210846F5E7B3FA83F1002946D1A342CD
:100A980002D39042C0F0F080861A64EB0303012071
:100AA800002DE6D0C5E90063E3E7002A40F0908016
:100AB800A1EB0C044FEA1C481FFA8CF70121B4FB88
:100AC800F8F64FEA1E4308FB164443EA044307FBC3
:100AD80006F0984208D91CEB030306F1FF3402D252
:100AE800984200F2CD8026461C1A1FFA8EF3B4FBFA
:100AF800F8F008FB104443EA044300FB07F79F4261
:100B080008D91CEB030300F1FF3402D29F4200F224
:100B1800B0802046DB1B40EA0640A5E7C1F120066D
:100B28008B4022FA06F71F4320FA06FC04FA01F369
:100B380043EA0C03F44000FA01F8380C4FEA134971
:100B4800B4FBF0FE1FFA87FC00FB1E4449EA04448C
:100B58000EFB0CF9A14502FA01F20AD93C190EF173
:100B6800FF3A80F08480A14540F28180AEF1020E08
:100B78003C44A4EB09041FFA83F9B4FBF0F300FB2F
:100B8800134449EA044403FB0CFCA44507D93C1967
:100B980003F1FF3067D2A44565D9023B3C4443EAE0
:100BA8000E40A0FB0293A4EB0C049C42CE469C464C
:100BB80051D34ED055B1B8EB0E0364EB0C0404FAD4
:100BC80006F6CB401E43CC40C5E90064002150E73F
:100BD800C2F1200320FA03F10CFA02FC24FA03F311
:100BE80094400C434FEA1C4800FA02FE1FFA8CF7A7
:100BF800B3FBF8F008FB1031230C43EA014300FB78
:100C080007F1994208D91CEB030300F1FF362CD2F7
:100C180099422AD9023863445B1AA4B2B3FBF8F1AB
:100C280008FB113344EA034401FB07F3A34208D944
:100C38001CEB040401F1FF3613D2A34211D9023987
:100C48006444E41A41EA004139E70446F0E60846FC
:100C580006E7C845AED2B9EB020E63EB070C0138C4
:100C6800A8E73146EDE7034699E73046D4E7D6468C
:100C78007FE7634402384DE70646234608460FE7F8
:100C8800023E634430E700BF704700BF80B483B0C2
:100C980000AF0346FB71FB79013BDAB2034B1A70D4
:100CA80000BF0C37BD465DF8047B7047FC0A002086
:100CB80080B500AF2F4B1B78032B47D801A252F801
:100CC80023F000BFDD0C0008F70C0008190D000820
:100CD800450D000800220221274806F051FD274B48
:100CE8001A88274B1A80234B01221A7035E0244BAF
:100CF8001B88002B2CD1012202211F4806F040FD41
:100D0800204B1A881E4B1A801A4B02221A701FE0B9
:100D18001B4B1B88002B1DD1164B00221A701A4B37
:100D28001B78002B06D0184B1B78013BDAB2164B08
:100D38001A700FE00F4B03221A700BE0124B1B784E
:100D4800002B09D00B4B00221A7005E000BF04E00D
:100D580000BF02E000BF00E000BF094B1B88002B6A
:100D680005D0074B1B88013B9AB2054B1A8000BF80
:100D780080BD00BF000000200010024002000020DB
:100D8800FE0A002004000020FC0A002080B483B082
:100D980000AF0346FB71FB79012B31D8FA791B4967
:100DA80013465B0013445B000B440233FA791A7054
:100DB800FA79164913465B0013445B000B4403336E
:100DC80000221A70FA79114913465B0013445B003C
:100DD8000B44043300221A80FA790C4913465B004D
:100DE80013445B000B44013302221A70FA79074955
:100DF80013465B0013445B000B4401221A7000E0A9
:100E080000BF0C37BD465DF8047B7047000B00201F
:100E180080B483B000AF0346FB71FB79012B31D856
:100E2800FA791B4913465B0013445B000B440233F9
:100E3800FA791A70FA79164913465B0013445B0075
:100E48000B44033300221A70FA79114913465B00E8
:100E580013445B000B44043300221A80FA790C49CE
:100E680013465B0013445B000B44013302221A70E3
:100E7800FA79074913465B0013445B000B440122CF
:100E88001A7000E000BF0C37BD465DF8047B704760
:100E98000C0B002080B584B000AF0346FB71FB79D2
:100EA800012B00F29281FA79B34913465B0013448F
:100EB8005B000B441B78092B00F2678101A252F8F2
:100EC80023F000BFF50E00080B0F00080B100008F8
:100ED800510F00089311000893110008AD0F000886
:100EE80069100008231100084B110008FA79A2497B
:100EF80013465B0013445B000B44033300221A7053
:100F080043E1FB79002B05D1002208219B4806F01C
:100F180037FC04E000221021984806F031FCFA79E9
:100F2800954913465B0013445B000B4404334FF4AC
:100F38007A721A80FA79904913465B0013445B0071
:100F48000B4403221A7020E1FA798B4913465B009F
:100F580013445B000B4404331B88002B40F00581CD
:100F6800FB79002B05D100228021844806F008FC7B
:100F780004E000220821824806F002FCFA797E4942
:100F880013465B0013445B000B44043332221A807F
:100F9800FA79794913465B0013445B000B44062237
:100FA8001A70E2E0FA79744913465B0013445B0057
:100FB8000B4404331B88002B40F0D980FB79002BAD
:100FC80005D1012220216D4806F0DAFB04E0012258
:100FD80040216A4806F0D4FBFA79674913465B005A
:100FE80013445B000B4404334FF47A721A80FA7985
:100FF800614913465B0013445B000B4402221A70DC
:10100800B5E0FA795C4913465B0013445B000B4476
:1010180004331B88002B40F0AC80FB79002B05D1F2
:1010280001220821554806F0ABFB04E001221021FB
:10103800524806F0A5FBFA794F4913465B00134462
:101048005B000B4404334FF47A721A80FA794A49E8
:1010580013465B0013445B000B4407221A7088E0B8
:10106800FA79454913465B0013445B000B4404338B
:101078001B88002B40F08880FB79002B07D14FF4A8
:101088008061404806F064FB0346FB7306E04FF4BA
:1010980000613C4806F05CFB0346FB73FB7B002BBE
:1010A80009D1FA79344913465B0013445B000B44B9
:1010B80008221A7068E0FA792F4913465B00134436
:1010C8005B000B4403331B780133D8B22A4913461B
:1010D8005B0013445B000B44033301461970264937
:1010E80013465B0013445B000B4403331B78012B4E
:1010F80009D8FA79204913465B0013445B000B4476
:1011080001221A7040E0FA791B4913465B00134428
:101118005B000B4409221A7036E0FA791649134627
:101128005B0013445B000B44013300221A70FA7908
:10113800114913465B0013445B000B4400221A70EC
:1011480023E0FA790C4913465B0013445B000B4417
:10115800013301221A70FA79074913465B001344D8
:101168005B000B4400221A700FE000BF0DE000BFC7
:101178000BE000BF09E000BF000B0020000C02409C
:10118800000402400010024000BFFA7911491346DA
:101198005B0013445B000B4404331B88002B15D001
:1011A800FA790C4913465B0013445B000B44043383
:1011B8001B88013B98B2074913465B0013445B0048
:1011C8000B44043302461A8000E000BF1037BD46C6
:1011D80080BD00BF000B002080B584B000AF03467F
:1011E800FB71FB79012B00F29281FA79B34913461E
:1011F8005B0013445B000B441B78092B00F26781EA
:1012080001A252F823F000BF391200084F1200085B
:101218004F130008D7140008F112000895120008AF
:10122800D7140008AD130008671400088F140008CD
:10123800FA79A24913465B0013445B000B4403335D
:1012480000221A7043E1FB79002B05D10022082106
:101258009B4806F095FA04E000221021984806F011
:101268008FFAFA79954913465B0013445B000B44E7
:1012780004334FF47A721A80FA79904913465B0066
:1012880013445B000B4405221A7020E1FA798B495C
:1012980013465B0013445B000B4404331B88002B8C
:1012A80040F00581FB79002B05D1002220218448DC
:1012B80006F066FA04E000224021814806F060FA50
:1012C800FA797E4913465B0013445B000B440433F0
:1012D80032221A80FA79794913465B0013445B007D
:1012E8000B4404221A70E2E0FA79744913465B0051
:1012F80013445B000B4404331B88002B40F0D98057
:10130800FB79002B05D1012280216D4806F038FABF
:1013180004E0012208216B4806F032FAFA7967499D
:1013280013465B0013445B000B4404334FF47A729A
:101338001A80FA79614913465B0013445B000B4439
:1013480002221A70B5E0FA795C4913465B0013442F
:101358005B000B4404331B88002B40F0AC80FB7906
:10136800002B05D101220821554806F009FA04E0AE
:1013780001221021524806F003FAFA794F49134620
:101388005B0013445B000B4404334FF47A721A80F9
:10139800FA794A4913465B0013445B000B44072261
:1013A8001A7088E0FA79454913465B0013445B00DC
:1013B8000B4404331B88002B40F08880FB79002BFA
:1013C80007D14FF48061404806F0C2F90346FB7329
:1013D80006E04FF400613C4806F0BAF90346FB7397
:1013E800FB7B002B09D1FA79344913465B0013447F
:1013F8005B000B4408221A7068E0FA792F491346FB
:101408005B0013445B000B4403331B780133D8B2F1
:101418002A4913465B0013445B000B44033301461F
:101428001970264913465B0013445B000B440333D1
:101438001B78012B09D8FA79204913465B0013441D
:101448005B000B4401221A7040E0FA791B491346ED
:101458005B0013445B000B4409221A7036E0FA79EA
:10146800164913465B0013445B000B44013300220A
:101478001A70FA79114913465B0013445B000B4458
:1014880000221A7023E0FA790C4913465B001344D2
:101498005B000B44013301221A70FA79074913469D
:1014A8005B0013445B000B4400221A700FE000BF7E
:1014B8000DE000BF0BE000BF09E000BF0C0B0020EF
:1014C800000C0240000402400010024000BFFA79FC
:1014D800114913465B0013445B000B4404331B881B
:1014E800002B15D0FA790C4913465B0013445B00B6
:1014F8000B4404331B88013B98B2074913465B0031
:1015080013445B000B44043302461A8000E000BF1A
:101518001037BD4680BD00BF0C0B002080B584B0DD
:1015280000AF0346FB710023FB6059E0FB79012BF8
:1015380029D1002208212E4806F022F9642004F05F
:1015480049FE002280212A4806F01AF9322004F0C8
:1015580041FE01222021264806F012F9642004F0F9
:1015680039FE01220821224806F00AF9642004F015
:1015780031FE4FF480611F4806F0EAF80346002B5D
:101588002BD0012330E000221021194806F0F8F88A
:10159800642004F01FFE00220821174806F0F0F826
:1015A800322004F017FE01224021114806F0E8F825
:1015B800642004F00FFE012210210D4806F0E0F827
:1015C800642004F007FE4FF400610A4806F0C0F8F2
:1015D8000346002B01D0012306E0FB680133FB60C2
:1015E800FB68012BA2DD002318461037BD4680BDDD
:1015F800000C0240001002400004024080B584B094
:1016080000AF0346FB710023FB6059E0FB79012B17
:1016180029D1002208212E4806F0B2F8642004F0EF
:10162800D9FD002220212A4806F0AAF8322004F029
:10163800D1FD01228021264806F0A2F8642004F09A
:10164800C9FD01220821224806F09AF8642004F016
:10165800C1FD4FF480611F4806F07AF80346002B5D
:101668002BD1012330E000221021194806F088F818
:10167800642004F0AFFD00224021154806F080F8F0
:10168800322004F0A7FD01220821134806F078F85B
:10169800642004F09FFD012210210D4806F070F827
:1016A800642004F097FD4FF400610A4806F050F8F2
:1016B8000346002B01D1012306E0FB680133FB60E0
:1016C800FB68012BA2DD002318461037BD4680BDFC
:1016D800000C0240001002400004024080B500AF38
:1016E800544B1B680A225449184601F0A5F9524B7D
:1016F8001B68524A1360504B5B68504A53604E4B0C
:101708009B684E4A93604E4B1B684C4A12881A805D
:101718004B4B1B680233494A52881A80484B1B6856
:101728000433464A92881A80454B1B680633434A5D
:10173800D2881A80424B1B680833404A12891A80A3
:101748003F4B1B680A333D4A52891A803A4BDB6883
:101758003C4A1360384B1B693A4A5360364B5B6905
:10176800384A9360364B1B680C33364A12881A8005
:10177800334B1B680E33334A52881A80304B1B6830
:101788001033304A92881A802D4B1B6812332D4A29
:10179800D2881A802A4B1B6814332A4A12891A8065
:1017A800274B1B681633274A52891A80224B9B699C
:1017B800254A1360204BDB69234A53601E4B1B6A82
:1017C800214A93601E4B1B6818331F4A12881A80DF
:1017D8001B4B1B681A331C4A52881A80184B1B680B
:1017E8001C33194A92881A80154B1B681E33164AF7
:1017F800D2881A80124B1B682033134A12891A8028
:101808000F4B1B682233104A52891A8014230A226C
:101818000A490E4800F020F80423062209490C481A
:1018280000F01AF80423062207490A4800F014F8C1
:1018380000BF80BDECA70008401400201C14002045
:10184800740A002028140020341400200800002006
:10185800180B0020CC0B0020B0B58EB000AFF8609C
:10186800B96011461A460B46FB711346BB71FB79EA
:10187800012B40F20881BB79012B40F20481BB683F
:1018880008331B881A46BB681B88D31A1846FEF70C
:10189800E9FD04460D46FB79013B1846FEF7E2FDDB
:1018A80002460B4620462946FEF770FF02460B46C5
:1018B800C7E90A23BB6808335B881A46BB685B889C
:1018C800D31A1846FEF7CEFD04460D46FB79013BB8
:1018D8001846FEF7C7FD02460B4620462946FEF786
:1018E80055FF02460B46C7E90823BB6804331B882B
:1018F8001A46BB681B88D31A1846FEF7B3FD044680
:101908000D46BB79013B1846FEF7ACFD02460B4677
:1019180020462946FEF73AFF02460B46C7E906234A
:10192800BB6804335B881A46BB685B88D31A1846C1
:10193800FEF798FD04460D46BB79013B1846FEF7B5
:1019480091FD02460B4620462946FEF71FFF024638
:101958000B46C7E904230023FB86002387F83530AC
:101968008AE0002387F834307BE0BB681B88184680
:10197800FEF778FD04460D4697F835301846FEF711
:1019880071FDD7E90A23FEF7D7FD02460B4620462C
:101998002946FEF71BFC02460B4614461D4697F8DF
:1019A80034301846FEF75EFDD7E90623FEF7C4FD7E
:1019B80002460B4620462946FEF708FC02460B461F
:1019C80010461946FA8E13465B0013445B001A460C
:1019D800FB689C18FEF7C2FF03469BB22380BB68D6
:1019E8005B881846FEF73EFD04460D4697F83530ED
:1019F8001846FEF737FDD7E90823FEF79DFD024696
:101A08000B4620462946FEF7E1FB02460B461446E4
:101A18001D4697F834301846FEF724FDD7E904230D
:101A2800FEF78AFD02460B4620462946FEF7CEFB06
:101A380002460B4610461946FA8E13465B001344BD
:101A48005B001A46FB689C18FEF788FF03469BB2AA
:101A58006380FB8E0133FB8697F83430013387F8B7
:101A6800343097F83420BB799A42FFF47EAF97F868
:101A78003530013387F8353097F83520FB799A42AD
:101A8800FFF46FAF00E000BF3837BD46B0BD0000BF
:101A980080B594B000AFB14B1A6813786FF3410367
:101AA8001370AF4B1A68137843F002031370AD4BF1
:101AB8001B781A46AC4BDA80AA4B5B781A46AA4BBD
:101AC8001A81AA4B1B88002B09D118220021A8488B
:101AD80000F022FF18220021A64800F01DFFA64BA7
:101AE8001B88002B40F05F83C8220021A34800F028
:101AF800DFFE58E3994B1A6813786FF341031370AC
:101B08004FF480519E4805F023FE0346002B0AD16E
:101B18009C4B1B780F2B06D09A4B1A789A4B1A704D
:101B2800984B0F221A70974B1B780F2B00F22C83BF
:101B380001A252F823F000BF811B00089F1B000878
:101B4800DB1C0008EF1C0008CB1D0008D31D000893
:101B5800751E0008171F0008A31F0008831F000830
:101B6800911F0008112000081F20000831200008DC
:101B780089200008EF200008794B1A68137843F091
:101B88000203137001220021804800F0C5FE7D4B3E
:101B980001221A7007E301220121794805F0F0FDBE
:101BA80000224FF400717A4805F0EAFD6C4B1A6880
:101BB800137843F0020313706C4B1B88172B03D860
:101BC8006D4B1B88632B03D96E4B0E221A70EAE209
:101BD800694B1B886F4AA2FB03231B099BB2FB605E
:101BE800654B1A886B4BA3FB021319090B469B0024
:101BF8000B449B00D31A9BB2BB60FB6803F0010344
:101C0800002B03D0BB68C3F1130300E0BB687B6003
:101C1800FB685B003B6002F0F7FF5F4B19683A68AE
:101C280013469B0013449B001A467B6813441A46CC
:101C380013465B0013445B000B441888564B196825
:101C48003A6813469B0013449B001A467B6813446A
:101C58001A4613465B0013445B000B445B8841F251
:101C68008832194602F066FB4FF47A7004F0B2FA33
:101C780002F0CAFF484B19683A6813469B001344A0
:101C88009B001A467B6813441A4613465B001344AC
:101C98005B000B441888404B19683A6813469B0050
:101CA80013449B001A467B6813441A4613465B008C
:101CB80013445B000B445B8843F2C822194602F0C8
:101CC800DFFB4FF47A7004F085FA2E4B02221A706B
:101CD80069E20020FFF75AF80120FFF757F8294B6F
:101CE80003221A705FE22D4B5B78002B58D1224BF0
:101CF8001B88284AA2FB03231B099BB2FB611E4BCE
:101D08001A88244BA3FB021319090B469B000B44AA
:101D18009B00D31A9BB2BB61FB6903F00103002B44
:101D280003D0BB69C3F1130300E0BB697B61FB69A6
:101D38005B003B613B699BB21A46920013449B00CF
:101D48009AB27B699BB213449BB2012219460B4895
:101D580000F0E2FD0B4B04221A7017E2780900200C
:101D680080090020880C0020FC090020840C002039
:101D78009011002093110020820C00207711002080
:101D880000100240800C0020810C002096110020D9
:101D980000040240CDCCCCCC68090020000B002008
:101DA800A94B5B78012B40F0F18101220021A74863
:101DB80000F07EFD0320FEF769FFA54B06221A708E
:101DC800E4E1A34B05221A70EDE19F4BDB79002B70
:101DD80038D1A04B1B88A04AA2FB03231B099BB246
:101DE800FB629C4B1A889C4BA3FB021319090B46F8
:101DF8009B000B449B00D31A9BB2BB62FB6A03F0A7
:101E08000103002B03D0BB6AC3F1130300E0BB6AD4
:101E18007B62FB6A5B003B623B6A9BB21A4692009C
:101E280013449B009AB27B6A9BB213449BB214334F
:101E38009BB201221946894800F06EFD844B0722A7
:101E48001A70A5E1804BDB79012B40F0A1810020BD
:101E5800FEF7DEFF012200217C4800F029FD032067
:101E6800FEF714FF7A4B06221A7091E14FF4FA71CB
:101E7800012004F0C7F90346002B0ED0784B93F8E5
:101E88002230002B09D001224FF40071754805F06B
:101E980077FC0121744805F08CFC744B1B681B7897
:101EA80003F00103DBB2002B13D0704B1A681378D0
:101EB8006FF30003137001220021644800F02CFD29
:101EC800644B1B8801339AB2624B1A80604B0E2216
:101ED8001A70664B1B681B7803F00203DBB2002BF9
:101EE80000F05881614B1A6813786FF3410313703F
:101EF80001220021554800F00FFD564B1B88013385
:101F08009AB2544B1A80524B01221A7042E1584B34
:101F18001B88584AA2FB0323DB089BB287F83F3093
:101F2800534B1A88534BA3FB0213D9080B465B008B
:101F38000B449B00D31A9BB287F83E3097F83E308B
:101F480003F00303BB6397F83E309B08DBB25B00EA
:101F58007B6397F83F30484A52F823303B637B6BEA
:101F68009A00BB6B1A4497F83F301946386B00F05B
:101F78006FF9374B09221A7015E10020FEF748FF68
:101F8800334B0A221A700EE13C4B5B78002B40F071
:101F980003812F4B08221A70FEE0354B1B88354A07
:101FA800A2FB0323DB089BB287F84F30304B1A881B
:101FB800304BA3FB0213D9080B465B000B449B0074
:101FC800D31A9BB287F84E3097F84E3003F00303CC
:101FD800BB6497F84E309B08DBB25B007B6497F8D4
:101FE8004F30254A52F823303B647B6C01339A000A
:101FF800BB6C1A4497F84F301946386C00F028F932
:10200800134B0B221A70CEE00120FEF701FF104B94
:102018000C221A70C7E0194BDB79002B40F0BE8008
:102028000B4B0D221A70B9E00A4B1B8801339AB288
:10203800084B1A800E4B1B8801339AB20C4B1A803E
:10204800034B01221A70AEE0000B0020961100200D
:10205800800C0020820C0020CDCCCCCC7711002045
:102068007411002000040240001002407C09002086
:10207800840C0020ABAAAAAA6C0900200C0B002033
:1020880002F0C2FD00220021002002F053F902F004
:10209800BBFD654B1A6813786FF3410313704FF457
:1020A800FA71012004F0AEF80346002B09D0012292
:1020B8004FF400715D4805F063FB01215C4805F0B1
:1020C80078FB5C4B1B681B7803F00203DBB2002B28
:1020D80066D0584B1A6813786FF341031370564B48
:1020E80001221A705CE002F08FFD4F4B1A681378DA
:1020F8006FF3410313704FF4FA71012004F082F872
:102108000346002B0DD001224FF40071474805F01B
:1021180037FB0121464805F04CFB0221444805F0F5
:1021280048FB4FF48051424805F012FB0346002B50
:1021380038D0012202213E4805F022FB3F4B1B7894
:10214800062B03D13C4B06221A702BE0394B1B6837
:102158001B7803F00203DBB2002B23D000224FF4DC
:102168000071324805F00CFB01220121304805F0CE
:1021780007FB2D4B1A68137843F0020313702F4B9B
:102188001A782D4B1A700DE000BF0CE000BF0AE072
:1021980000BF08E000BF06E000BF04E000BF02E0A7
:1021A80000BF00E000BF264B1B88172B08D8254B23
:1021B8001B88632B04D8244B1B78002B3FF49AAC64
:1021C800214B00221A700520FEF760FD00224FF413
:1021D8000071164805F0D4FA02F016FD002200211D
:1021E800002002F0A7F802F00FFD0F4B1A681378D1
:1021F8006FF341031370134B1B88632B02D9114BE8
:1022080000221A800E4B1B88172B08D90C4B002272
:102218001A800E4B00221A700C4B00225A7000BF15
:102228005037BD4680BD00BF800900200004024031
:102238000010024078090020800C0020810C00204A
:10224800840C0020820C00208A0C0020880C0020BE
:1022580080B584B000AFF8600B467A60FB7202F07C
:10226800D3FCFB7A002B17D17A6813465B00134422
:102278005B001A46FB68134418887A6813465B00AB
:1022880013445B001A46FB6813445B8840F6AC5263
:10229800194602F04FF818E07A6813465B001344B9
:1022A8005B001A46FB68134418887A6813465B007B
:1022B80013445B001A46FB6813445B88643B9BB27B
:1022C80040F6AC52194602F035F84FF4FA7003F0B4
:1022D80081FF02F099FCFB7A2D4AD25C0132D1B21F
:1022E8002B4AD154FB7A002B23D17B689BB2012265
:1022F8001946284800F0DCFA254B1B781A46264B6D
:10230800DA807A6813465B0013445B001A46FB6860
:10231800134418887A6813465B0013445B001A4616
:10232800FB6813445B8842F6EC42194602F0A8F8B1
:1023380024E07B689BB201221946184800F0B8FADD
:10234800134B5B781A46144B1A817A6813465B0064
:1023580013445B001A46FB68134418887A681346CE
:102368005B0013445B001A46FB6813445B88643BBC
:102378009BB242F6EC42194602F082F802F044FCA5
:102388004FF47A7003F026FF00BF1037BD4680BDBA
:10239800880C002090110020FC09002093110020D7
:1023A80080B400AFBFF34F8F00BF064BDB6803F468
:1023B800E0620449044B1343CB60BFF34F8F00BF67
:1023C80000BFFDE700ED00E00400FA0580B500AFAE
:1023D80041F2707003F0D6FFC8220021234800F0B4
:1023E80067FA4FF480722249224807F064F8224BBA
:1023F8001A68137843F001031370FFF76FF91F4849
:1024080005F0F2FE1E4805F0EFFE1E4805F0ECFE52
:102418001D4805F0E9FE49F64041322001F0A0FDD3
:1024280049F64041322001F0CDFD41F28831322099
:1024380001F0FAFD154B1B6800225A620F4B1B680E
:1024480000225A62124B1B6800225A620D4B1B680D
:1024580000225A620F4B1B6800225A62084B1B6805
:1024680000225A6200F018F800BF80BD77110020E2
:10247800740F0020CC0E002074090020640D002089
:10248800840E0020D40C0020F40D00203C0E002007
:102498008C0C00201C0D002080B500AF0122022109
:1024A800264800F005FA282004F0B9F8012208218E
:1024B800234805F065F901221021214805F060F94B
:1024C8000421204805F044F90346012B03D11E4B93
:1024D80004229A7102E01C4B03229A7100BF1A4B26
:1024E8009B79042BFBD10121164805F031F90346ED
:1024F800012B03D1154B04229A7102E0134B0322DE
:102508009A7102210F4805F023F90346012B03D1E4
:102518000F4B04229A7102E00D4B03229A7102F0CC
:1025280073FB282004F06DF80A4805F05DFE0122CF
:102538000221024800F0F0F900BF80BD961100208A
:10254800000C024000080240AC0A00209C0A00204F
:10255800A40A0020AC0D002080B582B000AF104B5B
:102568001B681B781A4692FAA2F3B3FA83F3002A7F
:1025780001D14FF0FF330133FB71FB79002B0AD0F7
:10258800FB79013BFB71FB79012B04D8FB79054AE8
:1025980052F82330984700BF0837BD4680BD00BFBA
:1025A8007C0900209009002080B582B000AF104B54
:1025B8001B681B781A4692FAA2F3B3FA83F3002A2F
:1025C80001D14FF0FF330133FB71FB79002B0AD0A7
:1025D800FB79013BFB71FB79022B04D8FB79054A97
:1025E80052F82330984700BF0837BD4680BD00BF6A
:1025F800780900208409002080B582B000AF144B10
:102608001B681B881A04134B1B681B781B02134397
:10261800114A12681278134393FAA3F2B2FA82F2BB
:10262800002B01D14FF0FF32531CFB71FB79002BBB
:102638000AD0FB79013BFB71FB79182B04D8FB7995
:10264800064A52F82330984700BF0837BD4680BD78
:10265800680A0020640A0020600A00209809002007
:1026680080B400AF054B1A68137843F00103137068
:1026780000BFBD465DF8047B704700BF800900209D
:1026880080B500AF044B1A68137843F00203137047
:10269800FFF7FEF900BF80BD8009002080B400AFBD
:1026A800054B1A68137843F00403137000BFBD4646
:1026B8005DF8047B704700BF8009002080B400AF3C
:1026C80000BFBD465DF8047B704780B400AF00BF13
:1026D800BD465DF8047B704780B500AF4FF480516C
:1026E8000F4805F035F80346002B16D00D4B1B6834
:1026F8001B7803F00103DBB2002B02D0FFF754FF75
:1027080009E0084B1B681B7803F00203DBB2002BBF
:1027180001D0FFF771FFFFF71FFF00BF80BD00BFAB
:10272800001002407409002080B500AF01F0F4FFEA
:1027380001F050FF02F092F8FEF7BAFA0020FEF717
:10274800A9FB0120FEF7A6FB0020FEF745FD0120AE
:10275800FEF742FD4FF48051094804F0F9FF0346A3
:10276800002B05D101220121064800F0A1F804E060
:1027780001220121034800F0CFF800BF80BD00BF4F
:10278800001002409611002080B500AF4FF4FA7196
:10279800002003F037FD0346002B17D04FF480517B
:1027A8001A4804F0D5FF0346002B0FD0012201215F
:1027B800164804F0E5FF01220221144804F0E0FF66
:1027C8004FF40071124804F0F4FF1DE04FF4FA7161
:1027D800022003F017FD0346002B15D04FF480515B
:1027E8000A4804F0B5FF0346002B0DD101224FF42F
:1027F8000071074804F0C4FF0121044804F0D9FF20
:102808000221024804F0D5FF00BF80BD001002403D
:102818000004024080B582B000AF0346FB80FB880D
:10282800B3F5804F1CD14FF480411C4804F090FF51
:102838000346002B2DD01A4B1A68137843F0020375
:102848001370184B1B681B7803F00203DBB2002BD4
:102858001FD0134B1A6813786FF34103137018E0F5
:10286800FB88082B08D108210F4804F071FF0346A4
:10287800002B0ED0FFF794FDFB88102B09D11021F7
:10288800094804F065FF0346002B02D0074B0122DC
:102898001A7000BF0837BD4680BD00BF0010024057
:1028A8007809002074090020000802408A0C0020E2
:1028B80080B487B000AF78600B467B8013467B708E
:1028C8007A887B7813443B617B887B6119E07B695C
:1028D800DB08FB607B69DBB203F00703FB727A68F5
:1028E800FB6813441978FB7A012202FA03F3DAB27F
:1028F8007868FB6803440A43D2B21A707B690133D3
:102908007B617A693B699A42E1D300BF00BF1C37FB
:10291800BD465DF8047B704780B485B000AF786031
:102928000B467B8013467B707B789AB27B88134476
:10293800BB817B88FB811BE0FB89DB087B81FB89F2
:10294800DBB203F007037B727B897A68134419783A
:102958007B7A012202FA03F3DBB2DB43DAB27B892A
:10296800786803440A40D2B21A70FB890133FB81AC
:10297800FA89BB899A42DFD300BF00BF1437BD462E
:102988005DF8047B7047000080B485B000AF7860C4
:102998000023FB607B68204A934202D20023FB603D
:1029A80032E07B681D4A934202D20123FB602BE090
:1029B8007B681B4A934202D20223FB6024E07B68B7
:1029C800184A934202D80323FB601DE07B68164A2D
:1029D800934202D80423FB6016E07B68134A9342B3
:1029E80002D80523FB600FE07B68114A934202D8A6
:1029F8000623FB6008E07B680E4A934202D807234F
:102A0800FB6001E00723FB60FB6818461437BD46EE
:102A18005DF8047B704700BF004000080080000894
:102A280000C00008FFFF0008FFFF0108FFFF0308C0
:102A3800FFFF0508FFFF070880B485B000AFF86006
:102A4800B9601346FB80FB681A68BB681A60FB68AC
:102A58000433FB60BB680433BB60FB885A1EFA80F2
:102A6800002B00D0EFE700BF00BF1437BD465DF86C
:102A7800047B7047B0B58EB000AFF860B9601346FC
:102A8800FB8000237B61FB687B6372B600BF04F0A8
:102A980035FAF868FFF778FFF8620023BB61022374
:102AA800BB62FB6A3B6201237B6207F1140207F1F8
:102AB80018031146184604F08FFB0346002B07D075
:102AC80004F03EFA62B600BF04F04AFA03465AE040
:102AD80000237B861EE07B8E9B00BA6813441B682C
:102AE80000221C46154622462B46796B022004F02C
:102AF800B3F90346002B07D004F022FA62B600BFF0
:102B080004F02EFA03463EE07B6B04337B637B8E36
:102B180001337B867A8EFB889A42DCD304F010FA64
:102B28001B4B1B681A4A23F480631360184B1B68FD
:102B3800174A23F400731360154B1B68144A43F4B7
:102B480080531360124B1B68114A23F4805313609F
:102B58000F4B1B680E4A43F4006313600C4B1B6851
:102B68000B4A23F400631360094B1B68084A43F4BB
:102B780000731360064B1B68054A43F480631360B7
:102B880062B600BF002318463837BD46B0BD00BF47
:102B9800003C024080B500AF03F082FB00F01CF857
:102BA80000F070FB00F04EFB00F022FB00F0A6F9ED
:102BB80000F060FA00F07AF800F0FAF800F046F950
:102BC80000F0DAFA00F0EAF900F01EFAFFF7FEFB6F
:102BD800FFF7DAFDFCE7000080B594B000AF07F11D
:102BE800200330220021184607F0C4FD07F10C032A
:102BF80000221A605A609A60DA601A610023BB608A
:102C0800284B1B6C274A43F080531364254B1B6CDD
:102C180003F08053BB60BB6800237B60224B1B68BA
:102C2800214A43F4804313601F4B1B6803F480431D
:102C38007B607B6802233B620123FB6210233B63BA
:102C48000223BB630023FB6308233B64A8237B6444
:102C58000223BB640423FB6407F12003184604F035
:102C6800DBFD0346002B01D000F04CFC0F23FB607A
:102C780002233B6100237B614FF4A053BB614FF4F7
:102C88008053FB6107F10C030521184605F03CF859
:102C98000346002B01D000F035FC00BF5037BD467D
:102CA80080BD00BF003802400070004080B592B07F
:102CB80000AF07F1400300221A605A6007F12403AD
:102CC80000221A605A609A60DA601A615A619A6141
:102CD8003B1D20220021184607F04CFD324B334A99
:102CE8001A60314B53225A602F4B00229A602E4BA8
:102CF8006422DA602C4B00221A612B4B00225A61A5
:102D0800294B00229A61284805F0DEFA0346002B79
:102D180001D000F0F7FB40233B6400237B6407F1FC
:102D280040031946204806F009FA0346002B01D053
:102D380000F0E8FB60237B623223BB620223FB6264
:102D480000233B6300237B630023BB630023FB63F7
:102D580007F1240300221946134805F02DFD034608
:102D6800002B01D000F0CEFB00237B600023BB606A
:102D78000023FB6000233B6100237B614FF4005379
:102D8800BB6100233B623B1D1946074806F052FA17
:102D98000346002B01D000F0B5FB034802F03CFFCE
:102DA80000BF4837BD4680BD8C0C002000000140A4
:102DB80080B588B000AF07F10C0300221A605A6092
:102DC8009A60DA601A613B1D00221A605A601E4B35
:102DD8004FF080421A601C4B00225A601A4B0022A6
:102DE8009A60194B4FF0FF32DA60174B00221A61D4
:102DF800154B00229A61144805F0A6F90346002BEA
:102E080001D000F07FFB0723FB6000233B6107F143
:102E18000C0319460C4805F091FD0346002B01D020
:102E280000F070FB00237B600023BB603B1D19464C
:102E3800054806F083F90346002B01D000F062FB39
:102E480000BF2037BD4680BDD40C002080B58AB0B5
:102E580000AF07F1200300221A605A603B1D0022D0
:102E68001A605A609A60DA601A615A619A61214B55
:102E7800214A1A601F4B29225A601E4B00229A6071
:102E88001C4B6422DA601B4B00221A61194B00228A
:102E98009A61184805F018FA0346002B01D000F093
:102EA80031FB60233B6200237B6207F12003194654
:102EB800104806F043F90346002B01D000F022FB2E
:102EC80060237B603223BB600223FB6000237B61AD
:102ED8003B1D08221946074805F06EFC0346002BE7
:102EE80001D000F00FFB034802F096FE00BF283720
:102EF800BD4680BD1C0D00200004004080B588B090
:102F080000AF07F10C0300221A605A609A60DA6079
:102F18001A613B1D00221A605A601E4B1E4A1A6035
:102F28001C4B00225A601B4B00229A60194B4FF031
:102F3800FF32DA60174B00221A61164B00229A61A1
:102F4800144805F001F90346002B01D000F0DAFA25
:102F58000723FB6030233B6107F10C0319460D483A
:102F680005F0ECFC0346002B01D000F0CBFA00235F
:102F78007B600023BB603B1D1946064806F0DEF85F
:102F88000346002B01D000F0BDFA00BF2037BD4634
:102F980080BD00BF640D0020000C004080B582B0E9
:102FA80000AF3B4600221A605A60154B154A1A605A
:102FB800134B53225A60124B00229A60104B42F274
:102FC8001072DA600E4B00229A610D4805F0BCF8C9
:102FD8000346002B01D000F095FA00233B60002344
:102FE8007B603B461946064806F0A8F80346002BC6
:102FF80001D000F087FA00BF0837BD4680BD00BF8A
:10300800AC0D00200010004080B582B000AF3B46F8
:1030180000221A605A60154B154A1A60134B532246
:103028005A60124B00229A60104B4FF47A72DA60A1
:103038000E4B00229A610D4805F086F80346002BD6
:1030480001D000F05FFA00233B6000237B603B4621
:103058001946064806F072F80346002B01D000F026
:1030680051FA00BF0837BD4680BD00BFF40D0020EF
:103078000014004080B592B000AF07F14003002271
:103088001A605A6007F1240300221A605A609A6095
:10309800DA601A615A619A613B1D202200211846A4
:1030A80007F068FB324B334A1A60314B53225A609F
:1030B8002F4B00229A602E4B6422DA602C4B0022A0
:1030C8001A612B4B00225A61294B00229A61284829
:1030D80005F0FAF80346002B01D000F013FA40235C
:1030E8003B6400237B6407F140031946204806F03F
:1030F80025F80346002B01D000F004FA60237B6218
:103108003223BB620223FB6200233B6300237B6301
:103118000023BB630023FB6307F124030022194645
:10312800134805F049FB0346002B01D000F0EAF9EB
:1031380000237B600023BB600023FB6000233B610E
:1031480000237B614FF40053BB6100233B623B1DAE
:103158001946074806F06EF80346002B01D000F028
:10316800D1F9034802F058FD00BF4837BD4680BD7D
:103178003C0E00200004014080B586B000AF3B1D26
:1031880000221A605A609A60DA601A61164B174A70
:103198001A60154B00225A60134B00229A60124B9A
:1031A8004FF6FF72DA60104B00221A610E4B0022B4
:1031B8009A610D4804F0C8FF0346002B01D000F0C7
:1031C800A1F907237B601023BB603B1D1946064805
:1031D80005F0B4FB0346002B01D000F093F900BFC3
:1031E8001837BD4680BD00BF840E00200040014056
:1031F80080B500AF114B124A1A60104B4FF4E13200
:103208005A600E4B00229A600C4B0022DA600B4B7E
:1032180000221A61094B0C225A61084B00229A615C
:10322800064B0022DA61054806F06AF80346002BCF
:1032380001D000F067F900BF80BD00BFCC0E0020B0
:103248000044004080B582B000AF00237B600C4B87
:103258001B6B0B4A43F400131363094B1B6B03F4FA
:1032680000137B607B6800220021102003F0ADF979
:10327800102003F0C6F900BF0837BD4680BD00BF67
:103288000038024080B58CB000AF07F11C03002263
:103298001A605A609A60DA601A610023BB61934B26
:1032A8001B6B924A43F010031363904B1B6B03F0A4
:1032B8001003BB61BB6900237B618C4B1B6B8B4A82
:1032C80043F004031363894B1B6B03F004037B6116
:1032D8007B6900233B61854B1B6B844A43F0800369
:1032E8001363824B1B6B03F080033B613B69002334
:1032F800FB607E4B1B6B7D4A43F0010313637B4BE2
:103308001B6B03F00103FB60FB680023BB60774B7A
:103318001B6B764A43F008031363744B1B6B03F073
:103328000803BB60BB6800237B60704B1B6B6F4A54
:1033380043F0020313636D4B1B6B03F002037B60C6
:103348007B68012207216A4804F01AFA00227821D2
:10335800674804F015FA00224FF40A51654804F052
:103368000FFA00224FF40071634804F009FA0022B2
:10337800F821624804F004FA00224FF49C71604876
:1033880004F0FEF901224FF400715D4804F0F8F9E9
:103398007F23FB6101233B6200237B620023BB6226
:1033A80007F11C031946524804F036F84FF40A5343
:1033B800FB6101233B6200237B620023BB6207F1B0
:1033C8001C0319464B4804F027F83F23FB614FF4D0
:1033D80088133B6200237B6207F11C0319464548AA
:1033E80004F01AF84EF68073FB614FF488133B62C1
:1033F80000237B6207F11C0319463D4804F00CF8D2
:103408004FF48053FB614FF444133B6200237B620B
:1034180007F11C031946364803F0FEFF4FF400730A
:10342800FB6101233B6200237B620023BB6207F13F
:103438001C031946304803F0EFFFF823FB61012312
:103448003B6200237B620023BB6207F11C03194621
:103458002A4803F0E1FF4FF44E73FB6101233B62FE
:1034680000237B620023BB6207F11C031946244832
:1034780003F0D2FF00220A21062003F0A6F8062056
:1034880003F0BFF800220A21072003F09EF8072066
:1034980003F0B7F800220A21082003F096F8082064
:1034A80003F0AFF800220121092003F08EF809206B
:1034B80003F0A7F8002203210A2003F086F80A2067
:1034C80003F09FF800220221172003F07EF817204E
:1034D80003F097F800220421282003F076F828202A
:1034E80003F08FF800BF3037BD4680BD003802407A
:1034F800001002400008024000000240000C024098
:103508000004024080B400AF72B600BF00BFFDE700
:1035180080B485B000AF78600B467B804FF6FF73B0
:10352800FB810023BB8122E0BB897A6813441B78A6
:103538001A46FB895340FB810023FB7211E0FB898B
:1035480003F00103002B06D0FB895B089AB20D4BF0
:103558005340FB8102E0FB895B08FB81FB7A013366
:10356800FB72FB7A072BEAD9BB890133BB81BA8985
:103578007B889A42D8D3FB8918461437BD465DF834
:10358800047B704701A0FFFF80B584B000AF78606E
:1035980039603B689BB219467868FFF7B9FF034664
:1035A800FB813B687A681344FA89D2B21A70FB89A6
:1035B8001B0A99B23B6801337A681344CAB21A707D
:1035C8003B689BB202339AB24FF47A737968034826
:1035D80005F0E6FE00BF1037BD4680BDCC0E0020CA
:1035E80080B582B000AF0346FB710B4B1A780B4BCA
:1035F8001A70094B5B7863F07F03DAB2074B5A7095
:10360800064AFB79937003210448FFF7BDFF00BF0A
:103618000837BD4680BD00BF740F0020741000201D
:1036280080B584B000AF354B9B781B021AB2334B80
:10363800DB781BB213431BB2FB81304B1B791B0297
:103648001AB22E4B5B791BB213431BB27B807B886B
:10365800002B03D07B88B3F5967F04D30320FFF7B4
:10366800BFFF002345E0FA897B8813449BB2013BE6
:103678003B803B88B3F5967F04D30220FFF7B0FF69
:10368800002336E01E4B01221A701C4B5A781C4B43
:103698005A707B88DBB25B00DAB2194B9A7003234D
:1036A800BB6000237B601BE0FB89164A32F81330AD
:1036B8001B0A99B2BB685A1CBA60C9B2104AD154E5
:1036C800FB89104A32F81310BB685A1CBA60C9B299
:1036D8000B4AD154FB890133FB817B6801337B6042
:1036E8007B887A689A42DFDBB9680548FFF74CFFA8
:1036F800012318461037BD4680BD00BF740F002057
:1037080074100020C411002080B584B000AF354B80
:103718009B781B021AB2334BDB781BB213431BB2E4
:10372800FB81304B1B791B021AB22E4B5B791BB203
:1037380013431BB27B807B88002B03D07B88B3F5B7
:10374800967F04D30320FFF74BFF002345E0FA8957
:103758007B8813449BB2013B3B803B88B3F5967F43
:1037680004D30220FFF73CFF002336E01E4B012262
:103778001A701C4B5A781C4B5A707B88DBB25B0062
:10378800DAB2194B9A700323BB6000237B601BE0FD
:10379800FB89164A32F813301B0A99B2BB685A1CC7
:1037A800BA60C9B2104AD154FB89104A32F81310D2
:1037B800BB685A1CBA60C9B20B4AD154FB890133A1
:1037C800FB817B6801337B607B887A689A42DFDB08
:1037D800B9680548FFF7D8FE012318461037BD46DB
:1037E80080BD00BF740F002074100020FC09002069
:1037F80080B588B000AF524B9B781B021AB2504B71
:10380800DB781BB213431BB27B814D4B1B791B0228
:103818001AB24B4B5B791BB213431BB23B813B89FA
:10382800002B03D03B89B3F5FA6F04D90320FFF7C7
:10383800D7FE002380E07A893B8913449BB2013B81
:10384800FB80FB88C72B04D90220FFF7C9FE0023A1
:1038580072E04FF4807200213A4806F08BFF394B32
:1038680001221A70364B5A78364B5A703B89DB085E
:103878009BB2DBB23A8902F0070292B2002A14BF67
:1038880001220022D2B21344DAB22E4B9A700323DB
:10389800FB617B89DB089BB2BB617B8903F0070373
:1038A800FB8200233B610023FB6033E0254AFB6970
:1038B80013441B785AB22449BB690B441B78194638
:1038C800FB8A41FA03F303F001013B6901FA03F3B0
:1038D8005BB213435BB2D9B21A4AFB6913440A4676
:1038E8001A703B6901333B61FB8A0133FB823B69F8
:1038F800072B04DD00233B61FB690133FB61FB8A75
:10390800072B04D90023FB82BB690133BB61FB6829
:103918000133FB603B89FA689A42C7DB3B8903F0B5
:1039280007039BB2002B02D0FB690133FB61F969E5
:103938000448FFF729FE012318462037BD4680BDFD
:10394800740F002074100020A811002080B588B0E2
:1039580000AF534B9B781B021AB2514BDB781BB25A
:1039680013431BB27B814E4B1B791B021AB24C4B83
:103978005B791BB213431BB23B813B89002B03D0FD
:103988003B89B3F5FA6F04D90320FFF729FE00231A
:1039980081E07A893B8913449BB2013BFB80FB8819
:1039A800B3F5C87F04D90220FFF71AFE002372E09E
:1039B8004FF4807200213B4806F0DCFE394B0122AF
:1039C8001A70374B5A78374B5A703B89DB089BB2D1
:1039D800DBB23A8902F0070292B2002A14BF012230
:1039E8000022D2B21344DAB22E4B9A700323FB6141
:1039F8007B89DB089BB2BB617B8903F00703FB82F1
:103A080000233B610023FB6033E0264AFB69134433
:103A18001B785AB22449BB690B441B781946FB8AA8
:103A280041FA03F303F001013B6901FA03F35BB2C6
:103A380013435BB2D9B21B4AFB6913440A461A7096
:103A48003B6901333B61FB8A0133FB823B69072BEE
:103A580004DD00233B61FB690133FB61FB8A072B13
:103A680004D90023FB82BB690133BB61FB680133C6
:103A7800FB603B89FA689A42C7DB3B8903F007037E
:103A88009BB2002B02D0FB690133FB61F969054841
:103A9800FFF77AFD012318462037BD4680BD00BFD9
:103AA800740F0020741000207411002080B584B0B9
:103AB80000AF394B9B781B021AB2374BDB781BB22D
:103AC80013431BB2FB81344B1B791B021AB2324BD6
:103AD8005B791BB213431BB27B807B88002B03D01E
:103AE8007B88B3F5967F04D30320FFF779FD002385
:103AF8004DE0FA897B8813449BB2013B3B803B88AD
:103B0800B3F5967F04D30220FFF76AFD00233EE059
:103B18000723BB6000237B6019E0BB685A1CBA60AE
:103B28001D4AD35C1B021AB2BB68591CB9601A49FA
:103B3800CB5C1BB2134319B2FB895A1CFA811A4693
:103B480089B2164B23F812107B6801337B607B889F
:103B58007A689A42E1DB124B01221A700E4B5A78AE
:103B68000F4B5A700C4B9A780D4B9A700A4BDA78B7
:103B78000B4BDA70084B1A79094B1A71064B5A79B4
:103B8800074B5A7106210648FFF7FEFC0123184629
:103B98001037BD4680BD00BF740F0020C41100203F
:103BA8007410002080B582B000AF204B9B781B02B8
:103BB8001AB21E4BDB781BB213431BB2FB80FB8887
:103BC800B3F5967F04D30220FFF70AFD002329E00E
:103BD800164B1B791B021AB2144B5B791BB21343A9
:103BE8001AB2FB8891B2124A22F81310114B012223
:103BF8001A700E4B5A780F4B5A700C4B9A780D4B23
:103C08009A700A4BDA780B4BDA70084B1A79094B21
:103C18001A71064B5A79074B5A7106210548FFF766
:103C2800B3FC012318460837BD4680BD740F002039
:103C3800C41100207410002080B584B000AF384B48
:103C48009B781B021AB2364BDB781BB213431BB2AC
:103C5800FB81FB89C72B04D90220FFF7C1FC002395
:103C68005AE0FB89DB089BB2BB60FB8903F00703C2
:103C7800FB802B4B1B79FF2B16D1294B5B79002B33
:103C880012D1284ABB6813441B785AB2FB88012119
:103C980001FA03F35BB213435BB2D9B2214ABB68A2
:103CA80013440A461A701BE01D4B1B79002B17D1D1
:103CB8001B4B5B79002B13D11A4ABB6813441B7842
:103CC8005AB2FB88012101FA03F35BB2DB435BB212
:103CD80013405BB2D9B2134ABB6813440A461A7040
:103CE800114B01221A700E4B5A780F4B5A700C4B1D
:103CF8009A780D4B9A700A4BDA780B4BDA70084BAE
:103D08001A79094B1A71064B5A79074B5A710621D1
:103D18000548FFF739FC012318461037BD4680BD1A
:103D2800740F0020A81100207410002080B588B0FE
:103D380000AF564B9B781B021AB2544BDB781BB270
:103D480013431BB27B81514B1B791B021AB24F4B99
:103D58005B791BB213431BB23B813B89002B03D019
:103D68003B89B3F5F66F04D90320FFF739FC00232C
:103D780088E07A893B8913449BB2013BFB80FB882E
:103D8800C72B04D90220FFF72BFC00237AE07B899C
:103D9800DB089BB2FB617B8903F007037B8300236D
:103DA8007B6107233B610023FB604BE0374A3B699B
:103DB80013441B781A467B6942FA03F303F00103A4
:103DC800002B12D0324AFB6913441B785AB27B8B02
:103DD800012101FA03F35BB213435BB2D9B22C4A57
:103DE800FB6913440A461A7013E0294AFB69134415
:103DF8001B785AB27B8B012101FA03F35BB2DB43D8
:103E08005BB213405BB2D9B2214AFB6913440A463C
:103E18001A707B8B01337B837B6901337B617B6900
:103E2800072B04DD00237B613B6901333B617B8BFE
:103E3800072B04D900237B83FB690133FB61FB68F3
:103E48000133FB603B89FA689A42AFDB114B0122D0
:103E58001A700E4B5A780F4B5A700C4B9A780D4BC0
:103E68009A700A4BDA780B4BDA70084B1A79094BBF
:103E78001A71064B5A79074B5A7106210548FFF704
:103E880083FB012318462037BD4680BD740F0020F0
:103E9800A81100207410002080B582B000AF7860AF
:103EA8000B467B807B681B682A4A93424ED12A4B7B
:103EB8001B78012B44D1284B5B78013B0F2B3BD857
:103EC80001A252F823F000BF113F0008173F000875
:103ED8001D3F0008233F0008293F00082F3F000826
:103EE800413F0008413F0008413F0008413F0008AA
:103EF800413F0008413F0008413F0008413F00089A
:103F0800353F00083B3F0008FFF772FC18E0FFF759
:103F18001DFD15E0FFF784FB12E0FFF7F5FB0FE04E
:103F2800FFF78AFE0CE0FFF73DFE09E0FFF7FEFE13
:103F380006E0FFF7BBFD03E00120FFF751FB00BFE0
:103F48004FF480720449054805F0B5FA00BF0837F8
:103F5800BD4680BD00440040740F0020CC0E0020F8
:103F680080B483B000AF03460A46FB801346BB808B
:103F7800FA88BB889A4201D9BB88FB80FB880F4A24
:103F880092FBF3F20E4B1B68DA62FB880B4A92FB3A
:103F9800F3F31A460A4BDA60FB88084A92FBF3F3FC
:103FA800DA0F13445B101A46054B1B685A6300BFAF
:103FB8000C37BD465DF8047B704700BF80841E0047
:103FC8003C0E002080B483B000AF03460A46FB8055
:103FD8001346BB80FA88BB889A4201D9BB88FB800C
:103FE800FB880F4A92FBF3F20E4B1B68DA62FB88E0
:103FF8000B4A92FBF3F31A460A4BDA60FB88084A2D
:1040080092FBF3F3DA0F13445B101A46054B1B6857
:104018005A6300BF0C37BD465DF8047B704700BF8C
:1040280080841E008C0C002080B483B000AF03464F
:104038000A46FB801346BB80FA88BB889A4201D99E
:10404800BB88FB80FB880F4A92FBF3F20E4B1B6880
:10405800DA62FB880B4A92FBF3F31A460A4BDA60E2
:10406800FB88084A92FBF3F3DA0F13445B101A46F5
:10407800054B1B68DA6300BF0C37BD465DF8047B4F
:10408800704700BF40420F001C0D002080B500AFF4
:1040980001228021044803F073FB0021034804F047
:1040A80063F900BF80BD00BF000802403C0E00203D
:1040B80080B500AF00228021044803F061FB002195
:1040C800034804F051F900BF80BD00BF000802405A
:1040D8003C0E002080B500AF00224FF40071044868
:1040E80003F04EFB0021034804F03EF900BF80BDF9
:1040F800000002408C0C002080B500AF01224FF474
:104108000071044803F03CFB0021034804F02CF93B
:1041180000BF80BD000002408C0C002080B500AFBD
:1041280001224FF40071044803F02AFB08210348D8
:1041380004F01AF900BF80BD000802401C0D0020E1
:1041480080B500AF00224FF40071044803F018FB5B
:104158000821034804F008F900BF80BD00080240A8
:104168001C0D002080B582B000AF0346FB800B4BCE
:10417800FF221A700A4B1B6800225A62FB885A1EDB
:10418800084B1B68DA62FB88013B1A46054BDA606C
:10419800FFF77CFF00BF0837BD4680BD9C0A0020A2
:1041A8003C0E0020640D002080B582B000AF0346AD
:1041B800FB800B4B01221A700A4B1B6800225A62C3
:1041C800FB885A1E084B1B68DA62FB88013B1A46BB
:1041D800054BDA60FFF76CFF00BF0837BD4680BDAE
:1041E8009C0A00203C0E0020640D002080B582B09F
:1041F80000AF0346FB800B4B01221A700A4B1B6869
:1042080000225A62FB885A1E084B1B68DA62FB8838
:10421800013B1A46054BDA60FFF75CFF00BF083721
:10422800BD4680BDA40A00208C0C0020D40C0020C0
:1042380080B582B000AF0346FB800B4BFF221A709B
:104248000A4B1B6800225A62FB885A1E084B1B68DF
:10425800DA62FB88013B1A46054BDA60FFF74CFF30
:1042680000BF0837BD4680BDA40A00208C0C002082
:10427800D40C002080B582B000AF0346FB800B4B06
:10428800FF221A700A4B1B6800225A62FB885A1ECA
:10429800084B1B68DA62FB88013B1A46054BDA605B
:1042A800FFF73CFF00BF0837BD4680BDAC0A0020C1
:1042B8001C0D0020840E002080B582B000AF03469C
:1042C800FB800B4B01221A700A4B1B6800225A62B2
:1042D800FB885A1E084B1B68DA62FB88013B1A46AA
:1042E800054BDA60FFF72CFF00BF0837BD4680BDDD
:1042F800AC0A00201C0D0020840E002080B483B07E
:1043080000AF03460A46FB801346BB80FA88BB8889
:104318009A4204D9FA88BB88D31A9BB203E0BA88B8
:10432800FB88D31A9BB218460C37BD465DF8047B50
:104338007047000080B584B000AF0346FB800B4691
:10434800BB8013467B80FB884DF2D862934200F213
:104358008D80BB8848F2DC22934200F287807B88FC
:1043680043F2C822934200F28180424B5B889BB2A1
:104378007A8811461846FFF7C1FF0346FB81FB897F
:10438800012B1BD93B4B9B79002B17D141F288316C
:1043980041F28830FFF748FE364B01229A71354BBF
:1043A8005B889BB27A889A4204D2FB891846FFF749
:1043B80061FF03E0FB891846FFF77EFF00BF2D4B26
:1043C8009B79002BFBD12C4B5B889BB2FA8811465A
:1043D8001846FFF793FF0346BB81BB89012B1BD906
:1043E800254B9B79002B17D149F6404147F23050B5
:1043F800FFF7B6FD204B01229A711F4B5B889BB2D9
:10440800FA889A4204D2BB891846FFF7ABFE03E04C
:10441800BB891846FFF7C8FE184B5B889BB2BA8861
:1044280011461846FFF76AFF03467B817B89012BFB
:104438001DD9124B9B79002B19D149F6404147F2FF
:104448003050FFF7BFFD0D4B01229A710B4B5B8873
:104458009BB2BA889A4204D27B891846FFF7E8FED5
:1044680005E07B891846FFF7C1FE00E000BF103762
:10447800BD4680BDAC0A00209C0A0020A40A00208A
:1044880080B584B000AF0346FB800B46BB80134663
:104498007B80FB884DF2D862934200F29180BB8802
:1044A80048F2DC22934200F28B807B8843F2C822D8
:1044B800934200F28580444B5B889BB2FA88114690
:1044C8001846FFF71BFF0346FB81FB89012B1BD90D
:1044D8003D4B9B79002B17D149F6404147F23050AC
:1044E800FFF73EFD384B01229A71374B5B889BB230
:1044F800FA889A4204D2FB891846FFF733FE03E094
:10450800FB891846FFF750FE304B5B889BB2BA8890
:1045180011461846FFF7F2FE0346BB81BB89012B03
:104528001BD92A4B9B79002B17D149F6404147F2FA
:104538003050FFF747FD254B01229A71234B5B88CA
:104548009BB2BA889A4204D2BB891846FFF770FE1C
:1045580003E0BB891846FFF749FE00BF1A4B9B7959
:10456800002BFBD1194B9B79002BF7D1184B5B889B
:104578009BB27A8811461846FFF7C0FE03467B8136
:104588007B89012B1DD9124B9B79002B19D141F244
:10459800883141F28830FFF747FD0D4B01229A71AF
:1045A8000B4B5B889BB27A889A4204D27B89184667
:1045B800FFF760FE05E07B891846FFF77DFE00E007
:1045C80000BF1037BD4680BD9C0A0020A40A002009
:1045D800AC0A002080B500AF4B4B9B79052B00F24D
:1045E800918001A252F823F0034700080946000809
:1045F8003B460008B7460008CD460008ED460008CF
:10460800414B9B889AB2404B1B785BB299B23F4BA7
:104618001B685B6A9BB211FB03F39BB213449AB20B
:10462800394B5A80384B5B889BB2184600F0FCFA2D
:1046380068E0354B9B889AB2334B1B785BB299B2D2
:10464800324B1B685B6A9BB211FB03F39BB21344AA
:104658009AB22D4B5A802C4B5B889BB2184600F0BF
:10466800E3FA2A4B1B685B6A9BB232339BB249F66A
:1046780040411846FFF774FC254B1B681B7803F074
:104688000103DBB2002B3AD1214B1B681B7803F0E6
:104698000203DBB2002B32D11E4B1B685A6A1D4B3A
:1046A8001B685B6B9A422AD800F07AF927E049F632
:1046B80040414FF47A60FFF753FC4DF6C020FFF7F6
:1046C80051FD1FE0114B1B685B6A002B19D149F69D
:1046D800404141F28830FFF743FC4FF4FA60FFF79E
:1046E80063FD0EE049F640414FF47A70FFF738FC5D
:1046F8004DF2D860FFF736FD04E000BF02E000BFCE
:1047080000E000BF00BF80BD9C0A0020640D0020AF
:10471800600A00203C0E002080B500AF4B4B9B790F
:10472800052B00F2918001A252F823F047480008B7
:104738004D4700087F470008FB470008114800085C
:1047480031480008414B9B889AB2404B1B785BB2BA
:1047580099B23F4B1B685B6A9BB211FB03F39BB298
:1047680013449AB2394B5A80384B5B889BB218462F
:1047780000F06AFA68E0354B9B889AB2334B1B7895
:104788005BB299B2324B1B685B6A9BB211FB03F3B5
:104798009BB213449AB22D4B5A802C4B5B889BB228
:1047A800184600F051FA2A4B1B685B6A9BB23233F9
:1047B8009BB249F640411846FFF704FC254B1B689D
:1047C8001B7803F00403DBB2002B3AD1214B1B68A2
:1047D8001B7803F00803DBB2002B32D11E4B1B6899
:1047E8005A6A1D4B1B685B6B9A422AD800F034F951
:1047F80027E049F640414FF4FA60FFF7E3FB48F23F
:10480800D040FFF715FD1FE0114B1B685B6A002BBA
:1048180019D149F640414FF47A60FFF7D3FB4FF4C2
:10482800FA60FFF7E3FC0EE049F640414FF47A7076
:10483800FFF7C8FB48F2DC20FFF7FAFC04E000BFF2
:1048480002E000BF00E000BF00BF80BDA40A002056
:10485800D40C0020600A00208C0C002080B500AF2A
:104868004B4B9B79052B00F2918001A252F823F063
:104878008B49000891480008C34800083F490008D0
:104888005549000875490008414B9B889AB2404B2E
:104898001B785BB299B23F4B1B685B6A9BB211FBFA
:1048A80003F39BB213449AB2394B5A80384B5B8856
:1048B8009BB2184600F0D8F968E0354B9B889AB24D
:1048C800334B1B785BB299B2324B1B685B6A9BB265
:1048D80011FB03F39BB213449AB22D4B5A802C4B15
:1048E8005B889BB2184600F0BFF92A4B1B685B6ACD
:1048F8009BB232339BB241F288311846FFF794FBE2
:10490800254B1B681B7803F01003DBB2002B3AD150
:10491800214B1B681B7803F02003DBB2002B32D13C
:104928001E4B1B685A6A1D4B1B68DB6B9A422AD2C6
:1049380000F0EEF827E041F288314FF47A70FFF783
:1049480073FB43F2B060FFF795FC1FE0114B1B6847
:104958005B6A002B19D141F288314FF4FA60FFF7F6
:1049680063FB40F6C410FFF7A7FC0EE041F2883164
:104978004FF4FA70FFF758FB43F2C820FFF77AFCB0
:1049880004E000BF02E000BF00E000BF00BF80BD40
:10499800AC0A0020840E0020600A00201C0D0020B4
:1049A80080B500AF0021294803F0A6FD284B9B796C
:1049B800042B3CD0042B3EDC012B1ED0022B3AD119
:1049C800234B9B889AB2224B1B785BB299B2214B3E
:1049D8001B685B6A9BB211FB03F39BB213449AB248
:1049E8001B4B5A801A4B5B889BB2184600F01CF987
:1049F800184B1B6800225A621EE0154B9B889AB21E
:104A0800134B1B785BB299B2124B1B68DB6A0133FC
:104A18009BB211FB03F39BB213449AB20C4B5A801E
:104A28000B4B5B889BB2184600F0FEF804E0084B7D
:104A380005229A7108E000BF054B00229A71044BC9
:104A48005B889AB2024B9A8080BD00BF3C0E002062
:104A58009C0A0020640D002080B500AF0021294881
:104A680003F04AFD284B9B79042B3CD0042B3EDCF9
:104A7800012B1ED0022B3AD1234B9B889AB2224B92
:104A88001B785BB299B2214B1B685B6A9BB211FB26
:104A980003F39BB213449AB21B4B5A801A4B5B88A0
:104AA8009BB2184600F0D0F8184B1B6800225A62D7
:104AB8001EE0154B9B889AB2134B1B785BB299B2D8
:104AC800124B1B68DB6A01339BB211FB03F39BB2E9
:104AD80013449AB20C4B5A800B4B5B889BB2184616
:104AE80000F0B2F804E0084B05229A7108E000BF14
:104AF800054B00229A71044B5B889AB2024B9A804C
:104B080080BD00BF8C0C0020A40A0020D40C00201B
:104B180080B500AF0821294803F0EEFC284B9B79AB
:104B2800042B3CD0042B3EDC012B1ED0022B3AD1A7
:104B3800234B9B889AB2224B1B785BB299B2214BCC
:104B48001B685B6A9BB211FB03F39BB213449AB2D6
:104B58001B4B5A801A4B5B889BB2184600F084F8AE
:104B6800184B1B6800225A621EE0154B9B889AB2AC
:104B7800134B1B785BB299B2124B1B68DB6A01338B
:104B88009BB211FB03F39BB213449AB20C4B5A80AD
:104B98000B4B5B889BB2184600F066F804E0084BA4
:104BA80005229A7108E000BF054B00229A71044B58
:104BB8005B889AB2024B9A8080BD00BF1C0D002012
:104BC800AC0A0020840E002080B400AF0B4B9B7908
:104BD800002B09D10A4B9B79002B05D1094B9B79F6
:104BE800002B01D1012300E0002303F00103DBB215
:104BF8001846BD465DF8047B704700BF9C0A00203C
:104C0800A40A0020AC0A002080B500AF00E000BF75
:104C1800FFF7DAFF034683F00103DBB2002BF6D17E
:104C280000BF00BF80BD000080B483B000AF034662
:104C3800FB80044AFB88D38200BF0C37BD465DF871
:104C4800047B7047FC09002080B483B000AF0346A2
:104C5800FB80044AFB88138300BF0C37BD465DF810
:104C6800047B7047FC09002080B483B000AF034682
:104C7800FB80044AFB88538300BF0C37BD465DF8B0
:104C8800047B7047FC09002080B400AF034B1B88ED
:104C98001846BD465DF8047B704700BFC41100206C
:104CA80080B400AF034B5B881846BD465DF8047BB3
:104CB800704700BFC411002080B400AF034B9B882D
:104CC8001846BD465DF8047B704700BFC41100203C
:104CD80080B500AF0A4B5B889BB2002B0DD0084B08
:104CE8009B79002B0AD1064B02229A71044B5B88F0
:104CF8009BB21846FFF736FA00E000BF80BD00BF40
:104D08009C0A002080B500AF0C4B5B889BB24DF22B
:104D1800D762934210D8094B9B79002B0DD1074BD2
:104D280002229A71054B5B889AB2054B9B1A9BB27B
:104D38001846FFF739FA00E000BF80BD9C0A002042
:104D4800D8D6FFFF80B500AF0C4B5B889BB248F20A
:104D5800DB22934210D8094B9B79002B0DD1074BCE
:104D680002229A71054B5B889AB2054B9B1A9BB23B
:104D78001846FFF73BFA00E000BF80BDA40A0020F8
:104D8800DC82FFFF80B500AF0A4B5B889BB2002B2B
:104D98000DD0084B9B79002B0AD1064B02229A7141
:104DA800044B5B889BB21846FFF742FA00E000BF4D
:104DB80080BD00BFA40A002080B500AF0A4B5B8805
:104DC8009BB2002B0DD0084B9B79002B0AD1064BC8
:104DD80002229A71044B5B889BB21846FFF74AFA85
:104DE80000E000BF80BD00BFAC0A002080B500AF66
:104DF8000D4B5B889BB243F2C722934211D80A4BF2
:104E08009B79002B0ED1084B02229A71064B5B88C6
:104E18009BB2C3F54B5308339BB21846FFF74CFAC5
:104E280000E000BF80BD00BFAC0A0020B0B500AFF5
:104E38000E4B9B79002B17D10D4B9B79002B13D16F
:104E48000C4B9B79002B0FD1FFF71EFF03461C4626
:104E5800FFF726FF03461D46FFF72EFF03461A46B7
:104E680029462046FFF766FA00BFB0BD9C0A00201D
:104E7800A40A0020AC0A002080B500AF012202215C
:104E88002E48FDF715FD282001F0C9FB0122082155
:104E98002B4802F075FC01221021294802F070FC11
:104EA8000421284802F054FC0346012B0BD0264B62
:104EB8009B79002B07D1244B5B889BB2002B02D037
:104EC800214B03229A7100BF1F4B5B889BB240F6AF
:104ED800B8329342F8D801211A4802F039FC034647
:104EE800012B0BD0194B9B79002B07D1174B5B88F3
:104EF8009BB2002B02D0154B03229A710221114854
:104F080002F026FC0346012B0BD0114B9B79002B9A
:104F180007D10F4B5B889BB2002B02D00C4B0322AE
:104F28009A71FFF771FE282001F06BFB0122022124
:104F38000248FDF7F1FC00BF80BD00BF96110020BC
:104F4800000C024000080240AC0A00209C0A002025
:104F5800A40A002080B500AF0120FCF7DFFA034661
:104F68001946064B1A680B4603F00103D9B21378A9
:104F780061F38203137000BF80BD00BF700A002078
:104F880080B500AF0120FCF739FB03461946064BF4
:104F98001A680B4603F00103D9B2137861F3C3030F
:104FA800137000BF80BD00BF700A002080B500AF3D
:104FB8000220FCF7B3FA03461946064B1A680B465B
:104FC80003F00103D9B2137861F38203137000BFB1
:104FD80080BD00BF700A002080B500AF0220FCF73A
:104FE8000DFB03461946064B1A680B4603F00103EE
:104FF800D9B2137861F34513137000BF80BD00BFA9
:10500800700A002080B500AF504B1B681B881A46F9
:1050180092FAA2F3B3FA83F3002A01D14FF0FF33D7
:105028000133032B5ED0032B00F38880012B02D0C1
:10503800022B2BD082E0464B5B889AB2454B1A80F4
:10504800454B5B889AB2434B5A80444B1B68414A94
:1050580012881A80414B1B6802333E4A52881A80D4
:105068003C4B1B683E4A13603E4B0A223C4918469B
:10507800FDF700FD0146354B1A680B4603F00103A6
:10508800D9B2137861F30003137057E0304B5B8893
:105098009AB2304B9A80304B5B889AB22D4BDA80AB
:1050A8002E4B1B6804332B4A92881A802B4B1B68A3
:1050B8000633284AD2881A80264B5B68284A5360F0
:1050C800284B0A2226491846FDF7D4FC01461F4BF7
:1050D8001A680B4603F00103D9B2137861F3410350
:1050E80013702BE01A4B5B889AB21A4B1A811A4B31
:1050F8005B889AB2174B5A81184B1B680833154ABC
:1051080012891A80154B1B680A33124A52891A8071
:10511800104B9B68124A9360124B0A22104918469A
:10512800FDF7A8FC0146094B1A680B4603F001037A
:10513800D9B2137861F38203137000BF14230A22D3
:1051480004490948FCF788FB00BF80BD6C0A0020B1
:105158009C0A00201C140020A40A0020740A0020C5
:105168004014002000C000080800002080B500AFEF
:10517800514B1B681B881A4692FAA2F3B3FA83F3C1
:10518800002A01D14FF0FF330133062B5FD0062BE5
:1051980000F38980042B02D0052B2CD083E0474BE9
:1051A8005B889AB2464B1A80464B5B889AB2444B4E
:1051B8005A80454B1B680C33414A12881A80424B6F
:1051C8001B680E333E4A52881A803D4B1B683F4A83
:1051D800D3603F4B0A223D491846FDF74BFC014678
:1051E800354B1A680B4603F00103D9B2137861F303
:1051F800C303137057E0314B5B889AB2304B9A80E7
:10520800304B5B889AB22E4BDA802F4B1B681033D9
:105218002B4A92881A802C4B1B681233284AD28852
:105228001A80274B5B68294A1361294B0A222749B0
:105238001846FDF71FFC01461F4B1A680B4603F082
:105248000103D9B2137861F3041313702BE01B4BDD
:105258005B889AB21A4B1A811A4B5B889AB2184B20
:105268005A81194B1B681433154A12891A80164B38
:105278001B681633124A52891A80114B9B68134ACD
:105288005361134B0A2211491846FDF7F3FB0146F7
:10529800094B1A680B4603F00103D9B2137861F37E
:1052A8004513137000BF0423062205490948FCF77B
:1052B800D3FA00BF80BD00BF6C0A00209C0A002002
:1052C80028140020A40A0020740A0020401400209A
:1052D80000C00008180B002080B500AF514B1B68B8
:1052E8001B881A4692FAA2F3B3FA83F3002A01D173
:1052F8004FF0FF330133092B5FD0092B00F389806E
:10530800072B02D0082B2CD083E0474B5B889AB23E
:10531800464B1A80464B5B889AB2444B5A80454BA1
:105328001B681833414A12881A80424B1B681A338B
:105338003E4A52881A803D4B1B683F4A93613F4B57
:105348000A223D491846FDF795FB0146354B1A6878
:105358000B4603F00103D9B2137861F38613137077
:1053680057E0314B5B889AB2304B9A80304B5B8860
:105378009AB22E4BDA802F4B1B681C332B4A92882B
:105388001A802C4B1B681E33284AD2881A80274B58
:105398005B68294AD361294B0A2227491846FDF739
:1053A80069FB01461F4B1A680B4603F00103D9B28B
:1053B800137861F3C71313702BE01B4B5B889AB209
:1053C8001A4B1A811A4B5B889AB2184B5A81194B9F
:1053D8001B682033154A12891A80164B1B68223322
:1053E800124A52891A80114B9B68134A1362134B55
:1053F8000A2211491846FDF73DFB0146094B1A6878
:105408000B4603F00103D9B2537861F300035370DC
:1054180000BF0423062205490948FCF71DFA00BF0E
:1054280080BD00BF6C0A00209C0A002034140020B4
:10543800A40A0020740A00204014002000C00008BC
:10544800CC0B002080B582B000AF1C4B1B681B88BA
:105458001A4692FAA2F3B3FA83F3002A01D14FF065
:10546800FF3301337B607B68002B1CDD7B68013BCD
:105478007B607B68082B16DC114B9B79002B12D1C3
:10548800104B9B79002B0ED10F4B9B79002B0AD127
:105498000E4A7B6852F8233098470D4B1A681378E8
:1054A8006FF3C71313700A4B1A6813786FF3C71397
:1054B800137000BF0837BD4680BD00BF6C0A0020CE
:1054C8009C0A0020A40A0020AC0A0020780A0020C8
:1054D800640A002080B400AF0D4B1B681B880C4A7F
:1054E800126823F47F7323F003039BB21380084BE5
:1054F8001A68137843F001031370064B1A6813787F
:105508006FF30003137000BFBD465DF8047B70475E
:105518006C0A0020680A002080B400AF0D4B1B689D
:105528001B880C4A126823F47F7323F003039BB291
:105538001380084B1A68137843F002031370064B64
:105548001A6813786FF34103137000BFBD465DF806
:10555800047B70476C0A0020680A002080B400AF02
:105568000D4B1B681B880C4A126823F47F7323F0C9
:1055780003039BB21380084B1A68137843F00403A3
:105588001370064B1A6813786FF38203137000BF09
:10559800BD465DF8047B70476C0A0020680A00204D
:1055A80080B400AF0D4B1B681B880C4A126823F4AB
:1055B8007F7323F003039BB21380084B1A68137898
:1055C80043F008031370064B1A6813786FF3C3038C
:1055D800137000BFBD465DF8047B70476C0A00205D
:1055E800680A002080B400AF0D4B1B681B880C4A6A
:1055F800126823F47F7323F003039BB21380084BD4
:105608001A68137843F010031370064B1A6813785E
:105618006FF30413137000BFBD465DF8047B704739
:105628006C0A0020680A002080B400AF0D4B1B688C
:105638001B880C4A126823F47F7323F003039BB280
:105648001380084B1A68137843F020031370064B35
:105658001A6813786FF34513137000BFBD465DF8E1
:10566800047B70476C0A0020680A002080B400AFF1
:105678000D4B1B681B880C4A126823F47F7323F0B8
:1056880003039BB21380084B1A68137843F0400356
:105698001370064B1A6813786FF38613137000BFE4
:1056A800BD465DF8047B70476C0A0020680A00203C
:1056B80080B400AF0D4B1B681B880C4A126823F49A
:1056C8007F7323F003039BB21380084B1A68137887
:1056D80043F080031370064B1A6813786FF3C713EF
:1056E800137000BFBD465DF8047B70476C0A00204C
:1056F800680A002080B400AF0D4B1B681B880C4A59
:10570800126823F47F7323F003039BB21380084BC2
:105718001A68537843F001035370064B1A6853789C
:105728006FF30003537000BFBD465DF8047B7047FC
:105738006C0A0020680A002080B500AF0D4B1A687B
:1057480013786FF3000313700B4B1B6818880A4B10
:105758001B6802331B88094A528892B21946FEF721
:10576800E9FD074B1A6813786FF30003137000BF45
:1057780080BD00BF680A0020740A0020AC0A00201F
:105788006C0A002080B500AF0D4B1A6813786FF3D0
:10579800410313700B4B1B6804331888094B1B68B3
:1057A80006331B88084A528892B21946FEF7C2FD92
:1057B800064B1A6813786FF34103137000BF80BD5E
:1057C800680A0020740A0020AC0A00206C0A002035
:1057D80080B500AF0D4B1A6813786FF3820313700E
:1057E8000B4B1B6808331888094B1B680A331B8846
:1057F800084A528892B21946FEF79CFD064B1A6871
:1058080013786FF38203137000BF80BD680A00200D
:10581800740A0020AC0A00206C0A002080B500AF92
:105828000D4B1A6813786FF3C30313700B4B1B6887
:105838000C331888094B1B680E331B88084A52889A
:1058480092B21946FEF776FD064B1A6813786FF385
:10585800C303137000BF80BD680A0020740A0020CB
:10586800AC0A00206C0A002080B500AF0D4B1A6806
:1058780013786FF3041313700B4B1B6810331888DD
:10588800094B1B6812331B88084A528892B2194682
:10589800FEF750FD064B1A6813786FF30413137064
:1058A80000BF80BD680A0020740A0020AC0A0020EE
:1058B8006C0A002080B500AF0D4B1A6813786FF39F
:1058C800451313700B4B1B6814331888094B1B685E
:1058D80016331B88084A528892B21946FEF72AFDE9
:1058E800064B1A6813786FF34513137000BF80BD19
:1058F800680A0020740A0020AC0A00206C0A002004
:1059080080B500AF0D4B1A6813786FF386131370C8
:105918000B4B1B6818331888094B1B681A331B88F4
:10592800084A528892B21946FEF704FD064B1A68D7
:1059380013786FF38613137000BF80BD680A0020C8
:10594800740A0020AC0A00206C0A002080B500AF61
:105958000D4B1A6813786FF3C71313700B4B1B6842
:105968001C331888094B1B681E331B88084A528849
:1059780092B21946FEF7DEFC064B1A6813786FF3ED
:10598800C713137000BF80BD680A0020740A002086
:10599800AC0A00206C0A002080B500AF0D4B1A68D5
:1059A80053786FF3000353700B4B1B682033188830
:1059B800094B1B6822331B88084A528892B2194641
:1059C800FEF7B8FC064B1A6853786FF30003537060
:1059D80000BF80BD680A0020740A0020AC0A0020BD
:1059E8006C0A002080B483B000AF00237B60104BAA
:1059F8005B6C0F4A43F4804353640D4B5B6C03F4B8
:105A080080437B607B6800233B60094B1B6C084A22
:105A180043F080531364064B1B6C03F080533B60C8
:105A28003B6800BF0C37BD465DF8047B704700BF7C
:105A38000038024080B586B000AF78607B681B688C
:105A4800224A934216D100237B61214B5B6C204A8A
:105A580043F0010353641E4B5B6C03F001037B614D
:105A68007B6900220C21182000F0AFFD182000F0FF
:105A7800C8FD26E07B681B68164A93420ED10023B6
:105A88003B61134B1B6C124A43F002031364104B27
:105A98001B6C03F002033B613B6912E07B681B68E7
:105AA8000D4A93420DD10023FB60094B5B6C084AF9
:105AB80043F002035364064B5B6C03F00203FB6084
:105AC800FB6800BF1837BD4680BD00BF000001401D
