:020000040800F2
:1000000000000220E53A0008B1370008B9370008BF
:10001000C1370008C9370008D137000800000000C8
:10002000000000000000000000000000D9370008B8
:10003000E737000800000000F53700080338000823
:10004000353B0008353B0008353B0008353B0008D0
:10005000353B0008353B000811380008AD38000872
:1000600049390008353B0008353B0008353B00089E
:10007000353B0008353B0008353B0008353B0008A0
:10008000E5390008353B0008353B0008353B0008E2
:10009000353B0008353B0008353B0008353B000880
:1000A000F9390008353B0008353B0008353B0008AE
:1000B0002D3A0008353B0008353B0008353B000869
:1000C000353B0008353B0008353B0008353B000850
:1000D000353B0008353B0008553A0008353B000821
:1000E000353B0008353B0008353B0008353B000830
:1000F000353B0008353B0008353B0008353B000820
:10010000353B0008353B0008693A0008353B0008DC
:10011000353B0008353B0008913A0008A93A000831
:10012000353B0008353B0008353B0008353B0008EF
:10013000353B0008353B0008353B0008353B0008DF
:10014000353B0008353B0008353B0008353B0008CF
:10015000353B0008353B0008353B0008353B0008BF
:10016000353B0008353B0008353B0008353B0008AF
:10017000353B0008353B0008353B00080000000017
:08018000353B0008353B000887
:1001880010B5054C237833B9044B13B10448AFF3C9
:1001980000800123237010BD5C01002000000000D6
:1001A800E47F000808B5034B1BB103490348AFF3CC
:1001B800008008BD0000000060010020E47F000806
:1001C80053B94AB9002908BF00281CBF4FF0FF31B6
:1001D8004FF0FF3000F06AB9ADF1080C6DE904CEBC
:1001E80000F006F8DDF804E0DDE9022304B070470A
:1001F8002DE9F047089D0C46002B4ED194468C45BE
:100208008646B2FA82F262D94AB1C2F1200391401D
:1002180020FA03F30CFA02FC194300FA02FE4FEA33
:100228001C471FFA8CF6B1FBF7F44FEA1E4307FB95
:10023800141143EA014304FB06F199420AD91CEB65
:10024800030304F1FF3080F01281994240F20F81DC
:10025800023C6344591A1FFA8EF3B1FBF7F007FB0F
:10026800101143EA014300FB06F69E420AD91CEB33
:10027800030300F1FF3180F0FC809E4240F2F980D8
:10028800634402389B1B40EA044000211DB1D3405F
:100298000022C5E90032BDE8F0878B4205D90DB1CF
:1002A800C5E9000100210846F5E7B3FA83F1002902
:1002B80046D1A34202D39042C0F0F080861A64EB84
:1002C80003030120002DE6D0C5E90063E3E7002A17
:1002D80040F09080A1EB0C044FEA1C481FFA8CF701
:1002E8000121B4FBF8F64FEA1E4308FB164443EA23
:1002F800044307FB06F0984208D91CEB030306F1F8
:10030800FF3402D2984200F2CD8026461C1A1FFA0A
:100318008EF3B4FBF8F008FB104443EA044300FBF7
:1003280007F79F4208D91CEB030300F1FF3402D200
:100338009F4200F2B0802046DB1B40EA0640A5E75A
:10034800C1F120068B4022FA06F71F4320FA06FC6B
:1003580004FA01F343EA0C03F44000FA01F8380CFC
:100368004FEA1349B4FBF0FE1FFA87FC00FB1E445A
:1003780049EA04440EFB0CF9A14502FA01F20AD934
:100388003C190EF1FF3A80F08480A14540F281804B
:10039800AEF1020E3C44A4EB09041FFA83F9B4FB46
:1003A800F0F300FB134449EA044403FB0CFCA445A6
:1003B80007D93C1903F1FF3067D2A44565D9023B40
:1003C8003C4443EA0E40A0FB0293A4EB0C049C427D
:1003D800CE469C4651D34ED055B1B8EB0E0364EBD4
:1003E8000C0404FA06F6CB401E43CC40C5E9006471
:1003F800002150E7C2F1200320FA03F10CFA02FCB5
:1004080024FA03F394400C434FEA1C4800FA02FE16
:100418001FFA8CF7B3FBF8F008FB1031230C43EA02
:10042800014300FB07F1994208D91CEB030300F1D3
:10043800FF362CD299422AD9023863445B1AA4B2F7
:10044800B3FBF8F108FB113344EA034401FB07F35B
:10045800A34208D91CEB040401F1FF3613D2A342CE
:1004680011D902396444E41A41EA004139E70446E3
:10047800F0E6084606E7C845AED2B9EB020E63EBD4
:10048800070C0138A8E73146EDE7034699E73046FF
:10049800D4E7D6467FE7634402384DE7064623464D
:1004A80008460FE7023E634430E700BF704700BFCD
:1004B80080B58CB000AF514B1B68391D0A22184615
:1004C80000F007F9002387F82F3024E097F82F3041
:1004D8009B0030333B4453F82C1C494B1A6897F85F
:1004E8002F309B0013448AB21A8097F82F309B0054
:1004F80030333B4453F82C3C190C414B1A6897F89D
:100508002F309B00023313448AB21A8097F82F3099
:10051800013387F82F3097F82F30082BD6D942F2BD
:10052800107003F077FB4FF480723649364806F0B6
:10053800CAFB364805F060FA354805F05DFA3548DB
:1005480005F05AFA344805F057FA344805F054FAD9
:1005580049F640413C2001F06FFB49F640413C2000
:1005680001F09CFB41F288313C2001F0C9FB2C4B87
:100578001B6800225A62254B1B6800225A62294BCD
:100588001B6800225A62234B1B6800225A62264BC2
:100598001B6800225A621E4B1B6800225A62012106
:1005A800224804F0EBFC0346012B03D1204B042224
:1005B800DA7302E01E4B0322DA7302211B4804F0AF
:1005C800DDFC0346012B03D11A4B0422DA7302E047
:1005D800184B0322DA730421144804F0CFFC0346B5
:1005E800012B03D1144B0422DA7302E0124B0322CD
:1005F800DA7300BF3037BD4680BD00BFFC7F0008FE
:10060800D800002078010020BC05002054040020F8
:1006180074050020C40300209C040020E40400208A
:100628002C0500207C0300200C0400200008024058
:1006380000010020100100202001002080B500AF3B
:1006480001F0ECFE01F054FE01F060FD00BF80BD3A
:1006580080B500AF164B1B681B881A04154B1B6826
:100668001B781B021343144A12681278134393FA37
:10067800A3F2B2FA82F2002B01D14FF0FF32531CE1
:100688001A460E4B1A600D4B1B68002B0ED00B4BF5
:100698001B68013B094A1360084B1B68182B05D8D7
:1006A800064B1B68064A52F82330984700BF80BDA6
:1006B800D0000020CC000020C800002078030020D3
:1006C8000000002080B400AF00BFBD465DF8047B89
:1006D800704780B485B000AFF860B9601346FB80FE
:1006E800FB681A68BB681A60FB680433FB60BB6868
:1006F8000433BB60FB885A1EFA80002B00D0EFE75A
:1007080000BF00BF1437BD465DF8047B704700008A
:1007180080B485B000AF78600023FB607B68204A16
:10072800934202D20023FB6032E07B681D4A934269
:1007380002D20123FB602BE07B681B4A934202D262
:100748000223FB6024E07B68184A934202D8032303
:10075800FB601DE07B68164A934202D80423FB60C5
:1007680016E07B68134A934202D80523FB600FE02A
:100778007B68114A934202D80623FB6008E07B6835
:100788000E4A934202D80723FB6001E00723FB606F
:10079800FB6818461437BD465DF8047B704700BFF8
:1007A800004000080080000800C00008FFFF0008A3
:1007B800FFFF0108FFFF0308FFFF0508FFFF070809
:1007C800B0B58EB000AFF860B9601346FB80002367
:1007D8007B61FB687B6372B600BF03F0A5FFF86816
:1007E800FFF796FFF8620023BB610223BB62FB6A36
:1007F8003B6201237B6207F1140207F118031146DB
:10080800184604F0FFF80346002B07D003F0AEFFAC
:1008180062B600BF03F0BAFF03465AE000237B86A6
:100828001EE07B8E9B00BA6813441B6800221C469E
:10083800154622462B46796B022003F023FF034618
:10084800002B07D003F092FF62B600BF03F09EFFB3
:1008580003463EE07B6B04337B637B8E01337B86F0
:100868007A8EFB889A42DCD303F080FF1B4B1B680F
:100878001A4A23F480631360184B1B68174A23F441
:1008880000731360154B1B68144A43F480531360BC
:10089800124B1B68114A23F4805313600F4B1B68DB
:1008A8000E4A43F4006313600C4B1B680B4A23F495
:1008B80000631360094B1B68084A43F40073136014
:1008C800064B1B68054A43F48063136062B600BF99
:1008D800002318463837BD46B0BD00BF003C024073
:1008E80080B500AF03F024F900F01CF800F070FBAD
:1008F80000F04EFB00F022FB00F0A6F900F060FAD1
:1009080000F07AF800F0FAF800F046F900F0DAFAA8
:1009180000F0EAF900F01EFAFFF7CAFDFFF7D2FE71
:10092800FCE7000080B594B000AF07F12003302247
:100938000021184607F026FB07F10C0300221A6075
:100948005A609A60DA601A610023BB60284B1B6CFE
:10095800274A43F080531364254B1B6C03F08053E4
:10096800BB60BB6800237B60224B1B68214A43F4B1
:10097800804313601F4B1B6803F480437B607B68D4
:1009880002233B620123FB6210233B630223BB6308
:100998000023FB6308233B64A8237B640223BB6416
:1009A8000423FB6407F12003184604F03DFB0346CB
:1009B800002B01D000F014FC0F23FB6002233B61E5
:1009C80000237B614FF4A053BB614FF48053FB615C
:1009D80007F10C030521184604F09EFD0346002B81
:1009E80001D000F0FDFB00BF5037BD4680BD00BF01
:1009F800003802400070004080B592B000AF07F1A7
:100A0800400300221A605A6007F1240300221A608A
:100A18005A609A60DA601A615A619A613B1D202215
:100A28000021184607F0AEFA324B334A1A60314BB0
:100A380053225A602F4B00229A602E4B6422DA60B0
:100A48002C4B00221A612B4B00225A61294B0022A1
:100A58009A61284805F040F80346002B01D000F0C1
:100A6800BFFB40233B6400237B6407F14003194626
:100A7800204805F06BFF0346002B01D000F0B0FBC7
:100A880060237B623223BB620223FB6200233B6349
:100A980000237B630023BB630023FB6307F124036C
:100AA80000221946134805F08FFA0346002B01D09F
:100AB80000F096FB00237B600023BB600023FB60F3
:100AC80000233B6100237B614FF40053BB6100238B
:100AD8003B623B1D1946074805F0B4FF0346002B4F
:100AE80001D000F07DFB034802F052FD00BF4837FB
:100AF800BD4680BD7C0300200000014080B588B061
:100B080000AF07F10C0300221A605A609A60DA609D
:100B18001A613B1D00221A605A601E4B4FF080423A
:100B28001A601C4B00225A601A4B00229A60194B1B
:100B38004FF0FF32DA60174B00221A61154B002282
:100B48009A61144804F008FF0346002B01D000F016
:100B580047FB0723FB6000233B6107F10C031946A1
:100B68000C4805F0F3FA0346002B01D000F038FBDF
:100B780000237B600023BB603B1D1946054805F038
:100B8800E5FE0346002B01D000F02AFB00BF20370A
:100B9800BD4680BDC403002080B58AB000AF07F110
:100BA800200300221A605A603B1D00221A605A6016
:100BB8009A60DA601A615A619A61214B214A1A6077
:100BC8001F4B29225A601E4B00229A601C4B64223C
:100BD800DA601B4B00221A61194B00229A611848EF
:100BE80004F07AFF0346002B01D000F0F9FA6023E5
:100BF8003B6200237B6207F120031946104805F089
:100C0800A5FE0346002B01D000F0EAFA60237B60C2
:100C18003223BB600223FB6000237B613B1D08225B
:100C28001946074805F0D0F90346002B01D000F01B
:100C3800D7FA034802F0ACFC00BF2837BD4680BD98
:100C48000C0400200004004080B588B000AF07F114
:100C58000C0300221A605A609A60DA601A613B1D20
:100C680000221A605A601E4B1E4A1A601C4B002252
:100C78005A601B4B00229A60194B4FF0FF32DA6022
:100C8800174B00221A61164B00229A61144804F08F
:100C980063FE0346002B01D000F0A2FA0723FB6095
:100CA80030233B6107F10C0319460D4805F04EFA55
:100CB8000346002B01D000F093FA00237B60002349
:100CC800BB603B1D1946064805F040FE0346002B55
:100CD80001D000F085FA00BF2037BD4680BD00BFB7
:100CE80054040020000C004080B582B000AF3B46A1
:100CF80000221A605A60154B154A1A60134B53228A
:100D08005A60124B00229A60104B42F21072DA605D
:100D18000E4B00229A610D4804F01EFE0346002B7C
:100D280001D000F05DFA00233B6000237B603B4666
:100D38001946064805F00AFE0346002B01D000F0CC
:100D48004FFA00BF0837BD4680BD00BF9C04002095
:100D58000010004080B582B000AF3B4600221A6008
:100D68005A60154B154A1A60134B53225A60124B9E
:100D780000229A60104B40F21452DA600E4B0022A7
:100D88009A610D4804F0E8FD0346002B01D000F0FD
:100D980027FA00233B6000237B603B461946064840
:100DA80005F0D4FD0346002B01D000F019FA00BF6E
:100DB8000837BD4680BD00BFE40400200014004091
:100DC80080B592B000AF07F1400300221A605A6064
:100DD80007F1240300221A605A609A60DA601A61E7
:100DE8005A619A613B1D20220021184607F0CAF873
:100DF800324B334A1A60314B53225A602F4B002230
:100E08009A602E4B6422DA602C4B00221A612B4B1D
:100E180000225A61294B00229A61284804F05CFE9E
:100E28000346002B01D000F0DBF940233B6400238C
:100E38007B6407F140031946204805F087FD034607
:100E4800002B01D000F0CCF960237B623223BB6217
:100E58000223FB6200233B6300237B630023BB6305
:100E68000023FB6307F1240300221946134805F009
:100E7800ABF80346002B01D000F0B2F900237B60E9
:100E88000023BB600023FB6000233B6100237B61E0
:100E98004FF40053BB6100233B623B1D19460748D2
:100EA80005F0D0FD0346002B01D000F099F9034866
:100EB80002F06EFB00BF4837BD4680BD2C05002000
:100EC8000004014080B586B000AF3B1D00221A60C7
:100ED8005A609A60DA601A61164B174A1A60154B05
:100EE80000225A60134B00229A60124B4FF6FF7291
:100EF800DA60104B00221A610E4B00229A610D48ED
:100F080004F02AFD0346002B01D000F069F90723FD
:100F18007B601023BB603B1D1946064805F016F997
:100F28000346002B01D000F05BF900BF1837BD461F
:100F380080BD00BF740500200040014080B500AFAF
:100F4800114B124A1A60104B4FF4E1325A600E4BA3
:100F580000229A600C4B0022DA600B4B00221A61C7
:100F6800094B0C225A61084B00229A61064B002259
:100F7800DA61054805F0CCFD0346002B01D000F0EE
:100F88002FF900BF80BD00BFBC0500200044004011
:100F980080B582B000AF00237B600C4B1B6B0B4A03
:100FA80043F400131363094B1B6B03F400137B60BA
:100FB8007B6800220021102002F02BFF102002F095
:100FC80044FF00BF0837BD4680BD00BF003802405F
:100FD80080B58CB000AF07F11C0300221A605A607C
:100FE8009A60DA601A610023BB61774B1B6B764A03
:100FF80043F010031363744B1B6B03F01003BB61C6
:10100800BB6900237B61704B1B6B6F4A43F0040381
:1010180013636D4B1B6B03F004037B617B69002337
:101028003B61694B1B6B684A43F080031363664B53
:101038001B6B03F080033B613B690023FB60624B41
:101048001B6B614A43F0010313635F4B1B6B03F097
:101058000103FB60FB680023BB605B4B1B6B5A4AB8
:1010680043F008031363584B1B6B03F00803BB6082
:10107800BB6800237B60544B1B6B534A43F002034D
:101088001363514B1B6B03F002037B607B680022E8
:101098007F214E4803F08AFF00224FF40A514C4842
:1010A80003F084FF00224FF400714A4803F07EFFEA
:1010B8000022F821484803F079FF00224FF44E71CE
:1010C800464803F073FF7F23FB6101233B62002343
:1010D8007B620023BB6207F11C0319463B4803F0FF
:1010E800B1FD4FF40A53FB6101233B6200237B628D
:1010F8000023BB6207F11C031946354803F0A2FD23
:101108003F23FB614FF488133B6200237B6207F1A6
:101118001C0319462E4803F095FD4FF68073FB61BA
:101128004FF488133B6200237B6207F11C031946C6
:10113800264803F087FD4FF40073FB6101233B62EF
:1011480000237B620023BB6207F11C031946214878
:1011580003F078FDF823FB6101233B6200237B62E7
:101168000023BB6207F11C0319461B4803F06AFD04
:101178004FF44E73FB6101233B6200237B62002323
:10118800BB6207F11C031946144803F05BFD0022FB
:101198000321062002F03DFE062002F056FE002242
:1011A8000321072002F035FE072002F04EFE002240
:1011B8000321082002F02DFE082002F046FE00BFA1
:1011C8003037BD4680BD00BF0038024000100240E5
:1011D8000008024000000240000C024000040240E7
:1011E80080B400AF72B600BF00BFFDE780B485B021
:1011F80000AF78600B467B804FF6FF73FB810023BE
:10120800BB8122E0BB897A6813441B781A46FB89A4
:101218005340FB810023FB7211E0FB8903F00103BB
:10122800002B06D0FB895B089AB20D4B5340FB811B
:1012380002E0FB895B08FB81FB7A0133FB72FB7AD6
:10124800072BEAD9BB890133BB81BA897B889A42CB
:10125800D8D3FB8918461437BD465DF8047B704720
:1012680001A0FFFF80B584B000AF786039603B68AB
:101278009BB219467868FFF7B9FF0346FB813B68C4
:101288007A681344FA89D2B21A70FB891B0A99B298
:101298003B6801337A681344CAB21A703B689BB240
:1012A80002339AB24FF47A737968034805F080FCE8
:1012B80000BF1037BD4680BDBC05002080B582B098
:1012C80000AF0346FB710B4B1A780B4B1A70094B96
:1012D8005B7863F07F03DAB2074B5A70064AFB79F2
:1012E800937003210448FFF7BDFF00BF0837BD46D0
:1012F80080BD00BF780100207802002080B584B04E
:1013080000AF354B9B781B021AB2334BDB781BB20C
:1013180013431BB2FB81304B1B791B021AB22E4BB5
:101328005B791BB213431BB27B807B88002B03D0F5
:101338007B88B3F5967F04D30320FFF7BFFF002314
:1013480045E0FA897B8813449BB2013B3B803B888C
:10135800B3F5967F04D30220FFF7B0FF002336E0F1
:101368001E4B01221A701C4B5A781C4B5A707B88F2
:10137800DBB25B00DAB2194B9A700323BB6000231F
:101388007B601BE0FB89164A32F813301B0A99B2BE
:10139800BB685A1CBA60C9B2104AD154FB89104ABA
:1013A80032F81310BB685A1CBA60C9B20B4AD15440
:1013B800FB890133FB817B6801337B607B887A681A
:1013C8009A42DFDBB9680548FFF74CFF012318464E
:1013D8001037BD4680BD00BF78010020780200208C
:1013E8009C06002080B584B000AF354B9B781B026B
:1013F8001AB2334BDB781BB213431BB2FB81304B61
:101408001B791B021AB22E4B5B791BB213431BB21A
:101418007B807B88002B03D07B88B3F5967F04D331
:101428000320FFF74BFF002345E0FA897B8813442C
:101438009BB2013B3B803B88B3F5967F04D30220E7
:10144800FFF73CFF002336E01E4B01221A701C4BAD
:101458005A781C4B5A707B88DBB25B00DAB2194BA6
:101468009A700323BB6000237B601BE0FB89164A4C
:1014780032F813301B0A99B2BB685A1CBA60C9B259
:10148800104AD154FB89104A32F81310BB685A1C11
:10149800BA60C9B20B4AD154FB890133FB817B681E
:1014A80001337B607B887A689A42DFDBB96805483C
:1014B800FFF7D8FE012318461037BD4680BD00BF90
:1014C80078010020780200206400002080B588B0F0
:1014D80000AF524B9B781B021AB2504BDB781BB201
:1014E80013431BB27B814D4B1B791B021AB24B4B2A
:1014F8005B791BB213431BB23B813B89002B03D0A2
:101508003B89B3F5FA6F04D90320FFF7D7FE002310
:1015180080E07A893B8913449BB2013BFB80FB88BE
:10152800C72B04D90220FFF7C9FE002372E04FF44D
:10153800807200213A4806F025FD394B01221A70C5
:10154800364B5A78364B5A703B89DB089BB2DBB274
:101558003A8902F0070292B2002A14BF012200223F
:10156800D2B21344DAB22E4B9A700323FB617B8903
:10157800DB089BB2BB617B8903F00703FB82002376
:101588003B610023FB6033E0254AFB6913441B7869
:101598005AB22449BB690B441B781946FB8A41FAA5
:1015A80003F303F001013B6901FA03F35BB2134350
:1015B8005BB2D9B21A4AFB6913440A461A703B69EE
:1015C80001333B61FB8A0133FB823B69072B04DD56
:1015D80000233B61FB690133FB61FB8A072B04D9BC
:1015E8000023FB82BB690133BB61FB680133FB60ED
:1015F8003B89FA689A42C7DB3B8903F007039BB231
:10160800002B02D0FB690133FB61F9690448FFF73D
:1016180029FE012318462037BD4680BD78010020E9
:10162800780200208006002080B588B000AF524BB9
:101638009B781B021AB2504BDB781BB213431BB2C8
:101648007B814D4B1B791B021AB24B4B5B791BB24A
:1016580013431BB23B813B89002B03D03B89B3F575
:10166800FA6F04D90320FFF729FE002380E07A8966
:101678003B8913449BB2013BFB80FB88C72B04D9F1
:101688000220FFF71BFE002372E04FF48072002156
:101698003A4806F077FC394B01221A70364B5A78D3
:1016A800364B5A703B89DB089BB2DBB23A8902F0B1
:1016B800070292B2002A14BF01220022D2B21344B8
:1016C800DAB22E4B9A700323FB617B89DB089BB24D
:1016D800BB617B8903F00703FB8200233B61002386
:1016E800FB6033E0254AFB6913441B785AB224494E
:1016F800BB690B441B781946FB8A41FA03F303F0D4
:1017080001013B6901FA03F35BB213435BB2D9B23F
:101718001A4AFB6913440A461A703B6901333B6154
:10172800FB8A0133FB823B69072B04DD00233B6105
:10173800FB690133FB61FB8A072B04D90023FB8279
:10174800BB690133BB61FB680133FB603B89FA6805
:101758009A42C7DB3B8903F007039BB2002B02D0F8
:10176800FB690133FB61F9690448FFF77BFD01233D
:1017780018462037BD4680BD780100207802002039
:101788006406002080B584B000AF394B9B781B02FB
:101798001AB2374BDB781BB213431BB2FB81344BB5
:1017A8001B791B021AB2324B5B791BB213431BB273
:1017B8007B807B88002B03D07B88B3F5967F04D38E
:1017C8000320FFF77BFD00234DE0FA897B88134453
:1017D8009BB2013B3B803B88B3F5967F04D3022044
:1017E800FFF76CFD00233EE00723BB6000237B600E
:1017F80019E0BB685A1CBA601D4AD35C1B021AB2B6
:10180800BB68591CB9601A49CB5C1BB2134319B2A7
:10181800FB895A1CFA811A4689B2164B23F8121012
:101828007B6801337B607B887A689A42E1DB124BE4
:1018380001221A700E4B5A780F4B5A700C4B9A783B
:101848000D4B9A700A4BDA780B4BDA70084B1A7901
:10185800094B1A71064B5A79074B5A7106210648EB
:10186800FFF700FD012318461037BD4680BD00BFB5
:10187800780100209C0600207802002080B582B004
:1018880000AF204B9B781B021AB21E4BDB781BB2B1
:1018980013431BB2FB80FB88B3F5967F04D3022069
:1018A800FFF70CFD002329E0164B1B791B021AB227
:1018B800144B5B791BB213431AB2FB8891B2124ADC
:1018C80022F81310114B01221A700E4B5A780F4B45
:1018D8005A700C4B9A780D4B9A700A4BDA780B4B6E
:1018E800DA70084B1A79094B1A71064B5A79074B6B
:1018F8005A7106210548FFF7B5FC01231846083739
:10190800BD4680BD780100209C060020780200209A
:1019180080B584B000AF384B9B781B021AB2364BA7
:10192800DB781BB213431BB2FB81FB89C72B04D99D
:101938000220FFF7C3FC00235AE0FB89DB089BB2B7
:10194800BB60FB8903F00703FB802B4B1B79FF2B44
:1019580016D1294B5B79002B12D1284ABB68134456
:101968001B785AB2FB88012101FA03F35BB21343D7
:101978005BB2D9B2214ABB6813440A461A701BE00D
:101988001D4B1B79002B17D11B4B5B79002B13D1F7
:101998001A4ABB6813441B785AB2FB88012101FA22
:1019A80003F35BB2DB435BB213405BB2D9B2134AB9
:1019B800BB6813440A461A70114B01221A700E4B69
:1019C8005A780F4B5A700C4B9A780D4B9A700A4BF9
:1019D800DA780B4BDA70084B1A79094B1A71064BF7
:1019E8005A79074B5A7106210548FFF73BFC01233A
:1019F80018461037BD4680BD7801002080060020BB
:101A08007802002080B588B000AF564B9B781B0247
:101A18001AB2544BDB781BB213431BB27B81514B78
:101A28001B791B021AB24F4B5B791BB213431BB2D3
:101A38003B813B89002B03D03B89B3F5F66F04D972
:101A48000320FFF73BFC002388E07A893B89134495
:101A58009BB2013BFB80FB88C72B04D90220FFF710
:101A68002DFC00237AE07B89DB089BB2FB617B8934
:101A780003F007037B8300237B6107233B6100237B
:101A8800FB604BE0374A3B6913441B781A467B6975
:101A980042FA03F303F00103002B12D0324AFB6928
:101AA80013441B785AB27B8B012101FA03F35BB212
:101AB80013435BB2D9B22C4AFB6913440A461A7025
:101AC80013E0294AFB6913441B785AB27B8B012126
:101AD80001FA03F35BB2DB435BB213405BB2D9B2EA
:101AE800214AFB6913440A461A707B8B01337B83B6
:101AF8007B6901337B617B69072B04DD00237B61F4
:101B08003B6901333B617B8B072B04D900237B8323
:101B1800FB690133FB61FB680133FB603B89FA68B1
:101B28009A42AFDB114B01221A700E4B5A780F4BB9
:101B38005A700C4B9A780D4B9A700A4BDA780B4B0B
:101B4800DA70084B1A79094B1A71064B5A79074B08
:101B58005A7106210548FFF785FB012318462037EF
:101B6800BD4680BD78010020800600207802002054
:101B780080B582B000AF78600B467B807B681B68BD
:101B88002A4A93424ED12A4B1B78012B44D1284B29
:101B98005B78013B0F2B3BD801A252F823F000BF22
:101BA800E91B0008EF1B0008F51B0008FB1B0008D9
:101BB800011C0008071C0008191C0008191C000853
:101BC800191C0008191C0008191C0008191C000819
:101BD800191C0008191C00080D1C0008131C00081B
:101BE800FFF774FC18E0FFF71FFD15E0FFF786FB11
:101BF80012E0FFF7F7FB0FE0FFF78AFE0CE0FFF7B4
:101C08003DFE09E0FFF7FEFE06E0FFF7BBFD03E03F
:101C18000120FFF753FB00BF4FF4807204490548C9
:101C280005F051F800BF0837BD4680BD00440040AC
:101C380078010020BC05002080B483B000AF0346C3
:101C48000A46FB801346BB80FA88BB889A4201D9B2
:101C5800BB88FB80FB880F4A92FBF3F20E4B1B6894
:101C6800DA62FB880B4A92FBF3F31A460A4BDA60F6
:101C7800FB88084A92FBF3F3DA0F13445B101A4609
:101C8800054B1B685A6300BF0C37BD465DF8047BE3
:101C9800704700BF80841E002C05002080B483B0EC
:101CA80000AF03460A46FB801346BB80FA88BB8810
:101CB8009A4201D9BB88FB80FB880F4A92FBF3F25A
:101CC8000E4B1B68DA62FB880B4A92FBF3F31A4649
:101CD8000A4BDA60FB88084A92FBF3F3DA0F1344E5
:101CE8005B101A46054B1B685A6300BF0C37BD468C
:101CF8005DF8047B704700BF80841E007C030020D1
:101D080080B483B000AF03460A46FB801346BB800D
:101D1800FA88BB889A4201D9BB88FB80FB880F4AA6
:101D280092FBF3F20E4B1B68DA62FB880B4A92FBBC
:101D3800F3F31A460A4BDA60FB88084A92FBF3F37E
:101D4800DA0F13445B101A46054B1B68DA6300BFB1
:101D58000C37BD465DF8047B704700BF40420F005A
:101D68000C04002080B500AF01228021044803F054
:101D78001DF90021034803F0FFFE00BF80BD00BF2E
:101D8800000802402C05002080B500AF0022802109
:101D9800044803F00BF90021034803F0EDFE00BFEF
:101DA80080BD00BF000802402C05002080B500AFB0
:101DB80000224FF40071044803F0F8F800210348AA
:101DC80003F0DAFE00BF80BD000002407C03002063
:101DD80080B500AF01224FF40071044803F0E6F823
:101DE8000021034803F0C8FE00BF80BD0000024088
:101DF8007C03002080B500AF01224FF40071044835
:101E080003F0D4F80821034803F0B6FE00BF80BDF4
:101E1800000802400C04002080B500AF00224FF4F7
:101E28000071044803F0C2F80821034803F0A4FE37
:101E380000BF80BD000802400C04002080B582B0BD
:101E480000AF0346FB800B4BFF221A700A4B1B683E
:101E580000225A62FB885A1E084B1B68DA62FB880C
:101E6800013B1A46054BDA60FFF77CFF00BF0837D5
:101E7800BD4680BD000100202C0500205404002030
:101E880080B582B000AF0346FB800B4B01221A706D
:101E98000A4B1B6800225A62FB885A1E084B1B68B3
:101EA800DA62FB88013B1A46054BDA60FFF76CFFE4
:101EB80000BF0837BD4680BD000100202C0500206A
:101EC8005404002080B582B000AF0346FB800B4B62
:101ED80001221A700A4B1B6800225A62FB885A1E9C
:101EE800084B1B68DA62FB88013B1A46054BDA602F
:101EF800FFF75CFF00BF0837BD4680BD100100201A
:101F08007C030020C403002080B582B000AF0346E4
:101F1800FB800B4BFF221A700A4B1B6800225A6287
:101F2800FB885A1E084B1B68DA62FB88013B1A467D
:101F3800054BDA60FFF74CFF00BF0837BD4680BD90
:101F4800100100207C030020C403002080B582B06B
:101F580000AF0346FB800B4BFF221A700A4B1B682D
:101F680000225A62FB885A1E084B1B68DA62FB88FB
:101F7800013B1A46054BDA60FFF73CFF00BF083704
:101F8800BD4680BD200100200C04002074050020FF
:101F980080B582B000AF0346FB800B4B01221A705C
:101FA8000A4B1B6800225A62FB885A1E084B1B68A2
:101FB800DA62FB88013B1A46054BDA60FFF72CFF13
:101FC80000BF0837BD4680BD200100200C0400205A
:101FD8007405002080B582B000AF0346FB800B4635
:101FE800BB8013467B80FB884CF25032934200F250
:101FF8008380BB8846F2A81293427DD87B8842F240
:102008001072934278D83E4B5B899BB2FA889A4209
:1020180021D049F6404144F26820FFF70DFE384BC5
:102028000122DA73364B5B899BB2FA889A4209D24D
:10203800334B5B899AB2FB88D31A9BB21846FFF7D9
:10204800FDFE08E02E4B5B899BB2FA88D31A9BB23F
:102058001846FFF715FF2B4B5B899BB2BA889A424B
:1020680021D049F6404144F26820FFF717FE254B7E
:102078000122DA73234B5B899BB2BA889A4209D250
:10208800204B5B899AB2BB88D31A9BB21846FFF7DC
:102098003BFF08E01B4B5B899BB2BA88D31A9BB203
:1020A8001846FFF70FFF184B5B899BB27A889A4254
:1020B80023D041F2883141F28830FFF721FE124BDC
:1020C8000122DA73104B5B899BB27A889A4209D253
:1020D8000D4B5B899AB27B88D31A9BB21846FFF7DF
:1020E80035FF0AE0084B5B899BB27A88D31A9BB20A
:1020F8001846FFF74DFF00E000BF0837BD4680BD1A
:1021080000010020100100202001002080B500AF50
:10211800464BDB7B052B00F2878001A252F823F0A7
:102128002B2200084121000873210008DF21000844
:10213800F5210008152200083C4B9B899AB23B4BBD
:102148001B785BB299B23A4B1B685B6A9BB211FB76
:1021580003F39BB213449AB2344B5A81334B5B89D5
:102168009BB2184600F0A8FA5EE0324B1B681B7859
:1021780003F00103DBB2002B09D12E4B1B681B783F
:1021880003F00203DBB2002B01D100F055F8274B16
:102198009B899AB2254B1B785BB299B2244B1B687A
:1021A8005B6A9BB211FB03F39BB213449AB21F4BB9
:1021B8005A811E4B5B899BB2184600F07DFA1C4B76
:1021C8001B685B6A9BB23C339BB249F64041184698
:1021D800FFF732FD28E049F6404141F28830FFF729
:1021E8002BFD4CF24450FFF729FE1DE0104B1B68F5
:1021F8005B6A002B17D149F6404141F28830FFF75E
:102208001BFD4FF4FA60FFF73BFE0CE049F6404136
:102218004FF47A70FFF710FD4CF25030FFF70EFEC6
:1022280002E000BF00E000BF00BF80BD0001002049
:1022380054040020C800002080B500AF00212948C0
:1022480003F062FD284BDB7B022B1CD1264B9B89BC
:102258009AB2254B1B785BB299B2244B1B685B6A18
:102268009BB211FB03F39BB213449AB21E4B5A81E3
:102278001D4B5B899BB2184600F01EFA1B4B1B686E
:1022880000225A6225E0184BDB7B012B19D1164B33
:102298009B899AB2144B1B785BB299B2134B1B689B
:1022A800DB6A01339BB211FB03F39BB213449AB26E
:1022B8000D4B5A810C4B5B899BB2184600F0FCF918
:1022C80007E0094BDB7B042B03D1074B0522DA73AC
:1022D80007E0054B0022DA73034B5B899AB2024B85
:1022E8009A8180BD2C0500200001002054040020A4
:1022F80080B500AF464BDB7B052B00F2878001A23F
:1023080052F823F00F24000825230008572300085B
:10231800C3230008D9230008F92300083C4B9B89F4
:102328009AB23B4B1B785BB299B23A4B1B685B6A1B
:102338009BB211FB03F39BB213449AB2344B5A81FC
:10234800334B5B899BB2184600F0C6F95EE0324B0E
:102358001B681B7803F00403DBB2002B09D12E4B5A
:102368001B681B7803F00803DBB2002B01D100F0D7
:10237800EBF8274B9B899AB2254B1B785BB299B235
:10238800244B1B685B6A9BB211FB03F39BB213449B
:102398009AB21F4B5A811E4B5B899BB2184600F0BC
:1023A8009BF91C4B1B685B6A9BB23C339BB249F69A
:1023B80040411846FFF772FC28E049F640414FF4C7
:1023C800FA60FFF76BFC46F29C30FFF79DFD1DE0BD
:1023D800104B1B685B6A002B17D149F640414FF43C
:1023E8007A60FFF75BFC4FF4FA60FFF76BFD0CE0D7
:1023F80049F640414FF47A70FFF750FC46F2A810B6
:10240800FFF782FD02E000BF00E000BF00BF80BD13
:1024180010010020C4030020C800002080B500AFD0
:10242800464BDB7B052B00F2878001A252F823F094
:102438003B2500085124000883240008EF240008E5
:1024480005250008252500083C4B9B899AB23B4B83
:102458001B785BB299B23A4B1B685B6A9BB211FB63
:1024680003F39BB213449AB2344B5A81334B5B89C2
:102478009BB2184600F040F95EE0324B1B681B78AF
:1024880003F01003DBB2002B09D12E4B1B681B781D
:1024980003F02003DBB2002B01D100F0B1F8274B89
:1024A8009B899AB2254B1B785BB299B2244B1B6867
:1024B8005B6A9BB211FB03F39BB213449AB21F4BA6
:1024C8005A811E4B5B899BB2184600F015F91C4BCC
:1024D8001B685B6A9BB23C339BB241F28831184659
:1024E800FFF70EFC28E041F288314FF47A70FFF7CD
:1024F80007FC42F6F820FFF729FD1DE0104B1B688A
:102508005B6A002B17D141F288314FF4FA60FFF76C
:10251800F7FB4FF4FA60FFF73BFD0CE041F288311E
:102528004FF4FA70FFF7ECFB42F21070FFF70EFD64
:1025380002E000BF00E000BF00BF80BD2001002016
:1025480074050020C800002080B500AF002129488C
:1025580003F0DAFB284BDB7B022B1CD1264B9B8933
:102568009AB2254B1B785BB299B2244B1B685B6A05
:102578009BB211FB03F39BB213449AB21E4B5A81D0
:102588001D4B5B899BB2184600F0A6F81B4B1B68D5
:1025980000225A6225E0184BDB7B012B19D1164B20
:1025A8009B899AB2144B1B785BB299B2134B1B6888
:1025B800DB6A01339BB211FB03F39BB213449AB25B
:1025C8000D4B5A810C4B5B899BB2184600F084F87E
:1025D80007E0094BDB7B042B03D1074B0522DA7399
:1025E80007E0054B0022DA73034B5B899AB2024B72
:1025F8009A8180BD7C03002010010020C4030020C4
:1026080080B500AF0821294803F07EFB284BDB7B0F
:10261800022B1CD1264B9B899AB2254B1B785BB2A7
:1026280099B2244B1B685B6A9BB211FB03F39BB204
:1026380013449AB21E4B5A811D4B5B899BB21846B4
:1026480000F05AF81B4B1B6800225A6225E0184B11
:10265800DB7B012B19D1164B9B899AB2144B1B7843
:102668005BB299B2134B1B68DB6A01339BB211FB57
:1026780003F39BB213449AB20D4B5A810C4B5B89FE
:102688009BB2184600F038F807E0094BDB7B042BB7
:1026980003D1074B0522DA7307E0054B0022DA73F2
:1026A800034B5B899AB2024B9A8180BD0C040020CF
:1026B800200100207405002080B483B000AF0346D9
:1026C800FB80044AFB88138000BF0C37BD465DF8C9
:1026D800047B70479C06002080B483B000AF03469B
:1026E800FB80044AFB88538000BF0C37BD465DF869
:1026F800047B70479C06002080B483B000AF03467B
:10270800FB80044AFB88938000BF0C37BD465DF808
:10271800047B70479C06002080B400AF034B1B88E5
:102728001846BD465DF8047B704700BF9C06002034
:1027380080B400AF034B5B881846BD465DF8047B48
:10274800704700BF9C06002080B400AF034B9B88F5
:102758001846BD465DF8047B704700BF9C06002004
:1027680080B500AF0A4B5B899BB2002B0DD0084B9C
:10277800DB7B002B0AD1064B0222DA73044B5B8900
:102788009BB21846FFF75AFB00E000BF80BD00BFB0
:102798000001002080B500AF0C4B5B899BB24CF266
:1027A8004F32934210D8094BDB7B002B0DD1074BDE
:1027B8000222DA73054B5B899AB2054B9B1A9BB2CE
:1027C8001846FFF75DFB00E000BF80BD0001002058
:1027D80050C3FFFF80B500AF0D4B5B899BB246F23B
:1027E800A712934211D80A4BDB7B002B0ED1084B62
:1027F8000222DA73064B5B899BB2C3F5C3432833C5
:102808009BB21846FFF75EFB00E000BF80BD00BF2B
:102818001001002080B500AF0A4B5B899BB2002BEA
:102828000DD0084BDB7B002B0AD1064B0222DA7352
:10283800044B5B899BB21846FFF766FB00E000BFBC
:1028480080BD00BF1001002080B500AF0A4B5B8936
:102858009BB2002B0DD0084BDB7B002B0AD1064B1B
:102868000222DA73044B5B899BB21846FFF76EFBB2
:1028780000E000BF80BD00BF2001002080B500AF90
:102888000D4B5B899BB242F20F72934211D80A4BEF
:10289800DB7B002B0ED1084B0222DA73064B5B89D7
:1028A8009BB2C3F51C5310339BB21846FFF770FB5D
:1028B80000E000BF80BD00BF20010020B0B500AF20
:1028C8000E4BDB7B002B17D10D4BDB7B002B13D181
:1028D8000C4BDB7B002B0FD1FFF71EFF03461C467A
:1028E800FFF726FF03461D46FFF72EFF03461A464D
:1028F80029462046FFF76EFB00BFB0BD000100204F
:10290800100100202001002080B500AF01211D48E2
:1029180002F034FB0346012B0BD01B4BDB7B002B57
:1029280007D1194B5B899BB2002B02D0164B0322AF
:10293800DA730221134802F021FB0346012B0BD066
:10294800124BDB7B002B07D1104B5B899BB2002B12
:1029580002D00E4B0322DA7304210A4802F00EFB60
:102968000346012B0BD00A4BDB7B002B07D1084B0E
:102978005B899BB2002B02D0054B0322DA7300BFA0
:1029880080BD00BF000802400001002010010020A7
:102998002001002080B500AF01222021024802F06A
:1029A80005FB00BF80BD00BF000C024080B500AF32
:1029B80000228021024802F0F9FA00BF80BD00BF62
:1029C800000C024080B500AF01224021024802F00D
:1029D800EDFA00BF80BD00BF000C024080B500AF1B
:1029E80000220821024802F0E1FA00BF80BD00BFC2
:1029F8000004024080B58AB000AF48483B460A222E
:102A08001946FDF766FE464B1B681B881A4692FA64
:102A1800A2F3B3FA83F3002A01D14FF0FF33013355
:102A2800032B51D0032B75DC012B02D0022B25D0B0
:102A380070E03C4B5B899AB23B4B1A803B4B5B89FD
:102A48009AB2394B5A803A4B1B68374A12881A8017
:102A5800374B1B680233344A52881A80304B1A6845
:102A680013786FF3000313702F4B1B683B602B48E0
:102A78003B460A221946FDF7A3FE4BE0294B5B892A
:102A88009AB2294B9A80294B5B899AB2264BDA80F5
:102A9800274B1B680433244A92881A80244B1B68EE
:102AA8000633214AD2881A801D4B1A6813786FF3AF
:102AB800410313701C4B5B687B6018483B4614222B
:102AC8001946FDF77DFE25E0164B5B899AB2164B39
:102AD8001A81164B5B899AB2134B5A81144B1B68A7
:102AE8000833114A12891A80114B1B680A330E4A9F
:102AF80052891A800A4B1A6813786FF3820313708D
:102B0800094B9B68BB6005483B4614221946FDF7F4
:102B180057FE00BF00BF2837BD4680BD00C0000873
:102B2800D400002000010020F4080020100100203B
:102B3800D800002080B58AB000AF49483B460A2239
:102B48001946FDF7C6FD474B1B681B881A4692FAC3
:102B5800A2F3B3FA83F3002A01D14FF0FF33013314
:102B6800062B52D0062B76DC042B02D0052B26D060
:102B780071E03D4B5B899AB23C4B1A803C4B5B89B8
:102B88009AB23A4B5A803B4B1B680C33374A12882F
:102B98001A80384B1B680E33344A52881A80334BDC
:102BA8001B68FB602E483B460A221946FDF708FEC3
:102BB8002C4B1A6813786FF3C30313704BE02A4B3E
:102BC8005B899AB2294B9A80294B5B899AB2274B29
:102BD800DA80284B1B681033244A92881A80254BC8
:102BE8001B681233214AD2881A80204B5B683B61EC
:102BF8001B483B460A221946FDF7E2FD194B1A68A5
:102C080013786FF30413137025E0174B5B899AB29E
:102C1800164B1A81164B5B899AB2144B5A81154B85
:102C28001B681433114A12891A80124B1B68163319
:102C38000E4A52891A800D4B1B687B6108483B4637
:102C48000A221946FDF7BCFD064B1A6813786FF384
:102C58004513137000BF00BF2837BD4680BD00BFB5
:102C680000C00008D4000020000100200009002056
:102C780010010020D800002080B58AB000AF494874
:102C88003B460A221946FDF724FD474B1B681B8863
:102C98001A4692FAA2F3B3FA83F3002A01D14FF04D
:102CA800FF330133092B52D0092B76DC072B02D0D6
:102CB800082B26D071E03D4B5B899AB23C4B1A80B9
:102CC8003C4B5B899AB23A4B5A803B4B1B68183392
:102CD800374A12881A80384B1B681A33344A52888C
:102CE8001A80334B1B68BB612E483B460A221946A3
:102CF800FDF766FD2C4B1A6813786FF38613137073
:102D08004BE02A4B5B899AB2294B9A80294B5B8905
:102D18009AB2274BDA80284B1B681C33244A9288C6
:102D28001A80254B1B681E33214AD2881A80204BF3
:102D38005B68FB611B483B460A221946FDF740FDCC
:102D4800194B1A6813786FF3C713137025E0174BE4
:102D58005B899AB2164B1A81164B5B899AB2144B4F
:102D68005A81154B1B682033114A12891A80124B5D
:102D78001B6822330E4A52891A800D4B9B683B62AE
:102D880008483B460A221946FDF71AFD064B1A6801
:102D980053786FF30003537000BF00BF2837BD4658
:102DA80080BD00BF00C00008D40000200001002042
:102DB8000C09002010010020D800002080B582B046
:102DC80000AF1C4B1B681B881A4692FAA2F3B3FA91
:102DD80083F3002A01D14FF0FF3301337B607B6816
:102DE800002B1CDD7B68013B7B607B68082B16DCB5
:102DF800114BDB7B002B12D1104BDB7B002B0ED150
:102E08000F4BDB7B002B0AD10E4A7B6852F823302C
:102E180098470D4B1A6813786FF3C71313700A4B52
:102E28001A6813786FF3C713137000BF0837BD46CD
:102E380080BD00BFD4000020000100201001002048
:102E480020010020DC000020CC00002080B400AF6E
:102E58000D4B1B681B880C4A126823F47F7323F000
:102E680003039BB21380084B1A68137843F00103DD
:102E78001370064B1A6813786FF30003137000BFC2
:102E8800BD465DF8047B7047D4000020D0000020C8
:102E980080B400AF0D4B1B681B880C4A126823F4E2
:102EA8007F7323F003039BB21380084B1A681378CF
:102EB80043F002031370064B1A6813786FF341034B
:102EC800137000BFBD465DF8047B7047D400002036
:102ED800D000002080B400AF0D4B1B681B880C4A43
:102EE800126823F47F7323F003039BB21380084B0B
:102EF8001A68137843F004031370064B1A681378A2
:102F08006FF38203137000BFBD465DF8047B704702
:102F1800D4000020D000002080B400AF0D4B1B6807
:102F28001B880C4A126823F47F7323F003039BB2B7
:102F38001380084B1A68137843F008031370064B84
:102F48001A6813786FF3C303137000BFBD465DF8AA
:102F5800047B7047D4000020D000002080B400AF6C
:102F68000D4B1B681B880C4A126823F47F7323F0EF
:102F780003039BB21380084B1A68137843F01003BD
:102F88001370064B1A6813786FF30413137000BF9D
:102F9800BD465DF8047B7047D4000020D0000020B7
:102FA80080B400AF0D4B1B681B880C4A126823F4D1
:102FB8007F7323F003039BB21380084B1A681378BE
:102FC80043F020031370064B1A6813786FF3451308
:102FD800137000BFBD465DF8047B7047D400002025
:102FE800D000002080B400AF0D4B1B681B880C4A32
:102FF800126823F47F7323F003039BB21380084BFA
:103008001A68137843F040031370064B1A68137854
:103018006FF38613137000BFBD465DF8047B7047DD
:10302800D4000020D000002080B400AF0D4B1B68F6
:103038001B880C4A126823F47F7323F003039BB2A6
:103048001380084B1A68137843F080031370064BFB
:103058001A6813786FF3C713137000BFBD465DF885
:10306800047B7047D4000020D000002080B400AF5B
:103078000D4B1B681B880C4A126823F47F7323F0DE
:1030880003039BB21380084B1A68537843F001037B
:103098005370064B1A6853786FF30003537000BFE0
:1030A800BD465DF8047B7047D4000020D0000020A6
:1030B80080B500AF0D4B1A6813786FF300031370D7
:1030C8000B4B1B6818880A4B1B6802331B88094A7C
:1030D800528992B21946FEF77DFF074B1A6813789A
:1030E8006FF30003137000BF80BD00BFD000002045
:1030F800D800002020010020D400002080B500AFB7
:103108000D4B1A6813786FF3410313700B4B1B6850
:1031180004331888094B1B6806331B88084A5289F0
:1031280092B21946FEF756FF064B1A6813786FF3EA
:103138004103137000BF80BDD0000020D8000020DC
:1031480020010020D400002080B500AF0D4B1A6884
:1031580013786FF3820313700B4B1B6808331888BE
:10316800094B1B680A331B88084A528992B21946D0
:10317800FEF730FF064B1A6813786FF3820313705B
:1031880000BF80BDD0000020D80000202001002012
:10319800D400002080B500AF0D4B1A6813786FF388
:1031A800C30313700B4B1B680C331888094B1B683F
:1031B8000E331B88084A528992B21946FEF70AFF55
:1031C800064B1A6813786FF3C303137000BF80BDF2
:1031D800D0000020D800002020010020D4000020CA
:1031E80080B500AF0D4B1A6813786FF30413137092
:1031F8000B4B1B6810331888094B1B6812331B884C
:10320800084A528992B21946FEF7E4FE064B1A683C
:1032180013786FF30413137000BF80BDD000002033
:10322800D800002020010020D400002080B500AF85
:103238000D4B1A6813786FF3451313700B4B1B680B
:1032480014331888094B1B6816331B88084A52899F
:1032580092B21946FEF7BEFE064B1A6813786FF352
:103268004513137000BF80BDD0000020D800002097
:1032780020010020D400002080B500AF0D4B1A6853
:1032880013786FF3861313700B4B1B681833188869
:10329800094B1B681A331B88084A528992B219468F
:1032A800FEF798FE064B1A6813786FF386131370AF
:1032B80000BF80BDD0000020D800002020010020E1
:1032C800D400002080B500AF0D4B1A6813786FF357
:1032D800C71313700B4B1B681C331888094B1B68EA
:1032E8001E331B88084A528992B21946FEF772FEAD
:1032F800064B1A6813786FF3C713137000BF80BDAD
:10330800D0000020D800002020010020D400002098
:1033180080B500AF0D4B1A6853786FF300035370F4
:103328000B4B1B6820331888094B1B6822331B88FA
:10333800084A528992B21946FEF74CFE064B1A68A3
:1033480053786FF30003537000BF80BDD000002096
:10335800D800002020010020D400002080B483B0D1
:1033680000AF00237B60104B5B6C0F4A43F4804333
:1033780053640D4B5B6C03F480437B607B680023D4
:103388003B60094B1B6C084A43F080531364064B9F
:103398001B6C03F080533B603B6800BF0C37BD4695
:1033A8005DF8047B704700BF0038024080B586B0E6
:1033B80000AF78607B681B68224A934216D10023CD
:1033C8007B61214B5B6C204A43F0010353641E4B25
:1033D8005B6C03F001037B617B69002207211820E5
:1033E80000F017FD182000F030FD26E07B681B6810
:1033F800164A93420ED100233B61134B1B6C124AB1
:1034080043F002031364104B1B6C03F002033B618F
:103418003B6912E07B681B680D4A93420DD100237B
:10342800FB60094B5B6C084A43F002035364064B8C
:103438005B6C03F00203FB60FB6800BF1837BD46F6
:1034480080BD00BF00000140003802400004004079
:103458000004014080B588B000AF78607B681B68C5
:10346800B3F1804F16D10023FB61444B1B6C434AD8
:1034780043F001031364414B1B6C03F00103FB6130
:10348800FB69002207211C2000F0C3FC1C2000F06F
:10349800DCFC6EE07B681B68394A934216D1002336
:1034A800BB61364B1B6C354A43F008031364334B3E
:1034B8001B6C03F00803BB61BB69002207213220A3
:1034C80000F0A7FC322000F0C0FC52E07B681B68CB
:1034D8002C4A934216D100237B61284B1B6C274A48
:1034E80043F010031364254B1B6C03F010037B613E
:1034F8007B6900220821362000F08BFC362000F082
:10350800A4FC36E07B681B681F4A934216D100234F
:103518003B611A4B1B6C194A43F020031364174B89
:103528001B6C03F020033B613B6900220921372013
:1035380000F06FFC372000F088FC1AE07B681B68FD
:10354800124A934215D10023FB600C4B5B6C0B4A6B
:1035580043F480335364094B5B6C03F48033FB60A2
:10356800FB6800220721182000F053FC182000F007
:103578006CFC00BF2037BD4680BD00BF003802404C
:10358800000C0040001000400014004000400140C2
:1035980080B58AB000AF786007F1140300221A6082
:1035A8005A609A60DA601A617B681B68374A9342EE
:1035B8001FD100233B61364B1B6B354A43F0010397
:1035C8001363334B1B6B03F001033B613B694FF4FF
:1035D80080737B610223BB610023FB6100233B6294
:1035E80001237B6207F1140319462A4801F02AFBDC
:1035F80047E07B681B68284A93421FD10023FB6081
:10360800234B1B6B224A43F004031363204B1B6BB1
:1036180003F00403FB60FB684FF480737B610223B3
:10362800BB610023FB6100233B6202237B6207F13D
:1036380014031946194801F005FB22E07B681B6852
:10364800174A93421DD10023BB60114B1B6B104AD4
:1036580043F0040313630E4B1B6B03F00403BB60BE
:10366800BB6840237B610223BB610023FB6103230A
:103678003B6203237B6207F114031946074801F0F4
:10368800E1FA00BF2837BD4680BD00BF00000140F9
:1036980000380240000002400004004000080240D8
:1036A8000004014080B58AB000AF786007F11403C8
:1036B80000221A605A609A60DA601A617B681B6897
:1036C800344A934261D100233B61334B1B6C324A2D
:1036D80043F400331364304B1B6C03F400333B6139
:1036E8003B690023FB602C4B1B6B2B4A43F0010307
:1036F8001363294B1B6B03F00103FB60FB680C236E
:103708007B610223BB610023FB6103233B62072328
:103718007B6207F114031946204801F093FA204B05
:10372800204A1A601E4B4FF000625A601C4B002260
:103738009A601B4B0022DA60194B4FF480621A61C1
:10374800174B00225A61164B00229A61144B002233
:10375800DA61134B00221A62114B00225A62104898
:1037680000F08EFB0346002B01D0FDF739FD7B6886
:103778000B4ADA630A4A7B68936300220A212620EF
:1037880000F047FB262000F060FB00BF2837BD464D
:1037980080BD00BF004400400038024000000240E5
:1037A800040600208860024080B400AF00BFFDE737
:1037B80080B400AF00BFFDE780B400AF00BFFDE7F5
:1037C80080B400AF00BFFDE780B400AF00BFFDE7E5
:1037D80080B400AF00BFBD465DF8047B704780B47D
:1037E80000AF00BFBD465DF8047B704780B400AFF2
:1037F80000BFBD465DF8047B704780B500AF00F0A0
:10380800E9F900BF80BD000080B500AF0121214863
:1038180001F0B4FB0346012B36D11F4BDB7B032B96
:1038280002D0052B18D02FE000211C4802F06CFABA
:103838001B4B1B6800225A62174B00225A81164BF9
:103848005B899BB21846FEF737FF134B0422DA73E5
:10385800114B00229A8117E00021104802F054FA17
:103868000F4B1B6800225A620B4B00225A810A4BED
:103878005B899BB21846FEF71FFF074B0022DA73DD
:10388800054B00229A8100BF012001F0A9FB00BF6F
:1038980080BD00BF00080240000100202C05002068
:1038A8005404002080B500AF0221214801F066FBD6
:1038B8000346012B36D11F4BDB7B032B02D0052B94
:1038C80018D02FE000211C4802F01EFA1B4B1B6881
:1038D80000225A62174B00225A81164B5B899BB211
:1038E8001846FEF7F9FE134B0422DA73114B002237
:1038F8009A8117E00021104802F006FA0F4B1B6866
:1039080000225A620B4B00225A810A4B5B899BB2F8
:103918001846FEF7E1FE074B0022DA73054B00223A
:103928009A8100BF022001F05BFB00BF80BD00BF91
:1039380000080240100100207C030020C40300207E
:1039480080B500AF0421214801F018FB0346012B84
:1039580036D11F4BDB7B032B02D0052B18D02FE071
:1039680008211C4802F0D0F91B4B1B6800225A6240
:10397800174B0422DA73164B00225A81144B5B89C9
:103988009BB21846FEF7B8FE114B00229A8117E049
:103998000821104802F0B8F90F4B1B6800225A6240
:1039A8000B4B00225A810A4B5B899BB21846FEF7E3
:1039B800A3FE074B0022DA73054B00229A8100BF51
:1039C800042001F00DFB00BF80BD00BF00080240CD
:1039D800200100200C0400207405002080B500AFF1
:1039E800024800F0E5FB00BF80BD00BF04060020D0
:1039F80080B500AF084802F0F7F9084802F0F4F97A
:103A0800074BDB7B022B02D1054B0122DA73FEF751
:103A1800F7FD00BF80BD00BF7C03002074050020B7
:103A28002001002080B500AF064802F0DDF9064B02
:103A3800DB7B022B02D1044B0122DA73FEF784FDF3
:103A480000BF80BDC40300201001002080B500AF76
:103A5800024803F091F900BF80BD00BFBC050020FB
:103A680080B500AF064BDB7B022B02D1044B012251
:103A7800DA73FEF7E1FB034802F0B6F900BF80BD38
:103A8800000100205404002080B500AFFCF7E0FDE1
:103A9800024802F0A9F900BF80BD00BF9C040020C5
:103AA80080B500AFFCF7CAFD024802F09DF900BFDF
:103AB80080BD00BFE404002080B400AF064BD3F8FB
:103AC8008830054A43F47003C2F8883000BFBD4609
:103AD8005DF8047B704700BF00ED00E0DFF834D0EC
:103AE800FFF7EAFF0C480D490D4A002302E0D458BD
:103AF800C4500433C4188C42F9D30A4A0A4C002330
:103B080001E013600432A242FBD304F043FAFCF74D
:103B1800E7FE704700000220000000205C01002042
:103B2800308000085C0100201C090020FEE700002E
:103B380080B500AF0E4B1B680D4A43F40073136049
:103B48000B4B1B680A4A43F480631360084B1B68DD
:103B5800074A43F480731360032000F04FF90F20E5
:103B680000F008F8FFF7FAFB0023184680BD00BFF5
:103B7800003C024080B582B000AF7860124B1A68F2
:103B8800124B1B7819464FF47A73B3FBF1F3B2FB6F
:103B9800F3F3184600F067F90346002B01D0012320
:103BA8000EE07B680F2B0AD8002279684FF0FF30AF
:103BB80000F02FF9064A7B681360002300E0012318
:103BC80018460837BD4680BD300100203801002066
:103BD8003401002080B400AF064B1B781A46064B10
:103BE8001B681344044A136000BFBD465DF8047B9C
:103BF800704700BF380100201809002080B400AFCA
:103C0800034B1B681846BD465DF8047B704700BF30
:103C18001809002080B584B000AF7860FFF7EEFF88
:103C2800B8607B68FB60FB68B3F1FF3F05D00A4BC7
:103C38001B781A46FB681344FB6000BFFFF7DEFFE2
:103C48000246BB68D31AFA689A42F7D800BF00BF89
:103C58001037BD4680BD00BF3801002080B485B054
:103C680000AF78607B6803F00703FB600C4BDB68F0
:103C7800BB60BA684FF6FF031340BB60FB681A02CB
:103C8800BB68134343F0BF6343F40033BB60044A8B
:103C9800BB68D36000BF1437BD465DF8047B70472E
:103CA80000ED00E080B400AF044BDB681B0A03F0B2
:103CB80007031846BD465DF8047B704700ED00E039
:103CC80080B483B000AF0346FB7197F90730002B2F
:103CD8000BDBFB7903F01F02074997F907305B09F3
:103CE800012000FA02F241F8232000BF0C37BD463C
:103CF8005DF8047B704700BF00E100E080B483B04A
:103D080000AF03463960FB7197F90730002B0ADBD7
:103D18003B68DAB20C4997F907301201D2B20B446A
:103D280083F800230AE03B68DAB20849FB7903F01C
:103D38000F03043B1201D2B20B441A7600BF0C37B2
:103D4800BD465DF8047B704700E100E000ED00E04F
:103D580080B489B000AFF860B9607A60FB6803F09E
:103D68000703FB61FB69C3F10703042B28BF042386
:103D7800BB61FB690433062B02D9FB69033B00E0F6
:103D880000237B614FF0FF32BB6902FA03F3DA4389
:103D9800BB681A407B699A404FF0FF317B6901FA92
:103DA80003F3D9437B680B40134318462437BD46B9
:103DB8005DF8047B7047000080B582B000AF786082
:103DC8007B68013BB3F1807F01D301230FE00A4AEE
:103DD8007B68013B53600F214FF0FF30FFF78EFFE8
:103DE800054B00229A60044B07221A6000231846EC
:103DF8000837BD4680BD00BF10E000E080B582B046
:103E080000AF78607868FFF729FF00BF0837BD4624
:103E180080BD80B586B000AF0346B9607A60FB7399
:103E280000237B61FFF73EFF78617A68B96878699B
:103E3800FFF78EFF024697F90F3011461846FFF735
:103E48005DFF00BF1837BD4680BD80B582B000AFAA
:103E58000346FB7197F907301846FFF731FF00BF9B
:103E68000837BD4680BD80B582B000AF78607868FD
:103E7800FFF7A2FF034618460837BD4680BD00007D
:103E880080B586B000AF786000237B61FFF7B6FE8F
:103E980038617B68002B01D1012399E07B680222FD
:103EA80083F835207B68002283F834207B681B6800
:103EB8001A687B681B6822F001021A600FE0FFF79E
:103EC8009DFE02463B69D31A052B08D97B68202240
:103ED8005A657B68032283F83520032378E07B68E2
:103EE8001B681B6803F00103002BE8D17B681B6883
:103EF8001B687B617A69384B13407B617B685A6821
:103F08007B689B681A437B68DB681A437B681B697C
:103F18001A437B685B691A437B689B691A437B6811
:103F2800DB691A437B681B6A13437A6913437B6115
:103F38007B685B6A042B07D17B68DA6A7B681B6B3A
:103F480013437A6913437B617B681B687A691A603B
:103F58007B681B685B697B617B6923F007037B6176
:103F68007B685B6A7A6913437B617B685B6A042BB5
:103F780017D17B689B6A7A6913437B617B68DB6A2C
:103F8800002B0ED0786800F001FB0346002B08D008
:103F98007B6840225A657B68012283F8352001231B
:103FA80016E07B681B687A695A61786800F0B8FA8D
:103FB8000346FB607B68DB6D3F229A40FB689A6092
:103FC8007B6800225A657B68012283F8352000232C
:103FD80018461837BD4680BD3F8010F080B586B0C2
:103FE80000AFF860B9607A603B600023FB75FB683E
:103FF8009B6D3B61FB6893F83430012B01D10223A0
:1040080040E0FB68012283F83420FB6893F83530E0
:10401800DBB2012B2FD1FB68022283F83520FB6825
:1040280000225A653B687A68B968F86800F04AFA6D
:10403800FB68DB6D3F229A403B699A60FB681B680E
:104048001A68FB681B6842F016021A60FB681B6C52
:10405800002B07D0FB681B681A68FB681B6842F0D6
:1040680008021A60FB681B681A68FB681B6842F044
:1040780001021A6005E0FB68002283F8342002235D
:10408800FB75FB7D18461837BD4680BD80B584B0EA
:1040980000AF78607B689B6DFB60FFF7AFFDB86091
:1040A8007B6893F83530DBB2022B08D07B6880221E
:1040B8005A657B68002283F83420012352E07B682C
:1040C8001B681A687B681B6822F016021A607B68F6
:1040D8001B685A697B681B6822F080025A617B68FA
:1040E8001B6C002B03D17B689B6C002B07D07B6873
:1040F8001B681A687B681B6822F008021A607B68D4
:104108001B681A687B681B6822F001021A6013E0BA
:10411800FFF774FD0246BB68D31A052B0CD97B68E0
:1041280020225A657B68032283F835207B680022A9
:1041380083F83420032315E07B681B681B6803F0B1
:104148000103002BE4D17B68DB6D3F229A40FB68BA
:104158009A607B68012283F835207B68002283F807
:104168003420002318461037BD4680BD80B483B084
:1041780000AF78607B6893F83530DBB2022B04D04F
:104188007B6880225A6501230CE07B68052283F84E
:1041980035207B681B681A687B681B6822F001025F
:1041A8001A60002318460C37BD465DF8047B70473B
:1041B80080B586B000AF78600023BB608E4B1B686B
:1041C8008E4AA2FB03239B0A7B617B689B6D3B6144
:1041D8003B691B68FB607B68DB6D08229A40FB68C3
:1041E8001340002B1AD07B681B681B6803F004037C
:1041F800002B13D07B681B681A687B681B6822F049
:1042080004021A607B68DB6D08229A403B699A6059
:104218007B685B6D43F001027B685A657B68DB6DE8
:1042280001229A40FB681340002B12D07B681B6860
:104238005B6903F08003002B0BD07B68DB6D0122E8
:104248009A403B699A607B685B6D43F002027B6829
:104258005A657B68DB6D04229A40FB681340002B8B
:1042680012D07B681B681B6803F00203002B0BD07D
:104278007B68DB6D04229A403B699A607B685B6DC2
:1042880043F004027B685A657B68DB6D10229A4014
:10429800FB681340002B43D07B681B681B6803F046
:1042A8000803002B3CD07B68DB6D10229A403B69E9
:1042B8009A607B681B681B6803F48023002B18D066
:1042C8007B681B681B6803F40023002B08D17B68FC
:1042D8001B6C002B24D07B681B6C786898471FE008
:1042E8007B689B6C002B1BD07B689B6C786898471D
:1042F80016E07B681B681B6803F48073002B07D1EA
:104308007B681B681A687B681B6822F008021A60C1
:104318007B681B6C002B03D07B681B6C7868984704
:104328007B68DB6D20229A40FB681340002B00F06D
:104338008F807B681B681B6803F01003002B00F05C
:1043480087807B68DB6D20229A403B699A607B6896
:1043580093F83530DBB2052B36D17B681B681A68B9
:104368007B681B6822F016021A607B681B685A6912
:104378007B681B6822F080025A617B681B6C002BEB
:1043880003D17B689B6C002B07D07B681B681A687D
:104398007B681B6822F008021A607B68DB6D3F228D
:1043A8009A403B699A607B68012283F835207B68D4
:1043B800002283F834207B681B6D002B7ED07B683D
:1043C8001B6D7868984779E07B681B681B6803F465
:1043D8008023002B1DD07B681B681B6803F4002317
:1043E800002B0DD17B685B6C002B31D07B685B6C3C
:1043F800786898472CE000BF30010020B5814E1B3B
:104408007B68DB6B002B23D07B68DB6B7868984775
:104418001EE07B681B681B6803F48073002B0FD1B8
:104428007B681B681A687B681B6822F010021A6098
:104438007B68012283F835207B68002283F83420CA
:104448007B68DB6B002B03D07B68DB6B7868984755
:104458007B685B6D002B32D07B685B6D03F00103DA
:10446800002B22D07B68052283F835207B681B68E7
:104478001A687B681B6822F001021A60BB68013366
:10448800BB607A699A4207D37B681B681B6803F094
:104498000103002BF2D100E000BF7B68012283F802
:1044A80035207B68002283F834207B68DB6C002B86
:1044B80005D07B68DB6C7868984700E000BF183748
:1044C800BD4680BD80B485B000AFF860B9607A6041
:1044D8003B60FB681B681A68FB681B6822F4802233
:1044E8001A60FB681B683A685A60FB689B68402B37
:1044F80008D1FB681B687A689A60FB681B68BA6811
:10450800DA6007E0FB681B68BA689A60FB681B689A
:104518007A68DA6000BF1437BD465DF8047B7047DF
:1045280080B485B000AF78607B681B68DBB2103B55
:10453800144AA2FB03231B09FB60134AFB681344BC
:104548001B781A467B68DA65FB68032B09D97B68F8
:104558001B6823F47F7323F003031A1D7B689A6595
:1045680007E07B681B6823F47F7323F003037A68F2
:1045780093657B689B6D18461437BD465DF8047BD0
:10458800704700BFABAAAAAA1880000880B485B0FB
:1045980000AF78600023FB737B689B6ABB607B6815
:1045A8009B69002B1FD1BB68032B56D801A252F878
:1045B80023F000BFCD450008DF450008CD450008C1
:1045C800634600087B68DB6A03F08073002B46D0E3
:1045D8000123FB7343E07B68DB6AB3F1C07F40D102
:1045E8000123FB733DE07B689B69B3F5005F21D134
:1045F800BB68032B37D801A252F823F015460008F0
:104608001B460008154600082D4600080123FB73C9
:1046180030E07B68DB6A03F08073002B25D0012330
:10462800FB7322E07B68DB6AB3F1C07F1FD10123F3
:10463800FB731CE0BB68022B03D9BB68032B03D0B8
:1046480018E00123FB7315E07B68DB6A03F08073D5
:10465800002B0ED00123FB730BE000BF0AE000BF64
:1046680008E000BF06E000BF04E000BF02E000BFB2
:1046780000E000BFFB7B18461437BD465DF8047B9D
:10468800704700BF80B586B000AFF860B960C7E971
:104698000023234B1B7E012B01D102233BE0204B3F
:1046A80001221A764CF2503000F07CF80346FB7574
:1046B800FB7D002B2BD1FB68002B05D13B781946DD
:1046C800B86800F027F916E0FB68012B05D13B8894
:1046D8001946B86800F0FAF80DE0FB68022B05D11E
:1046E8003B681946B86800F0CFF804E0D7E9002322
:1046F800B86800F097F84CF2503000F053F80346D1
:10470800FB75084B1B69074A23F001031361044B2F
:1047180000221A76FB7D18461837BD4680BD00BFBB
:104728003C010020003C024080B483B000AF00236D
:10473800FB710B4B1B69002B0BDA094B094A5A60BA
:10474800074B094A5A60064B1B69002B01DA012303
:10475800FB71FB7918460C37BD465DF8047B704742
:10476800003C024023016745AB89EFCD80B400AF20
:10477800054B1B69044A43F00043136100231846A4
:10478800BD465DF8047B7047003C024080B400AF32
:10479800034BDB691846BD465DF8047B704700BFD4
:1047A8003C01002080B584B000AF78600023FB6036
:1047B8001A4B0022DA61FFF721FAF86010E07B68F3
:1047C800B3F1FF3F0CD07B68002B07D0FFF716FA38
:1047D8000246FB68D31A7A689A4201D2032319E089
:1047E8000F4BDB6803F48033002BE8D10C4BDB68FC
:1047F80003F00103002B02D0094B0122DA60084BB9
:10480800DB6803F0F203002B03D000F0A5F80123C6
:1048180000E0002318461037BD4680BD3C0100204B
:10482800003C024080B485B000AFF860C7E90023BF
:10483800144B1B69134A23F440731361114B1B6912
:10484800104A43F4407313610E4B1B690D4A43F041
:1048580001031361FB683A681A60BFF36F8F00BFEA
:10486800D7E900014FF000024FF000030A000023CF
:10487800F968043113460B6000BF1437BD465DF874
:10488800047B7047003C024080B483B000AF78607E
:1048980039600D4B1B690C4A23F4407313610A4BB2
:1048A8001B69094A43F400731361074B1B69064AE5
:1048B80043F0010313617B683A681A6000BF0C3744
:1048C800BD465DF8047B7047003C024080B483B06D
:1048D80000AF78600B467B800D4B1B690C4A23F4B4
:1048E800407313610A4B1B69094A43F480731361CF
:1048F800074B1B69064A43F0010313617B687A88FA
:104908001A8000BF0C37BD465DF8047B704700BFB6
:10491800003C024080B483B000AF78600B46FB7067
:104928000C4B1B690B4A23F440731361094B094A6A
:104938001B691361074B1B69064A43F001031361A6
:104948007B68FA781A7000BF0C37BD465DF8047BA7
:10495800704700BF003C024080B400AF274BDB68C3
:1049680003F01003002B08D0254BDB6943F010033C
:10497800234AD361214B1022DA60204BDB6803F015
:104988002003002B08D01E4BDB6943F008031C4AA8
:10499800D3611A4B2022DA60184BDB6803F040031E
:1049A800002B08D0164BDB6943F00403144AD3618B
:1049B800124B4022DA60114BDB6803F08003002BB6
:1049C80008D00F4BDB6943F002030D4AD3610B4B50
:1049D8008022DA60094BDB6803F00203002B08D061
:1049E800074BDB6943F02003054AD361034B0222DE
:1049F800DA6000BFBD465DF8047B7047003C0240AA
:104A08003C01002080B584B000AF78603960002395
:104A1800BB60314B1B7E012B01D1022358E02E4B8A
:104A280001221A764CF25030FFF7BCFE0346FB73A6
:104A3800FB7B002B48D13B684FF0FF321A607B6844
:104A48001B68012B15D17B681B69DAB27B685B6830
:104A58001946104600F044F84CF25030FFF7A2FE19
:104A68000346FB731D4B1B691C4A23F004031361A7
:104A780028E07B689B68BB601CE07B681B69DBB235
:104A88001946B86800F050F84CF25030FFF78AFE2B
:104A98000346FB73114B1B69104A23F07A03136119
:104AA800FB7B002B03D03B68BA681A600AE0BB683E
:104AB8000133BB607B68DA687B689B681344BA681B
:104AC8009A42DAD300F078F8034B00221A76FB7B7F
:104AD80018461037BD4680BD3C010020003C02400E
:104AE80080B483B000AF03463960FB710D4B1B697E
:104AF8000C4A23F4407313610A4B1B69094A43F0BB
:104B080004031361074B1A69FB791B021343054A17
:104B180043F48033136100BF0C37BD465DF8047B56
:104B2800704700BF003C024080B485B000AF786099
:104B38000B46FB700023FB60FB78002B02D100239F
:104B4800FB6010E0FB78012B03D14FF48073FB600E
:104B580009E0FB78022B03D14FF40073FB6002E0FD
:104B68004FF44073FB60134B1B69124A23F44073E4
:104B78001361104B1A690F49FB6813430B610D4B06
:104B88001B690C4A23F0780313610A4B1A697B6886
:104B9800DB001343074A43F002031361054B1B690B
:104BA800044A43F48033136100BF1437BD465DF8EF
:104BB800047B7047003C024080B400AF204B1B6868
:104BC80003F40073002B17D01D4B1B681C4A23F4F9
:104BD800007313601A4B1B68194A43F4006313608F
:104BE800174B1B68164A23F400631360144B1B68A9
:104BF800134A43F400731360114B1B6803F480637A
:104C0800002B17D00E4B1B680D4A23F480631360EA
:104C18000B4B1B680A4A43F480531360084B1B680C
:104C2800074A23F480531360054B1B68044A43F476
:104C38008063136000BFBD465DF8047B704700BF0A
:104C4800003C024080B489B000AF7860396000232E
:104C58007B6100233B610023BB610023FB616BE1A7
:104C68000122FB6902FA03F37B613B681B687A69DE
:104C780013403B613A697B699A4240F05A813B682C
:104C88005B6803F00303012B05D03B685B6803F006
:104C98000303022B30D17B689B68BB61FB695B0017
:104CA800032202FA03F3DB43BA691340BB613B6892
:104CB800DA68FB695B0002FA03F3BA691343BB6164
:104CC8007B68BA699A607B685B68BB610122FB6993
:104CD80002FA03F3DB43BA691340BB613B685B68C4
:104CE8001B0903F00102FB6902FA03F3BA691343D3
:104CF800BB617B68BA695A603B685B6803F0030371
:104D0800032B17D07B68DB68BB61FB695B00032260
:104D180002FA03F3DB43BA691340BB613B689A6844
:104D2800FB695B0002FA03F3BA691343BB617B6852
:104D3800BA69DA603B685B6803F00303022B23D18E
:104D4800FB69DA087B68083253F82230BB61FB69DB
:104D580003F007039B000F2202FA03F3DB43BA694F
:104D68001340BB613B681A69FB6903F007039B00AA
:104D780002FA03F3BA691343BB61FB69DA087B687B
:104D88000832B96943F822107B681B68BB61FB696C
:104D98005B00032202FA03F3DB43BA691340BB61E9
:104DA8003B685B6803F00302FB695B0002FA03F3EC
:104DB800BA691343BB617B68BA691A603B685B6870
:104DC80003F44033002B00F0B4800023FB60604BF9
:104DD8005B6C5F4A43F4804353645D4B5B6C03F444
:104DE8008043FB60FB685B4AFB699B08023352F80F
:104DF8002330BB61FB6903F003039B000F2202FA17
:104E080003F3DB43BA691340BB617B68524A9342A0
:104E18002BD07B68514A934225D07B68504A9342F5
:104E28001FD07B684F4A934219D07B684E4A934201
:104E380013D07B684D4A93420DD07B684C4A93420D
:104E480007D07B684B4A934201D107230EE0082321
:104E58000CE006230AE0052308E0042306E0032308
:104E680004E0022302E0012300E00023FA6902F0D3
:104E7800030292009340BA691343BB613549FB6949
:104E88009B080233BA6941F823203B4B9B68BB61FE
:104E98003B69DB43BA691340BB613B685B6803F459
:104EA8008013002B03D0BA693B691343BB61324AB4
:104EB800BB699360304BDB68BB613B69DB43BA6914
:104EC8001340BB613B685B6803F40013002B03D0FD
:104ED800BA693B691343BB61274ABB69D360264B58
:104EE8005B68BB613B69DB43BA691340BB613B68E4
:104EF8005B6803F40033002B03D0BA693B691343A2
:104F0800BB611D4ABB6953601B4B1B68BB613B6996
:104F1800DB43BA691340BB613B685B6803F48033C9
:104F2800002B03D0BA693B691343BB61124ABB69C2
:104F38001360FB690133FB61FB690F2B7FF690AEB1
:104F480000BF00BF2437BD465DF8047B704700BF33
:104F580000380240003801400000024000040240CE
:104F680000080240000C02400010024000140240F9
:104F780000180240001C0240003C014080B485B08B
:104F880000AF78600B467B807B681A697B8813408A
:104F9800002B02D00123FB7301E00023FB73FB7B92
:104FA80018461437BD465DF8047B704780B483B05B
:104FB80000AF78600B467B8013467B707B78002BB4
:104FC80003D07A887B689A6103E07B881A047B683F
:104FD8009A6100BF0C37BD465DF8047B704700003E
:104FE80080B582B000AF0346FB80084B5A69FB8846
:104FF8001340002B06D0054AFB885361FB881846EE
:1050080000F006F800BF0837BD4680BD003C0140EF
:1050180080B483B000AF0346FB8000BF0C37BD46A9
:105028005DF8047B7047000080B586B000AF7860FB
:105038007B68002B01D1012367E27B681B6803F0C2
:105048000103002B75D0884B9B6803F00C03042BDD
:105058000CD0854B9B6803F00C03082B12D1824BB4
:105068005B6803F48003B3F5800F0BD17E4B1B689C
:1050780003F40033002B5BD07B685B68002B57D1AF
:10508800012342E27B685B68B3F5803F06D1764B2B
:105098001B68754A43F4803313601DE07B685B68C6
:1050A800B3F5A02F0CD1704B1B686F4A43F48023D3
:1050B80013606D4B1B686C4A43F4803313600BE03C
:1050C800694B1B68684A23F480331360664B1B687E
:1050D800654A23F4802313607B685B68002B13D038
:1050E800FEF78CFD386108E0FEF788FD02463B6953
:1050F800D31A642B01D9032307E25B4B1B6803F423
:105108000033002BF0D014E0FEF778FD386108E09A
:10511800FEF774FD02463B69D31A642B01D90323B9
:10512800F3E1514B1B6803F40033002BF0D100E08E
:1051380000BF7B681B6803F00203002B63D04A4B57
:105148009B6803F00C03002B0BD0474B9B6803F0C4
:105158000C03082B1CD1444B5B6803F48003002B21
:1051680016D1414B1B6803F00203002B05D07B6866
:10517800DB68012B01D00123C7E13B4B1B6823F0FF
:10518800F8027B681B69DB00374913430B603AE080
:105198007B68DB68002B20D0344B01221A60FEF7B5
:1051A8002DFD386108E0FEF729FD02463B69D31A58
:1051B800022B01D90323A8E12B4B1B6803F0020340
:1051C800002BF0D0284B1B6823F0F8027B681B6982
:1051D800DB00254913430B6015E0244B00221A60BD
:1051E800FEF70CFD386108E0FEF708FD02463B6952
:1051F800D31A022B01D9032387E11B4B1B6803F049
:105208000203002BF0D17B681B6803F00803002B16
:1052180036D07B685B69002B16D0154B01221A60CB
:10522800FEF7ECFC386108E0FEF7E8FC02463B6953
:10523800D31A022B01D9032367E10B4B5B6F03F0F1
:105248000203002BF0D01BE0094B00221A60FEF786
:10525800D5FC38610EE0FEF7D1FC02463B69D31A53
:10526800022B07D9032350E10038024000004742CF
:10527800800E4742884B5B6F03F00203002BEAD194
:105288007B681B6803F00403002B00F09780002361
:10529800FB75814B1B6C03F08053002B0FD100234F
:1052A800BB607D4B1B6C7C4A43F0805313647A4B84
:1052B8001B6C03F08053BB60BB680123FB75774B05
:1052C8001B6803F48073002B18D1744B1B68734A56
:1052D80043F480731360FEF791FC386108E0FEF731
:1052E8008DFC02463B69D31A022B01D903230CE13A
:1052F8006A4B1B6803F48073002BF0D07B689B68B3
:10530800012B06D1644B1B6F634A43F001031367FB
:105318001CE07B689B68052B0CD15F4B1B6F5E4ABA
:1053280043F0040313675C4B1B6F5B4A43F00103B4
:1053380013670BE0584B1B6F574A23F001031367A1
:10534800554B1B6F544A23F0040313677B689B6813
:10535800002B15D0FEF752FC38610AE0FEF74EFC30
:1053680002463B69D31A41F28832934201D903239A
:10537800CBE0494B1B6F03F00203002BEED014E087
:10538800FEF73CFC38610AE0FEF738FC02463B6950
:10539800D31A41F28832934201D90323B5E03E4B38
:1053A8001B6F03F00203002BEED1FB7D012B05D10F
:1053B800394B1B6C384A23F0805313647B689B6914
:1053C800002B00F0A180344B9B6803F00C03082BE2
:1053D8005CD07B689B69022B41D1314B00221A605B
:1053E800FEF70CFC386108E0FEF708FC02463B6952
:1053F800D31A022B01D9032387E0274B1B6803F03C
:105408000073002BF0D17B68DA697B681B6A1A434A
:105418007B685B6A9B011A437B689B6A5B08013B5C
:105428001B041A437B68DB6A1B061B4913434B604A
:105438001B4B01221A60FEF7E1FB386108E0FEF71A
:10544800DDFB02463B69D31A022B01D903235CE03A
:10545800114B1B6803F00073002BF0D054E0104B85
:1054680000221A60FEF7CAFB386108E0FEF7C6FBA7
:1054780002463B69D31A022B01D9032345E0064BA8
:105488001B6803F00073002BF0D13DE07B689B693B
:10549800012B07D1012338E000380240007000409A
:1054A800600047421B4B5B68FB607B689B69012B74
:1054B80028D0FB6803F480027B68DB699A4221D11B
:1054C800FB6803F03F027B681B6A9A421AD1FA68AC
:1054D80047F6C07313407A68526A9201934211D119
:1054E800FB6803F440327B689B6A5B08013B1B0442
:1054F8009A4207D1FB6803F070627B68DB6A1B067F
:105508009A4201D0012300E0002318461837BD460F
:1055180080BD00BF0038024080B584B000AF78601D
:1055280039607B68002B01D10123CCE0684B1B68F4
:1055380003F007033A689A420CD9654B3A68D2B22D
:105548001A70634B1B6803F007033A689A4201D04C
:105558000123B8E07B681B6803F00203002B20D00E
:105568007B681B6803F00403002B05D0594B9B682C
:10557800584A43F4E05393607B681B6803F00803C0
:10558800002B05D0534B9B68524A43F46043936009
:10559800504B9B6823F0F0027B689B684D4913438E
:1055A8008B607B681B6803F00103002B44D07B6889
:1055B8005B68012B07D1474B1B6803F40033002BB2
:1055C80019D101237FE07B685B68022B03D07B68DD
:1055D8005B68032B07D13F4B1B6803F00073002B5C
:1055E80009D101236FE03B4B1B6803F00203002B3A
:1055F80001D1012367E0374B9B6823F003027B68E6
:105608005B68344913438B60FEF7F8FAF8600AE0E8
:10561800FEF7F4FA0246FB68D31A41F28832934245
:1056280001D903234FE02B4B9B6803F00C027B68E6
:105638005B689B009A42EBD1254B1B6803F007037C
:105648003A689A420CD2224B3A68D2B21A70204B6E
:105658001B6803F007033A689A4201D0012332E03D
:105668007B681B6803F00403002B08D0194B9B6868
:1056780023F4E0527B68DB68164913438B607B6830
:105688001B6803F00803002B09D0124B9B6823F416
:1056980060427B681B69DB000E4913438B6000F096
:1056A80021F802460B4B9B681B0903F00F030A49BC
:1056B800CB5C22FA03F3094A1360094B1B681846AE
:1056C800FEF758FA002318461037BD4680BD00BFC4
:1056D800003C0240003802400080000830010020F1
:1056E800340100202DE9B04F94B000AF00237B6453
:1056F8000023FB6400233B640023BB64794B9B6855
:1057080003F00C03082B0DD0082B00F2E180002BCE
:1057180002D0042B03D0DBE0734BBB64DBE0734B9C
:10572800BB64D8E06F4B5B6803F03F037B646D4B51
:105738005B6803F48003002B63D06A4B5B689B09AA
:105748000022BB63FA63BB6BC3F308033B6300230C
:105758007B63D7E90C4522462B464FF000004FF0FB
:105768000001590141EAD261500102460B46214627
:10577800511A3961294663EB01037B614FF000023E
:105788004FF00003D7E904AB59468B01514643EA71
:10579800916351468A015146B2EB0108594663EBC1
:1057A80001094FF000024FF000034FEAC90343EA32
:1057B80058734FEAC80290469946234618EB0303EC
:1057C800BB602B4649EB0303FB604FF000024FF030
:1057D8000003D7E9024529464B02214643EAD15343
:1057E80021464A02104619467B6C0022BB62FA62C7
:1057F800D7E90A23FAF7E4FC02460B461346FB6492
:1058080058E0384B5B689B09002218461146C0F3E4
:1058180008033B6200237B62D7E9088942464B466E
:105828004FF000004FF00001590141EAD2615001E8
:1058380002460B464146B2EB010A494663EB010BAF
:105848004FF000024FF000034FEA8B1343EA9A63CC
:105858004FEA8A12B2EB0A0463EB0B054FF0000221
:105868004FF00003EB0043EA5473E20014461D4670
:105878004346E3183B604B4645EB03037B604FF020
:1058880000024FF00003D7E9004529468B02214664
:1058980043EA915321468A02104619467B6C00223E
:1058A800BB61FA61D7E90623FAF78AFC02460B4680
:1058B8001346FB640B4B5B681B0C03F003030133BB
:1058C8005B003B64FA6C3B6CB2FBF3F3BB6402E035
:1058D800054BBB6400BFBB6C18465037BD46BDE8DE
:1058E800B08F00BF003802400024F40000127A0094
:1058F80080B400AF034B1B681846BD465DF8047BB7
:10590800704700BF3001002080B500AFFFF7F0FFFF
:105918000246054B9B689B0A03F007030349CB5CCF
:1059280022FA03F3184680BD0038024010800008B0
:1059380080B500AFFFF7DCFF0246054B9B685B0BA9
:1059480003F007030349CB5C22FA03F3184680BD32
:10595800003802401080000880B582B000AF78603F
:105968007B68002B01D1012341E07B6893F83D302F
:10597800DBB2002B06D17B68002283F83C207868D4
:10598800FDF768FD7B68022283F83D207B681A6872
:105998007B6804331946104600F04CFC7B680122F2
:1059A80083F846207B68012283F83E207B68012229
:1059B80083F83F207B68012283F840207B6801221E
:1059C80083F841207B68012283F842207B6801220A
:1059D80083F843207B68012283F844207B680122F6
:1059E80083F845207B68012283F83D200023184670
:1059F8000837BD4680BD000080B485B000AF786030
:105A08007B6893F83D30DBB2012B01D001234EE0D7
:105A18007B68022283F83D207B681B68DA687B6814
:105A28001B6842F00102DA607B681B68234A9342D4
:105A380022D07B681B68B3F1804F1DD07B681B6840
:105A48001F4A934218D07B681B681E4A934213D0A2
:105A58007B681B681C4A93420ED07B681B681B4AF4
:105A6800934209D07B681B68194A934204D07B682B
:105A78001B68184A934211D17B681B689B6803F026
:105A88000703FB60FB68062B10D07B681B681A684D
:105A98007B681B6842F001021A6007E07B681B689C
:105AA8001A687B681B6842F001021A6000231846D6
:105AB8001437BD465DF8047B704700BF0000014005
:105AC8000004004000080040000C004000040140B1
