:020000040800F2
:1000000000000220A12D0008812A0008892A00088A
:10001000912A0008992A0008A12A0008000000007F
:10002000000000000000000000000000A92A0008F5
:10003000B72A000800000000C52A0008D32A0008DB
:10004000F12D0008F12D0008F12D0008F12D000818
:10005000F12D0008F12D0008E12A00087D2B000891
:10006000192C0008F12D0008F12D0008F12D0008D1
:10007000F12D0008F12D0008F12D0008F12D0008E8
:10008000F12D0008F12D0008F12D0008F12D0008D8
:10009000F12D0008F12D0008F12D0008F12D0008C8
:1000A000B52C0008F12D0008F12D0008F12D0008F5
:1000B000E92C0008F12D0008F12D0008F12D0008B1
:1000C000F12D0008F12D0008F12D0008F12D000898
:1000D000F12D0008F12D0008112D0008F12D000868
:1000E000F12D0008F12D0008F12D0008F12D000878
:1000F000F12D0008F12D0008F12D0008F12D000868
:10010000F12D0008F12D0008252D0008F12D000823
:10011000F12D0008F12D00084D2D0008652D000877
:10012000F12D0008F12D0008F12D0008F12D000837
:10013000F12D0008F12D0008F12D0008F12D000827
:10014000F12D0008F12D0008F12D0008F12D000817
:10015000F12D0008F12D0008F12D0008F12D000807
:10016000F12D0008F12D0008F12D0008F12D0008F7
:10017000F12D0008F12D0008F12D0008000000000D
:08018000F12D0008F12D00082B
:1001880010B5054C237833B9044B13B10448AFF3C9
:1001980000800123237010BD6000002000000000D3
:1001A800D062000808B5034B1BB103490348AFF3FD
:1001B800008008BD0000000064000020D062000834
:1001C80053B94AB9002908BF00281CBF4FF0FF31B6
:1001D8004FF0FF3000F06AB9ADF1080C6DE904CEBC
:1001E80000F006F8DDF804E0DDE9022304B070470A
:1001F8002DE9F047089D0C46002B4ED194468C45BE
:100208008646B2FA82F262D94AB1C2F1200391401D
:1002180020FA03F30CFA02FC194300FA02FE4FEA33
:100228001C471FFA8CF6B1FBF7F44FEA1E4307FB95
:10023800141143EA014304FB06F199420AD91CEB65
:10024800030304F1FF3080F01281994240F20F81DC
:10025800023C6344591A1FFA8EF3B1FBF7F007FB0F
:10026800101143EA014300FB06F69E420AD91CEB33
:10027800030300F1FF3180F0FC809E4240F2F980D8
:10028800634402389B1B40EA044000211DB1D3405F
:100298000022C5E90032BDE8F0878B4205D90DB1CF
:1002A800C5E9000100210846F5E7B3FA83F1002902
:1002B80046D1A34202D39042C0F0F080861A64EB84
:1002C80003030120002DE6D0C5E90063E3E7002A17
:1002D80040F09080A1EB0C044FEA1C481FFA8CF701
:1002E8000121B4FBF8F64FEA1E4308FB164443EA23
:1002F800044307FB06F0984208D91CEB030306F1F8
:10030800FF3402D2984200F2CD8026461C1A1FFA0A
:100318008EF3B4FBF8F008FB104443EA044300FBF7
:1003280007F79F4208D91CEB030300F1FF3402D200
:100338009F4200F2B0802046DB1B40EA0640A5E75A
:10034800C1F120068B4022FA06F71F4320FA06FC6B
:1003580004FA01F343EA0C03F44000FA01F8380CFC
:100368004FEA1349B4FBF0FE1FFA87FC00FB1E445A
:1003780049EA04440EFB0CF9A14502FA01F20AD934
:100388003C190EF1FF3A80F08480A14540F281804B
:10039800AEF1020E3C44A4EB09041FFA83F9B4FB46
:1003A800F0F300FB134449EA044403FB0CFCA445A6
:1003B80007D93C1903F1FF3067D2A44565D9023B40
:1003C8003C4443EA0E40A0FB0293A4EB0C049C427D
:1003D800CE469C4651D34ED055B1B8EB0E0364EBD4
:1003E8000C0404FA06F6CB401E43CC40C5E9006471
:1003F800002150E7C2F1200320FA03F10CFA02FCB5
:1004080024FA03F394400C434FEA1C4800FA02FE16
:100418001FFA8CF7B3FBF8F008FB1031230C43EA02
:10042800014300FB07F1994208D91CEB030300F1D3
:10043800FF362CD299422AD9023863445B1AA4B2F7
:10044800B3FBF8F108FB113344EA034401FB07F35B
:10045800A34208D91CEB040401F1FF3613D2A342CE
:1004680011D902396444E41A41EA004139E70446E3
:10047800F0E6084606E7C845AED2B9EB020E63EBD4
:10048800070C0138A8E73146EDE7034699E73046FF
:10049800D4E7D6467FE7634402384DE7064623464D
:1004A80008460FE7023E634430E700BF704700BFCD
:1004B80080B500AF4FF480723449354804F011FF1D
:1004C80041F2883002F004FD324803F0A3FD3248BF
:1004D80003F0A0FD314803F09DFD314803F09AFD7B
:1004E800304803F097FD49F640413C2001F022FADC
:1004F80049F640413C2001F04FFA41F288313C2056
:1005080001F07CFA284B1B6800225A62214B1B68B9
:1005180000225A62254B1B6800225A621F4B1B6837
:1005280000225A62224B1B6800225A621A4B1B682F
:1005380000225A6201211F4803F02EF80346012BBE
:1005480003D11D4B0422DA7302E01B4B0322DA733A
:100558000221184803F020F80346012B03D1174B5A
:100568000422DA7302E0154B0322DA7304211148DE
:1005780003F012F80346012B03D1114B0422DA735E
:1005880002E00F4B0322DA7300BF80BD7C0000201D
:10059800C00400205803002078040020C80200206E
:1005A800A0030020E803002030040020800200207F
:1005B800100300200008024024000020340000201E
:1005C8004400002080B500AF01F014FF01F07CFE6C
:1005D80001F088FD00BF80BD80B500AF124B5B788D
:1005E8001A4692FAA2F3B3FA83F3002A01D14FF024
:1005F800FF3301339AB20D4B1A800C4B1B88002B2A
:1006080010D00A4B1B88013B9AB2084B1A80074B43
:100618001B88072B06D8054B1B881A46044B53F832
:100628002230984700BF80BD080500207C020020CA
:100638000000002080B500AF02F0D8FB00F018F8E9
:1006480000F04CFB00F020FB00F0A4F900F05EFA8B
:1006580000F078F800F0F8F800F044F900F0D8FA63
:1006680000F0E8F900F01CFAFFF722FF00BFFDE7F1
:1006780080B594B000AF07F120033022002118465E
:1006880005F0F6FD07F10C0300221A605A609A6023
:10069800DA601A610023BB60284B1B6C274A43F0C1
:1006A80080531364254B1B6C03F08053BB60BB68FD
:1006B80000237B60224B1B68214A43F4804313606C
:1006C8001F4B1B6803F480437B607B6802233B62FB
:1006D8000123FB6210233B630223BB630023FB63FC
:1006E80008233B64A8237B640223BB640423FB64C4
:1006F80007F12003184602F0A5FF0346002B01D09E
:1007080000F0F4FB0F23FB6002233B6100237B61B5
:100718004FF4A053BB614FF48053FB6107F10C0306
:100728000521184603F006FA0346002B01D000F015
:10073800DDFB00BF5037BD4680BD00BF003802401A
:100748000070004080B592B000AF07F1400300226E
:100758001A605A6007F1240300221A605A609A60EE
:10076800DA601A615A619A613B1D202200211846FD
:1007780005F07EFD324B334A1A60314B53225A60E2
:100788002F4B00229A602E4B6422DA602C4B0022F9
:100798001A612B4B00225A61294B00229A61284882
:1007A80003F0A8FC0346002B01D000F09FFB402378
:1007B8003B6400237B6407F140031946204804F09A
:1007C800D3FB0346002B01D000F090FB60237B6233
:1007D8003223BB620223FB6200233B6300237B635B
:1007E8000023BB630023FB6307F12403002219469F
:1007F800134803F0F7FE0346002B01D000F076FB08
:1008080000237B600023BB600023FB6000233B6167
:1008180000237B614FF40053BB6100233B623B1D07
:100828001946074804F01CFC0346002B01D000F0D1
:100838005DFB034802F046F800BF4837BD4680BD5F
:10084800800200200000014080B588B000AF07F1A9
:100858000C0300221A605A609A60DA601A613B1D24
:1008680000221A605A601E4B4FF080421A601C4BDF
:1008780000225A601A4B00229A60194B4FF0FF323F
:10088800DA60174B00221A61154B00229A6114484E
:1008980003F070FB0346002B01D000F027FB072371
:1008A800FB6000233B6107F10C0319460C4803F079
:1008B8005BFF0346002B01D000F018FB00237B6090
:1008C8000023BB603B1D1946054804F04DFB034659
:1008D800002B01D000F00AFB00BF2037BD4680BDC9
:1008E800C802002080B58AB000AF07F120030022BB
:1008F8001A605A603B1D00221A605A609A60DA60DA
:100908001A615A619A61214B214A1A601F4B2922A8
:100918005A601E4B00229A601C4B6422DA601B4B03
:1009280000221A61194B00229A61184803F0E2FB71
:100938000346002B01D000F0D9FA60233B62002364
:100948007B6207F120031946104804F00DFB0346AB
:10095800002B01D000F0CAFA60237B603223BB6011
:100968000223FB6000237B613B1D082219460748D0
:1009780003F038FE0346002B01D000F0B7FA034815
:1009880001F0A0FF00BF2837BD4680BD100300203E
:100998000004004080B588B000AF07F10C030022C6
:1009A8001A605A609A60DA601A613B1D00221A6068
:1009B8005A601E4B1E4A1A601C4B00225A601B4B81
:1009C80000229A60194B4FF0FF32DA60174B002271
:1009D8001A61164B00229A61144803F0CBFA0346B9
:1009E800002B01D000F082FA0723FB6030233B6123
:1009F80007F10C0319460D4803F0B6FE0346002B19
:100A080001D000F073FA00237B600023BB603B1D1C
:100A18001946064804F0A8FA0346002B01D000F056
:100A280065FA00BF2037BD4680BD00BF58030020CF
:100A3800000C004080B582B000AF3B4600221A602F
:100A48005A60154B154A1A60134B53225A60124BC1
:100A580000229A60104B41F28832DA600E4B002275
:100A68009A610D4803F086FA0346002B01D000F086
:100A78003DFA00233B6000237B603B46194606484D
:100A880004F072FA0346002B01D000F02FFA00BFE1
:100A98000837BD4680BD00BFA003002000100040FD
:100AA80080B582B000AF3B4600221A605A60154BF1
:100AB800154A1A60134B53225A60124B00229A604F
:100AC800104B40F21452DA600E4B00229A610D4826
:100AD80003F050FA0346002B01D000F007FA002378
:100AE8003B6000237B603B461946064804F03CFA0D
:100AF8000346002B01D000F0F9F900BF0837BD46C6
:100B080080BD00BFE80300200014004080B592B00B
:100B180000AF07F1400300221A605A6007F124036E
:100B280000221A605A609A60DA601A615A619A6102
:100B38003B1D20220021184605F09AFB324B334A10
:100B48001A60314B53225A602F4B00229A602E4B69
:100B58006422DA602C4B00221A612B4B00225A6166
:100B6800294B00229A61284803F0C4FA0346002B57
:100B780001D000F0BBF940233B6400237B6407F1FC
:100B880040031946204804F0EFF90346002B01D032
:100B980000F0ACF960237B623223BB620223FB6264
:100BA80000233B6300237B630023BB630023FB63B9
:100BB80007F1240300221946134803F013FD0346E6
:100BC800002B01D000F092F900237B600023BB606A
:100BD8000023FB6000233B6100237B614FF400533B
:100BE800BB6100233B623B1D1946074804F038FAF5
:100BF8000346002B01D000F079F9034801F062FEAA
:100C080000BF4837BD4680BD3004002000040140C5
:100C180080B586B000AF3B1D00221A605A609A600A
:100C2800DA601A61164B174A1A60154B00225A608F
:100C3800134B00229A60124B4FF6FF72DA60104B8A
:100C480000221A610E4B00229A610D4803F092F9B6
:100C58000346002B01D000F049F907237B601023DD
:100C6800BB603B1D1946064803F07EFD0346002B7A
:100C780001D000F03BF900BF1837BD4680BD00BF6A
:100C8800780400200040014080B500AF114B124AA3
:100C98001A60104B4FF4E1325A600E4B00229A60F2
:100CA8000C4B0022DA600B4B00221A61094B0C2214
:100CB8005A61084B00229A61064B0022DA61054806
:100CC80004F034FA0346002B01D000F00FF900BFFE
:100CD80080BD00BFC00400200044004080B58CB037
:100CE80000AF07F11C0300221A605A609A60DA60AC
:100CF8001A610023BB61774B1B6B764A43F01003E4
:100D08001363744B1B6B03F01003BB61BB690023B7
:100D18007B61704B1B6B6F4A43F0040313636D4B8D
:100D28001B6B03F004037B617B6900233B61694B08
:100D38001B6B684A43F080031363664B1B6B03F01D
:100D480080033B613B690023FB60624B1B6B614A7C
:100D580043F0010313635F4B1B6B03F00103FB605C
:100D6800FB680023BB605B4B1B6B5A4A43F00803CC
:100D78001363584B1B6B03F00803BB60BB6800236D
:100D88007B60544B1B6B534A43F002031363514B74
:100D98001B6B03F002037B607B6800227F214E48B7
:100DA80002F012FC00224FF40A514C4802F00CFCED
:100DB80000224FF400714A4802F006FC0022F82194
:100DC800484802F001FC00224FF44E71464802F0F8
:100DD800FBFB7F23FB6101233B6200237B62002333
:100DE800BB6207F11C0319463B4802F039FA4FF47D
:100DF8000A53FB6101233B6200237B620023BB6231
:100E080007F11C031946354802F02AFA3F23FB6113
:100E18004FF488133B6200237B6207F11C031946D9
:100E28002E4802F01DFA4FF68073FB614FF48813C9
:100E38003B6200237B6207F11C031946264802F037
:100E48000FFA4FF40073FB6101233B6200237B62BE
:100E58000023BB6207F11C031946214802F000FA7F
:100E6800F823FB6101233B6200237B620023BB6202
:100E780007F11C0319461B4802F0F2F94FF44E73B0
:100E8800FB6101233B6200237B620023BB6207F105
:100E98001C031946144802F0E3F900220321062036
:100EA80002F015F9062002F02EF90022032107208E
:100EB80002F00DF9072002F026F90022032108208C
:100EC80002F005F9082002F01EF900BF3037BD46D0
:100ED80080BD00BF003802400010024000080240F8
:100EE80000000240000C02400004024080B400AF41
:100EF80072B600BF00BFFDE780B485B000AF786070
:100F08000B467B804FF6FF73FB810023BB8122E0F9
:100F1800BB897A6813441B781A46FB895340FB81C6
:100F28000023FB7211E0FB8903F00103002B06D0BC
:100F3800FB895B089AB20D4B5340FB8102E0FB89A9
:100F48005B08FB81FB7A0133FB72FB7A072BEAD93A
:100F5800BB890133BB81BA897B889A42D8D3FB8984
:100F680018461437BD465DF8047B704701A0FFFFA3
:100F780080B584B000AF786039603B689BB2194691
:100F88007868FFF7B9FF0346FB813B687A6813442A
:100F9800FA89D2B21A70FB891B0A99B23B680133ED
:100FA8007A681344CAB21A703B689BB202339AB289
:100FB8004FF47A737968034804F008F900BF1037D2
:100FC800BD4680BDC004002080B582B000AF034696
:100FD800FB710B4B1A780B4B1A70094B5B7863F05B
:100FE8007F03DAB2074B5A70064AFB7993700321E4
:100FF8000448FFF7BDFF00BF0837BD4680BD00BFEE
:101008007C0000207C01002080B584B000AF354B07
:101018009B781B021AB2334BDB781BB213431BB20B
:10102800FB81304B1B791B021AB22E4B5B791BB22A
:1010380013431BB27B807B88002B03D07B88B3F5DE
:10104800967F04D30320FFF7BFFF002345E0FA890A
:101058007B8813449BB2013B3B803B88B3F5967F6A
:1010680004D30220FFF7B0FF002336E01E4B012215
:101078001A701C4B5A781C4B5A707B88DBB25B0089
:10108800DAB2194B9A700323BB6000237B601BE024
:10109800FB89164A32F813301B0A99B2BB685A1CEE
:1010A800BA60C9B2104AD154FB89104A32F81310F9
:1010B800BB685A1CBA60C9B20B4AD154FB890133C8
:1010C800FB817B6801337B607B887A689A42DFDB2F
:1010D800B9680548FFF74CFF012318461037BD468D
:1010E80080BD00BF7C0000207C010020240500207A
:1010F80080B584B000AF354B9B781B021AB2334BD6
:10110800DB781BB213431BB2FB81304B1B791B02EC
:101118001AB22E4B5B791BB213431BB27B807B88C0
:10112800002B03D07B88B3F5967F04D30320FFF709
:101138004BFF002345E0FA897B8813449BB2013BAF
:101148003B803B88B3F5967F04D30220FFF73CFF32
:10115800002336E01E4B01221A701C4B5A781C4B98
:101168005A707B88DBB25B00DAB2194B9A700323A2
:10117800BB6000237B601BE0FB89164A32F8133002
:101188001B0A99B2BB685A1CBA60C9B2104AD1543A
:10119800FB89104A32F81310BB685A1CBA60C9B2EE
:1011A8000B4AD154FB890133FB817B6801337B6097
:1011B8007B887A689A42DFDBB9680548FFF7D8FE72
:1011C800012318461037BD4680BD00BF7C000020B3
:1011D8007C010020E862000880B588B000AF524B5F
:1011E8009B781B021AB2504BDB781BB213431BB21D
:1011F8007B814D4B1B791B021AB24B4B5B791BB29F
:1012080013431BB23B813B89002B03D03B89B3F5C9
:10121800FA6F04D90320FFF7D7FE002380E07A890C
:101228003B8913449BB2013BFB80FB88C72B04D945
:101238000220FFF7C9FE002372E04FF480720021FC
:101248003A4805F015F8394B01221A70364B5A788E
:10125800364B5A703B89DB089BB2DBB23A8902F005
:10126800070292B2002A14BF01220022D2B213440C
:10127800DAB22E4B9A700323FB617B89DB089BB2A1
:10128800BB617B8903F00703FB8200233B610023DA
:10129800FB6033E0254AFB6913441B785AB22449A2
:1012A800BB690B441B781946FB8A41FA03F303F028
:1012B80001013B6901FA03F35BB213435BB2D9B294
:1012C8001A4AFB6913440A461A703B6901333B61A9
:1012D800FB8A0133FB823B69072B04DD00233B615A
:1012E800FB690133FB61FB8A072B04D90023FB82CE
:1012F800BB690133BB61FB680133FB603B89FA685A
:101308009A42C7DB3B8903F007039BB2002B02D04C
:10131800FB690133FB61F9690448FFF729FE0123E2
:1013280018462037BD4680BD7C0000207C01002087
:101338000805002080B588B000AF524B9B781B028F
:101348001AB2504BDB781BB213431BB27B814D4B57
:101358001B791B021AB24B4B5B791BB213431BB2AE
:101368003B813B89002B03D03B89B3F5FA6F04D945
:101378000320FFF729FE002380E07A893B89134484
:101388009BB2013BFB80FB88C72B04D90220FFF7E7
:101398001BFE002372E04FF4807200213A4804F0EB
:1013A80067FF394B01221A70364B5A78364B5A7000
:1013B8003B89DB089BB2DBB23A8902F0070292B2A2
:1013C800002A14BF01220022D2B21344DAB22E4BF3
:1013D8009A700323FB617B89DB089BB2BB617B8925
:1013E80003F00703FB8200233B610023FB6033E02B
:1013F800254AFB6913441B785AB22449BB690B443C
:101408001B781946FB8A41FA03F303F001013B6993
:1014180001FA03F35BB213435BB2D9B21A4AFB6910
:1014280013440A461A703B6901333B61FB8A013356
:10143800FB823B69072B04DD00233B61FB69013319
:10144800FB61FB8A072B04D90023FB82BB690133AC
:10145800BB61FB680133FB603B89FA689A42C7DBD2
:101468003B8903F007039BB2002B02D0FB690133D1
:10147800FB61F9690448FFF77BFD01231846203713
:10148800BD4680BD7C0000207C0100204C63000824
:1014980080B584B000AF394B9B781B021AB2374B2A
:1014A800DB781BB213431BB2FB81344B1B791B0245
:1014B8001AB2324B5B791BB213431BB27B807B8819
:1014C800002B03D07B88B3F5967F04D30320FFF766
:1014D8007BFD00234DE0FA897B8813449BB2013BD6
:1014E8003B803B88B3F5967F04D30220FFF76CFD61
:1014F80000233EE00723BB6000237B6019E0BB6844
:101508005A1CBA601D4AD35C1B021AB2BB68591C2C
:10151800B9601A49CB5C1BB2134319B2FB895A1C38
:10152800FA811A4689B2164B23F812107B680133E8
:101538007B607B887A689A42E1DB124B01221A7041
:101548000E4B5A780F4B5A700C4B9A780D4B9A7079
:101558000A4BDA780B4BDA70084B1A79094B1A7177
:10156800064B5A79074B5A7106210648FFF700FDCA
:10157800012318461037BD4680BD00BF7C000020FF
:10158800240500207C01002080B582B000AF204BEC
:101598009B781B021AB21E4BDB781BB213431BB29B
:1015A800FB80FB88B3F5967F04D30220FFF70CFD80
:1015B800002329E0164B1B791B021AB2144B5B79E6
:1015C8001BB213431AB2FB8891B2124A22F81310C5
:1015D800114B01221A700E4B5A780F4B5A700C4B54
:1015E8009A780D4B9A700A4BDA780B4BDA70084BE5
:1015F8001A79094B1A71064B5A79074B5A71062109
:101608000548FFF7B5FC012318460837BD4680BDDD
:101618007C000020240500207C01002080B584B0D7
:1016280000AF384B9B781B021AB2364BDB781BB2E3
:1016380013431BB2FB81FB89C72B04D90220FFF798
:10164800C3FC00235AE0FB89DB089BB2BB60FB8923
:1016580003F00703FB802B4B1B79FF2B16D1294B7B
:101668005B79002B12D1284ABB6813441B785AB205
:10167800FB88012101FA03F35BB213435BB2D9B2D1
:10168800214ABB6813440A461A701BE01D4B1B799C
:10169800002B17D11B4B5B79002B13D11A4ABB685F
:1016A80013441B785AB2FB88012101FA03F35BB299
:1016B800DB435BB213405BB2D9B2134ABB68134435
:1016C8000A461A70114B01221A700E4B5A780F4BAA
:1016D8005A700C4B9A780D4B9A700A4BDA780B4B70
:1016E800DA70084B1A79094B1A71064B5A79074B6D
:1016F8005A7106210548FFF73BFC012318461037AD
:10170800BD4680BD7C000020080500207C0100202B
:1017180080B588B000AF564B9B781B021AB2544B69
:10172800DB781BB213431BB27B81514B1B791B0225
:101738001AB24F4B5B791BB213431BB23B813B89F7
:10174800002B03D03B89B3F5F66F04D90320FFF7CC
:101758003BFC002388E07A893B8913449BB2013B18
:10176800FB80FB88C72B04D90220FFF72DFC002340
:101778007AE07B89DB089BB2FB617B8903F0070376
:101788007B8300237B6107233B610023FB604BE0E5
:10179800374A3B6913441B781A467B6942FA03F3BC
:1017A80003F00103002B12D0324AFB6913441B7863
:1017B8005AB27B8B012101FA03F35BB213435BB28C
:1017C800D9B22C4AFB6913440A461A7013E0294A15
:1017D800FB6913441B785AB27B8B012101FA03F38E
:1017E8005BB2DB435BB213405BB2D9B2214AFB69FF
:1017F80013440A461A707B8B01337B837B69013360
:101808007B617B69072B04DD00237B613B69013326
:101818003B617B8B072B04D900237B83FB69013356
:10182800FB61FB680133FB603B89FA689A42AFDBD6
:10183800114B01221A700E4B5A780F4B5A700C4BF1
:101848009A780D4B9A700A4BDA780B4BDA70084B82
:101858001A79094B1A71064B5A79074B5A710621A6
:101868000548FFF785FB012318462037BD4680BD94
:101878007C000020080500207C01002080B582B093
:1018880000AF78600B467B80284B1B78012B43D137
:10189800264B5B78013B0F2B3AD801A252F823F074
:1018A800E9180008EF180008F5180008FB180008E8
:1018B8000119000807190008191900081919000862
:1018C8001919000819190008191900081919000828
:1018D80019190008191900080D190008131900082A
:1018E800FFF77AFC18E0FFF725FD15E0FFF78CFB02
:1018F80012E0FFF7FDFB0FE0FFF790FE0CE0FFF7AB
:1019080043FE09E0FFF704FF06E0FFF7C1FD03E02F
:101918000120FFF759FB00BF4FF4807203490448C8
:1019280003F0DFFC00BF0837BD4680BD7C00002007
:10193800C004002080B483B000AF03460A46FB8091
:101948001346BB80FA88BB889A4201D9BB88FB80C2
:10195800FB880F4A92FBF3F20E4B1B68DA62FB8896
:101968000B4A92FBF3F31A460A4BDA60FB88084AE3
:1019780092FBF3F3DA0F13445B101A46054B1B680E
:101988005A6300BF0C37BD465DF8047B704700BF43
:1019980080841E003004002080B483B000AF03466A
:1019A8000A46FB801346BB80FA88BB889A4201D955
:1019B800BB88FB80FB880F4A92FBF3F20E4B1B6837
:1019C800DA62FB880B4A92FBF3F31A460A4BDA6099
:1019D800FB88084A92FBF3F3DA0F13445B101A46AC
:1019E800054B1B685A6300BF0C37BD465DF8047B86
:1019F800704700BF80841E008002002080B483B03E
:101A080000AF03460A46FB801346BB80FA88BB88B2
:101A18009A4201D9BB88FB80FB880F4A92FBF3F2FC
:101A28000E4B1B68DA62FB880B4A92FBF3F31A46EB
:101A38000A4BDA60FB88084A92FBF3F3DA0F134487
:101A48005B101A46054B1B68DA6300BF0C37BD46AE
:101A58005DF8047B704700BF40420F001003002070
:101A680080B500AF01228021044801F0ADFD0021BE
:101A7800034802F08FFB00BF80BD00BF0008024092
:101A88003004002080B500AF00228021044801F016
:101A98009BFD0021034802F07DFB00BF80BD00BF15
:101AA800000802403004002080B500AF00224FF447
:101AB8000071044801F088FD0021034802F06AFB28
:101AC80000BF80BD000002408002002080B500AF4A
:101AD80001224FF40071044801F076FD002103480B
:101AE80002F058FB00BF80BD0000024080020020C9
:101AF80080B500AF01224FF40071044801F064FD85
:101B08000821034802F046FB00BF80BD00080240E0
:101B18001003002080B500AF00224FF40071044884
:101B280001F052FD0821034802F034FB00BF80BDDC
:101B3800000802401003002080B582B000AF0346C1
:101B4800FB800B4BFF221A700A4B1B6800225A625B
:101B5800FB885A1E084B1B68DA62FB88013B1A4651
:101B6800054BDA60FFF77CFF00BF0837BD4680BD34
:101B780024000020300400205803002080B582B0E3
:101B880000AF0346FB800B4B01221A700A4B1B68FF
:101B980000225A62FB885A1E084B1B68DA62FB88CF
:101BA800013B1A46054BDA60FFF76CFF00BF0837A8
:101BB800BD4680BD240000203004002058030020CA
:101BC80080B582B000AF0346FB800B4B01221A7030
:101BD8000A4B1B6800225A62FB885A1E084B1B6876
:101BE800DA62FB88013B1A46054BDA60FFF75CFFB7
:101BF80000BF0837BD4680BD3400002080020020A9
:101C0800C802002080B582B000AF0346FB800B4BB2
:101C1800FF221A700A4B1B6800225A62FB885A1E60
:101C2800084B1B68DA62FB88013B1A46054BDA60F1
:101C3800FFF74CFF00BF0837BD4680BD34000020C9
:101C480080020020C802002080B582B000AF0346A1
:101C5800FB800B4BFF221A700A4B1B6800225A624A
:101C6800FB885A1E084B1B68DA62FB88013B1A4640
:101C7800054BDA60FFF73CFF00BF0837BD4680BD63
:101C880044000020100300207804002080B582B0B2
:101C980000AF0346FB800B4B01221A700A4B1B68EE
:101CA80000225A62FB885A1E084B1B68DA62FB88BE
:101CB800013B1A46054BDA60FFF72CFF00BF0837D7
:101CC800BD4680BD44000020100300207804002099
:101CD80080B582B000AF0346FB800B46BB8013463D
:101CE8007B80FB884CF25032934200F28380BB88A1
:101CF80046F2A81293427DD87B8842F21072934232
:101D080078D83E4B5B899BB2FA889A4221D049F633
:101D1800404144F26820FFF70DFE384B0122DA7388
:101D2800364B5B899BB2FA889A4209D2334B5B895E
:101D38009AB2FB88D31A9BB21846FFF7FDFE08E05B
:101D48002E4B5B899BB2FA88D31A9BB21846FFF7D1
:101D580015FF2B4B5B899BB2BA889A4221D049F672
:101D6800404144F26820FFF717FE254B0122DA7341
:101D7800234B5B899BB2BA889A4209D2204B5B8974
:101D88009AB2BB88D31A9BB21846FFF73BFF08E00C
:101D98001B4B5B899BB2BA88D31A9BB21846FFF7D4
:101DA8000FFF184B5B899BB27A889A4223D041F285
:101DB800883141F28830FFF721FE124B0122DA7395
:101DC800104B5B899BB27A889A4209D20D4B5B898A
:101DD8009AB27B88D31A9BB21846FFF735FF0AE000
:101DE800084B5B899BB27A88D31A9BB21846FFF7D7
:101DF8004DFF00E000BF0837BD4680BD240000202D
:101E0800340000204400002080B483B000AF0346B3
:101E1800FB80044AFB88138000BF0C37BD465DF881
:101E2800047B70472405002080B483B000AF0346CC
:101E3800FB80044AFB88538000BF0C37BD465DF821
:101E4800047B70472405002080B483B000AF0346AC
:101E5800FB80044AFB88938000BF0C37BD465DF8C1
:101E6800047B70472405002080B400AF034B1B8817
:101E78001846BD465DF8047B704700BF2405002066
:101E880080B400AF034B5B881846BD465DF8047B01
:101E9800704700BF2405002080B400AF034B9B8827
:101EA8001846BD465DF8047B704700BF2405002036
:101EB80080B500AF0A4B5B899BB2002B0DD0084B55
:101EC800DB7B002B0AD1064B0222DA73044B5B89B9
:101ED8009BB21846FFF730FE00E000BF80BD00BF90
:101EE8002400002080B500AF0C4B5B899BB24CF2FC
:101EF8004F32934210D8094BDB7B002B0DD1074B97
:101F08000222DA73054B5B899AB2054B9B1A9BB286
:101F18001846FFF733FE00E000BF80BD2400002014
:101F280050C3FFFF80B500AF0D4B5B899BB246F2F3
:101F3800A712934211D80A4BDB7B002B0ED1084B1A
:101F48000222DA73064B5B899BB2C3F5C34328337D
:101F58009BB21846FFF734FE00E000BF80BD00BF0B
:101F68003400002080B500AF0A4B5B899BB2002B80
:101F78000DD0084BDB7B002B0AD1064B0222DA730B
:101F8800044B5B899BB21846FFF73CFE00E000BF9C
:101F980080BD00BF3400002080B500AF0A4B5B89CC
:101FA8009BB2002B0DD0084BDB7B002B0AD1064BD4
:101FB8000222DA73044B5B899BB21846FFF744FE92
:101FC80000E000BF80BD00BF4400002080B500AF26
:101FD8000D4B5B899BB242F20F72934211D80A4BA8
:101FE800DB7B002B0ED1084B0222DA73064B5B8990
:101FF8009BB2C3F51C5310339BB21846FFF746FE3D
:1020080000E000BF80BD00BF44000020B0B500AFB5
:102018000E4BDB7B002B17D10D4BDB7B002B13D139
:102028000C4BDB7B002B0FD1FFF71EFF03461C4632
:10203800FFF726FF03461D46FFF72EFF03461A4605
:1020480029462046FFF744FE00BFB0BD240000200B
:10205800340000204400002080B500AF01211D4855
:1020680001F09AFA0346012B0BD01B4BDB7B002BAC
:1020780007D1194B5B899BB2002B02D0164B032268
:10208800DA730221134801F087FA0346012B0BD0BB
:10209800124BDB7B002B07D1104B5B899BB2002BCB
:1020A80002D00E4B0322DA7304210A4801F074FAB5
:1020B8000346012B0BD00A4BDB7B002B07D1084BC7
:1020C8005B899BB2002B02D0054B0322DA7300BF59
:1020D80080BD00BF0008024024000020340000201A
:1020E8004400002080B500AF464BDB7B052B00F297
:1020F800878001A252F823F0032200081921000862
:102108004B210008B7210008CD210008ED21000867
:102118003C4B9B899AB23B4B1B785BB299B23A4BCA
:102128001B685B6A9BB211FB03F39BB213449AB220
:10213800344B5A81334B5B899BB21846FFF764FED8
:102148005EE0324B1B681B7803F00103DBB2002B07
:1021580009D12E4B1B681B7803F00203DBB2002B5E
:1021680001D100F055F8274B9B899AB2254B1B7873
:102178005BB299B2244B1B685B6A9BB211FB03F3F9
:102188009BB213449AB21F4B5A811E4B5B899BB278
:102198001846FFF739FE1C4B1B685B6A9BB23C3341
:1021A8009BB249F640411846FFF7C4FB28E049F6C0
:1021B800404141F28830FFF7BDFB4CF24450FFF735
:1021C800BBFC1DE0104B1B685B6A002B17D149F65E
:1021D800404141F28830FFF7ADFB4FF4FA60FFF75A
:1021E800CDFC0CE049F640414FF47A70FFF7A2FBB2
:1021F8004CF25030FFF7A0FC02E000BF00E000BF47
:1022080000BF80BD240000205803002020000020CB
:1022180080B500AF0021294802F084F8284BDB7B09
:10222800022B1CD1264B9B899AB2254B1B785BB29B
:1022380099B2244B1B685B6A9BB211FB03F39BB2F8
:1022480013449AB21E4B5A811D4B5B899BB21846A8
:10225800FFF7DAFD1B4B1B6800225A6225E0184B7A
:10226800DB7B012B19D1164B9B899AB2144B1B7837
:102278005BB299B2134B1B68DB6A01339BB211FB4B
:1022880003F39BB213449AB20D4B5A810C4B5B89F2
:102298009BB21846FFF7B8FD07E0094BDB7B042B20
:1022A80003D1074B0522DA7307E0054B0022DA73E6
:1022B800034B5B899AB2024B9A8180BD300400209F
:1022C800240000205803002080B500AF464BDB7B7C
:1022D800052B00F2878001A252F823F0E7230008BB
:1022E800FD2200082F2300089B230008B1230008C3
:1022F800D12300083C4B9B899AB23B4B1B785BB2BD
:1023080099B23A4B1B685B6A9BB211FB03F39BB211
:1023180013449AB2344B5A81334B5B899BB21846AB
:10232800FFF782FD5EE0324B1B681B7803F0040365
:10233800DBB2002B09D12E4B1B681B7803F0080376
:10234800DBB2002B01D100F0EBF8274B9B899AB246
:10235800254B1B785BB299B2244B1B685B6A9BB216
:1023680011FB03F39BB213449AB21F4B5A811E4BC5
:102378005B899BB21846FFF757FD1C4B1B685B6ACD
:102388009BB23C339BB249F640411846FFF704FB29
:1023980028E049F640414FF4FA60FFF7FDFA46F2AB
:1023A8009C30FFF72FFC1DE0104B1B685B6A002B6D
:1023B80017D149F640414FF47A60FFF7EDFA4FF430
:1023C800FA60FFF7FDFB0CE049F640414FF47A70E4
:1023D800FFF7E2FA46F2A810FFF714FC02E000BF8C
:1023E80000E000BF00BF80BD34000020C80200200C
:1023F8002000002080B500AF464BDB7B052B00F2A8
:10240800878001A252F823F0132500082924000828
:102418005B240008C7240008DD240008FD24000808
:102428003C4B9B899AB23B4B1B785BB299B23A4BB7
:102438001B685B6A9BB211FB03F39BB213449AB20D
:10244800344B5A81334B5B899BB21846FFF7FCFC2F
:102458005EE0324B1B681B7803F01003DBB2002BE5
:1024680009D12E4B1B681B7803F02003DBB2002B2D
:1024780001D100F0B1F8274B9B899AB2254B1B7804
:102488005BB299B2244B1B685B6A9BB211FB03F3E6
:102498009BB213449AB21F4B5A811E4B5B899BB265
:1024A8001846FFF7D1FC1C4B1B685B6A9BB23C3398
:1024B8009BB241F288311846FFF7A0FA28E041F2B2
:1024C80088314FF47A70FFF799FA42F6F820FFF74F
:1024D800BBFB1DE0104B1B685B6A002B17D141F258
:1024E80088314FF4FA60FFF789FA4FF4FA60FFF782
:1024F800CDFB0CE041F288314FF4FA70FFF77EFA19
:1025080042F21070FFF7A0FB02E000BF00E000BF3E
:1025180000BF80BD44000020780400202000002077
:1025280080B500AF0021294801F0FCFE284BDB7B79
:10253800022B1CD1264B9B899AB2254B1B785BB288
:1025480099B2244B1B685B6A9BB211FB03F39BB2E5
:1025580013449AB21E4B5A811D4B5B899BB2184695
:10256800FFF762FC1B4B1B6800225A6225E0184BE0
:10257800DB7B012B19D1164B9B899AB2144B1B7824
:102588005BB299B2134B1B68DB6A01339BB211FB38
:1025980003F39BB213449AB20D4B5A810C4B5B89DF
:1025A8009BB21846FFF740FC07E0094BDB7B042B86
:1025B80003D1074B0522DA7307E0054B0022DA73D3
:1025C800034B5B899AB2024B9A8180BD800200203E
:1025D80034000020C802002080B500AF0821294837
:1025E80001F0A0FE284BDB7B022B1CD1264B9B89DC
:1025F8009AB2254B1B785BB299B2244B1B685B6A75
:102608009BB211FB03F39BB213449AB21E4B5A813F
:102618001D4B5B899BB21846FFF716FC1B4B1B68CA
:1026280000225A6225E0184BDB7B012B19D1164B8F
:102638009B899AB2144B1B785BB299B2134B1B68F7
:10264800DB6A01339BB211FB03F39BB213449AB2CA
:102658000D4B5A810C4B5B899BB21846FFF7F4FB74
:1026680007E0094BDB7B042B03D1074B0522DA7308
:1026780007E0054B0022DA73034B5B899AB2024BE1
:102688009A8180BD100300204400002078040020B7
:1026980080B483B000AF00237B60104B5B6C0F4AA3
:1026A80043F4804353640D4B5B6C03F480437B60BD
:1026B8007B6800233B60094B1B6C084A43F080533E
:1026C8001364064B1B6C03F080533B603B6800BFF0
:1026D8000C37BD465DF8047B704700BF00380240E8
:1026E80080B586B000AF78607B681B68224A934249
:1026F80016D100237B61214B5B6C204A43F0010318
:1027080053641E4B5B6C03F001037B617B69002201
:102718000721182000F0DBFC182000F0F4FC26E06C
:102728007B681B68164A93420ED100233B61134B0A
:102738001B6C124A43F002031364104B1B6C03F02A
:1027480002033B613B6912E07B681B680D4A9342B8
:102758000DD10023FB60094B5B6C084A43F0020370
:102768005364064B5B6C03F00203FB60FB6800BF1D
:102778001837BD4680BD00BF000001400038024048
:10278800000400400004014080B588B000AF7860C4
:102798007B681B68B3F1804F16D10023FB61444B63
:1027A8001B6C434A43F001031364414B1B6C03F059
:1027B8000103FB61FB69002207211C2000F087FC54
:1027C8001C2000F0A0FC6EE07B681B68394A93422D
:1027D80016D10023BB61364B1B6C354A43F0080306
:1027E8001364334B1B6C03F00803BB61BB69002205
:1027F8000721322000F06BFC322000F084FC52E00C
:102808007B681B682C4A934216D100237B61284BB6
:102818001B6C274A43F010031364254B1B6C03F011
:1028280010037B617B6900220821362000F04FFCF1
:10283800362000F068FC36E07B681B681F4A93422C
:1028480016D100233B611A4B1B6C194A43F0200335
:102858001364174B1B6C03F020033B613B69002298
:102868000921372000F033FC372000F04CFC1AE037
:102878007B681B68124A934215D10023FB600C4BFE
:102888005B6C0B4A43F480335364094B5B6C03F471
:102898008033FB60FB6800220721182000F017FC3A
:1028A800182000F030FC00BF2037BD4680BD00BFB7
:1028B80000380240000C00400010004000140040A6
:1028C8000040014080B58AB000AF786007F114037A
:1028D80000221A605A609A60DA601A617B681B6885
:1028E800374A93421FD100233B61364B1B6B354A55
:1028F80043F001031363334B1B6B03F001033B618C
:102908003B694FF480737B610223BB610023FB6149
:1029180000233B6201237B6207F1140319462A480E
:1029280000F09EFC47E07B681B68284A93421FD151
:102938000023FB60234B1B6B224A43F00403136301
:10294800204B1B6B03F00403FB60FB684FF48073A0
:102958007B610223BB610023FB6100233B620223EE
:102968007B6207F114031946194800F079FC22E04C
:102978007B681B68174A93421DD10023BB60114B2B
:102988001B6B104A43F0040313630E4B1B6B03F0DD
:102998000403BB60BB6840237B610223BB61002347
:1029A800FB6103233B6203237B6207F1140319468F
:1029B800074800F055FC00BF2837BD4680BD00BF62
:1029C80000000140003802400000024000040040BE
:1029D800000802400004014080B58AB000AF78606A
:1029E80007F1140300221A605A609A60DA601A61CB
:1029F8007B681B681D4A934233D100233B611C4B03
:102A08001B6C1B4A43F400331364194B1B6C03F40F
:102A180000333B613B690023FB60154B1B6B144A79
:102A280043F001031363124B1B6B03F00103FB60BC
:102A3800FB680C237B610223BB610023FB6103233A
:102A48003B6207237B6207F114031946094800F02B
:102A580007FC00220A21262000F039FB262000F07E
:102A680052FB00BF2837BD4680BD00BF0044004070
:102A7800003802400000024080B400AF00BFFDE70C
:102A880080B400AF00BFFDE780B400AF00BFFDE732
:102A980080B400AF00BFFDE780B400AF00BFFDE722
:102AA80080B400AF00BFBD465DF8047B704780B4BA
:102AB80000AF00BFBD465DF8047B704780B400AF2F
:102AC80000BFBD465DF8047B704780B500AF00F0DD
:102AD800DFF900BF80BD000080B500AF01212148AB
:102AE80000F05AFD0346012B36D11F4BDB7B032B2D
:102AF80002D0052B18D02FE000211C4801F012FC51
:102B08001B4B1B6800225A62174B00225A81164B36
:102B18005B899BB21846FFF777F9134B0422DA73E7
:102B2800114B00229A8117E00021104801F0FAFBAE
:102B38000F4B1B6800225A620B4B00225A810A4B2A
:102B48005B899BB21846FFF75FF9074B0022DA73DF
:102B5800054B00229A8100BF012000F04FFD00BF05
:102B680080BD00BF0008024024000020300400207F
:102B78005803002080B500AF0221214800F00CFD69
:102B88000346012B36D11F4BDB7B032B02D0052BD1
:102B980018D02FE000211C4801F0C4FB1B4B1B6818
:102BA80000225A62174B00225A81164B5B899BB24E
:102BB8001846FFF739F9134B0422DA73114B002238
:102BC8009A8117E00021104801F0ACFB0F4B1B68FD
:102BD80000225A620B4B00225A810A4B5B899BB236
:102BE8001846FFF721F9074B0022DA73054B00223C
:102BF8009A8100BF022000F001FD00BF80BD00BF28
:102C0800000802403400002080020020C802002092
:102C180080B500AF0421214800F0BEFC0346012B1B
:102C280036D11F4BDB7B032B02D0052B18D02FE0AE
:102C380008211C4801F076FB1B4B1B6800225A62D6
:102C4800174B0422DA73164B00225A81144B5B8906
:102C58009BB21846FFF7F8F8114B00229A8117E04B
:102C68000821104801F05EFB0F4B1B6800225A62D6
:102C78000B4B00225A810A4B5B899BB21846FFF71F
:102C8800E3F8074B0022DA73054B00229A8100BF54
:102C9800042000F0B3FC00BF80BD00BF0008024064
:102CA80044000020100300207804002080B500AF05
:102CB800084801F0A7FB084801F0A4FB074BDB7BA1
:102CC800022B02D1054B0122DA73FFF785FC00BF06
:102CD80080BD00BF8002002078040020440000204E
:102CE80080B500AF064801F08DFB064BDB7B022B5D
:102CF80002D1044B0122DA73FFF712FC00BF80BD3A
:102D0800C80200203400002080B500AF024802F05D
:102D180045FB00BF80BD00BFC004002080B500AFE8
:102D2800064BDB7B022B02D1044B0122DA73FFF73F
:102D38006FFA034801F066FB00BF80BD2400002045
:102D48005803002080B500AFFDF746FC024801F0AB
:102D580059FB00BF80BD00BFA003002080B500AFB5
:102D6800FDF730FC024801F04DFB00BF80BD00BFFD
:102D7800E803002080B400AF064BD3F88830054A3A
:102D880043F47003C2F8883000BFBD465DF8047B89
:102D9800704700BF00ED00E0DFF834D0FFF7EAFF2E
:102DA8000C480D490D4A002302E0D458C45004339E
:102DB800C4188C42F9D30A4A0A4C002301E0136074
:102DC8000432A242FBD303F05BFAFDF733FC7047F1
:102DD800000002200000002060000020906300082E
:102DE8006000002080070020FEE7000080B500AFEB
:102DF8000E4B1B680D4A43F4007313600B4B1B68A2
:102E08000A4A43F480631360084B1B68074A43F47B
:102E180080731360032000F04FF90F2000F008F8CA
:102E2800FFF736FC0023184680BD00BF003C024077
:102E380080B582B000AF7860124B1A68124B1B78CD
:102E480019464FF47A73B3FBF1F3B2FBF3F3184668
:102E580000F067F90346002B01D001230EE07B68E0
:102E68000F2B0AD8002279684FF0FF3000F02FF9B5
:102E7800064A7B681360002300E0012318460837E0
:102E8800BD4680BD540000205C0000205800002092
:102E980080B400AF064B1B781A46064B1B681344D8
:102EA800044A136000BFBD465DF8047B704700BF4D
:102EB8005C0000207C07002080B400AF034B1B6837
:102EC8001846BD465DF8047B704700BF7C070020AC
:102ED80080B584B000AF7860FFF7EEFFB8607B681C
:102EE800FB60FB68B3F1FF3F05D00A4B1B781A461D
:102EF800FB681344FB6000BFFFF7DEFF0246BB68B8
:102F0800D31AFA689A42F7D800BF00BF1037BD46F7
:102F180080BD00BF5C00002080B485B000AF786041
:102F28007B6803F00703FB600C4BDB68BB60BA6887
:102F38004FF6FF031340BB60FB681A02BB681343DC
:102F480043F0BF6343F40033BB60044ABB68D360FB
:102F580000BF1437BD465DF8047B704700ED00E004
:102F680080B400AF044BDB681B0A03F00703184664
:102F7800BD465DF8047B704700ED00E080B483B087
:102F880000AF0346FB7197F90730002B0BDBFB7989
:102F980003F01F02074997F907305B09012000FA7F
:102FA80002F241F8232000BF0C37BD465DF8047BD0
:102FB800704700BF00E100E080B483B000AF034673
:102FC8003960FB7197F90730002B0ADB3B68DAB2EE
:102FD8000C4997F907301201D2B20B4483F8002349
:102FE8000AE03B68DAB20849FB7903F00F03043BB7
:102FF8001201D2B20B441A7600BF0C37BD465DF8F9
:10300800047B704700E100E000ED00E080B489B087
:1030180000AFF860B9607A60FB6803F00703FB61F2
:10302800FB69C3F10703042B28BF0423BB61FB69B9
:103038000433062B02D9FB69033B00E000237B61C4
:103048004FF0FF32BB6902FA03F3DA43BB681A4058
:103058007B699A404FF0FF317B6901FA03F3D9434A
:103068007B680B40134318462437BD465DF8047B44
:103078007047000080B582B000AF78607B68013B84
:10308800B3F1807F01D301230FE00A4A7B68013B3B
:1030980053600F214FF0FF30FFF78EFF054B0022E2
:1030A8009A60044B07221A60002318460837BD4669
:1030B80080BD00BF10E000E080B582B000AF78604E
:1030C8007868FFF729FF00BF0837BD4680BD80B587
:1030D80086B000AF0346B9607A60FB7300237B615A
:1030E800FFF73EFF78617A68B9687869FFF78EFF65
:1030F800024697F90F3011461846FFF75DFF00BFEB
:103108001837BD4680BD80B582B000AF0346FB715D
:1031180097F907301846FFF731FF00BF0837BD465B
:1031280080BD80B582B000AF78607868FFF7A2FFF5
:10313800034618460837BD4680BD80B584B000AF49
:1031480078607B689B6DFB60FFF7B6FEB8607B68B4
:1031580093F83530DBB2022B08D07B6880225A65A1
:103168007B68002283F83420012352E07B681B68C7
:103178001A687B681B6822F016021A607B681B6855
:103188005A697B681B6822F080025A617B681B6C55
:10319800002B03D17B689B6C002B07D07B681B68D6
:1031A8001A687B681B6822F008021A607B681B6833
:1031B8001A687B681B6822F001021A6013E0FFF7A7
:1031C8007BFE0246BB68D31A052B0CD97B682022EC
:1031D8005A657B68032283F835207B68002283F8D0
:1031E8003420032315E07B681B681B6803F0010388
:1031F800002BE4D17B68DB6D3F229A40FB689A6024
:103208007B68012283F835207B68002283F834200C
:10321800002318461037BD4680BD80B483B000AF88
:1032280078607B6893F83530DBB2022B04D07B687A
:1032380080225A6501230CE07B68052283F835203B
:103248007B681B681A687B681B6822F001021A6099
:10325800002318460C37BD465DF8047B7047000014
:1032680080B489B000AF7860396000237B610023A7
:103278003B610023BB610023FB616BE10122FB6919
:1032880002FA03F37B613B681B687A6913403B6170
:103298003A697B699A4240F05A813B685B6803F05F
:1032A8000303012B05D03B685B6803F00303022B83
:1032B80030D17B689B68BB61FB695B00032202FA23
:1032C80003F3DB43BA691340BB613B68DA68FB6907
:1032D8005B0002FA03F3BA691343BB617B68BA69FE
:1032E8009A607B685B68BB610122FB6902FA03F3A1
:1032F800DB43BA691340BB613B685B681B0903F099
:103308000102FB6902FA03F3BA691343BB617B68E4
:10331800BA695A603B685B6803F00303032B17D054
:103328007B68DB68BB61FB695B00032202FA03F37D
:10333800DB43BA691340BB613B689A68FB695B0071
:1033480002FA03F3BA691343BB617B68BA69DA60AE
:103358003B685B6803F00303022B23D1FB69DA089F
:103368007B68083253F82230BB61FB6903F007031E
:103378009B000F2202FA03F3DB43BA691340BB61D7
:103388003B681A69FB6903F007039B0002FA03F321
:10339800BA691343BB61FB69DA087B680832B9690B
:1033A80043F822107B681B68BB61FB695B00032242
:1033B80002FA03F3DB43BA691340BB613B685B68FD
:1033C80003F00302FB695B0002FA03F3BA691343D3
:1033D800BB617B68BA691A603B685B6803F4403379
:1033E800002B00F0B4800023FB60604B5B6C5F4AED
:1033F80043F4804353645D4B5B6C03F48043FB6090
:10340800FB685B4AFB699B08023352F82330BB61B7
:10341800FB6903F003039B000F2202FA03F3DB436B
:10342800BA691340BB617B68524A93422BD07B68D0
:10343800514A934225D07B68504A93421FD07B68FB
:103448004F4A934219D07B684E4A934213D07B6807
:103458004D4A93420DD07B684C4A934207D07B6813
:103468004B4A934201D107230EE008230CE00623C0
:103478000AE0052308E0042306E0032304E002230E
:1034880002E0012300E00023FA6902F0030292003F
:103498009340BA691343BB613549FB699B08023302
:1034A800BA6941F823203B4B9B68BB613B69DB430E
:1034B800BA691340BB613B685B6803F48013002B57
:1034C80003D0BA693B691343BB61324ABB69936055
:1034D800304BDB68BB613B69DB43BA691340BB61B6
:1034E8003B685B6803F40013002B03D0BA693B699F
:1034F8001343BB61274ABB69D360264B5B68BB613A
:103508003B69DB43BA691340BB613B685B6803F402
:103518000033002B03D0BA693B691343BB611D4AD2
:10352800BB6953601B4B1B68BB613B69DB43BA69D2
:103538001340BB613B685B6803F48033002B03D006
:10354800BA693B691343BB61124ABB691360FB69E3
:103558000133FB61FB690F2B7FF690AE00BF00BF04
:103568002437BD465DF8047B704700BF0038024031
:1035780000380140000002400004024000080240F8
:10358800000C0240001002400014024000180240E3
:10359800001C0240003C014080B485B000AF786058
:1035A8000B467B807B681A697B881340002B02D00E
:1035B8000123FB7301E00023FB73FB7B18461437E0
:1035C800BD465DF8047B704780B483B000AF786077
:1035D8000B467B8013467B707B78002B03D07A8860
:1035E8007B689A6103E07B881A047B689A6100BF54
:1035F8000C37BD465DF8047B7047000080B582B08B
:1036080000AF0346FB80084B5A69FB881340002B28
:1036180006D0054AFB885361FB88184600F006F877
:1036280000BF0837BD4680BD003C014080B483B070
:1036380000AF0346FB8000BF0C37BD465DF8047B36
:103648007047000080B586B000AF78607B68002BBB
:1036580001D1012367E27B681B6803F00103002B9B
:1036680075D0884B9B6803F00C03042B0CD0854B5A
:103678009B6803F00C03082B12D1824B5B6803F4A0
:103688008003B3F5800F0BD17E4B1B6803F4003326
:10369800002B5BD07B685B68002B57D1012342E28B
:1036A8007B685B68B3F5803F06D1764B1B68754A2B
:1036B80043F4803313601DE07B685B68B3F5A02F8B
:1036C8000CD1704B1B686F4A43F4802313606D4B19
:1036D8001B686C4A43F4803313600BE0694B1B682A
:1036E800684A23F480331360664B1B68654A23F4E9
:1036F800802313607B685B68002B13D0FFF7DCFB2B
:10370800386108E0FFF7D8FB02463B69D31A642BFF
:1037180001D9032307E25B4B1B6803F40033002B3A
:10372800F0D014E0FFF7C8FB386108E0FFF7C4FBEE
:1037380002463B69D31A642B01D90323F3E1514BA9
:103748001B6803F40033002BF0D100E000BF7B6856
:103758001B6803F00203002B63D04A4B9B6803F0FD
:103768000C03002B0BD0474B9B6803F00C03082B72
:103778001CD1444B5B6803F48003002B16D1414BEA
:103788001B6803F00203002B05D07B68DB68012B64
:1037980001D00123C7E13B4B1B6823F0F8027B688B
:1037A8001B69DB00374913430B603AE07B68DB6831
:1037B800002B20D0344B01221A60FFF77DFB3861C3
:1037C80008E0FFF779FB02463B69D31A022B01D9BF
:1037D8000323A8E12B4B1B6803F00203002BF0D056
:1037E800284B1B6823F0F8027B681B69DB0025491E
:1037F80013430B6015E0244B00221A60FFF75CFBB3
:10380800386108E0FFF758FB02463B69D31A022BE0
:1038180001D9032387E11B4B1B6803F00203002B2C
:10382800F0D17B681B6803F00803002B36D07B6857
:103838005B69002B16D0154B01221A60FFF73CFB81
:10384800386108E0FFF738FB02463B69D31A022BC0
:1038580001D9032367E10B4B5B6F03F00203002BD5
:10386800F0D01BE0094B00221A60FFF725FB3861F6
:103878000EE0FFF721FB02463B69D31A022B07D95A
:10388800032350E10038024000004742800E4742BF
:10389800884B5B6F03F00203002BEAD17B681B683F
:1038A80003F00403002B00F097800023FB75814B85
:1038B8001B6C03F08053002B0FD10023BB607D4BA2
:1038C8001B6C7C4A43F0805313647A4B1B6C03F0E7
:1038D8008053BB60BB680123FB75774B1B6803F4FF
:1038E8008073002B18D1744B1B68734A43F48073A0
:1038F8001360FFF7E1FA386108E0FFF7DDFA0246E6
:103908003B69D31A022B01D903230CE16A4B1B68CC
:1039180003F48073002BF0D07B689B68012B06D1E1
:10392800644B1B6F634A43F0010313671CE07B6819
:103938009B68052B0CD15F4B1B6F5E4A43F0040359
:1039480013675C4B1B6F5B4A43F0010313670BE083
:10395800584B1B6F574A23F001031367554B1B6FD6
:10396800544A23F0040313677B689B68002B15D027
:10397800FFF7A2FA38610AE0FFF79EFA02463B69B0
:10398800D31A41F28832934201D90323CBE0494B41
:103998001B6F03F00203002BEED014E0FFF78CFA44
:1039A80038610AE0FFF788FA02463B69D31A41F208
:1039B8008832934201D90323B5E03E4B1B6F03F0D5
:1039C8000203002BEED1FB7D012B05D1394B1B6C7B
:1039D800384A23F0805313647B689B69002B00F0FE
:1039E800A180344B9B6803F00C03082B5CD07B68E8
:1039F8009B69022B41D1314B00221A60FFF75CFA18
:103A0800386108E0FFF758FA02463B69D31A022BDF
:103A180001D9032387E0274B1B6803F00073002BB1
:103A2800F0D17B68DA697B681B6A1A437B685B6A3A
:103A38009B011A437B689B6A5B08013B1B041A4382
:103A48007B68DB6A1B061B4913434B601B4B012237
:103A58001A60FFF731FA386108E0FFF72DFA0246DD
:103A68003B69D31A022B01D903235CE0114B1B6875
:103A780003F00073002BF0D054E0104B00221A60C2
:103A8800FFF71AFA386108E0FFF716FA02463B69B1
:103A9800D31A022B01D9032345E0064B1B6803F018
:103AA8000073002BF0D13DE07B689B69012B07D1A7
:103AB800012338E0003802400070004060004742AF
:103AC8001B4B5B68FB607B689B69012B28D0FB68FC
:103AD80003F480027B68DB699A4221D1FB6803F01A
:103AE8003F027B681B6A9A421AD1FA6847F6C0738C
:103AF80013407A68526A9201934211D1FB6803F429
:103B080040327B689B6A5B08013B1B049A4207D1E1
:103B1800FB6803F070627B68DB6A1B069A4201D07F
:103B2800012300E0002318461837BD4680BD00BFBA
:103B38000038024080B584B000AF786039607B6897
:103B4800002B01D10123CCE0684B1B6803F007036D
:103B58003A689A420CD9654B3A68D2B21A70634BEC
:103B68001B6803F007033A689A4201D00123B8E0C2
:103B78007B681B6803F00203002B20D07B681B685E
:103B880003F00403002B05D0594B9B68584A43F4B3
:103B9800E05393607B681B6803F00803002B05D093
:103BA800534B9B68524A43F460439360504B9B6865
:103BB80023F0F0027B689B684D4913438B607B6858
:103BC8001B6803F00103002B44D07B685B68012B62
:103BD80007D1474B1B6803F40033002B19D101238D
:103BE8007FE07B685B68022B03D07B685B68032BF4
:103BF80007D13F4B1B6803F00073002B09D1012349
:103C08006FE03B4B1B6803F00203002B01D101233B
:103C180067E0374B9B6823F003027B685B68344995
:103C280013438B60FFF748F9F8600AE0FFF744F99F
:103C38000246FB68D31A41F28832934201D9032322
:103C48004FE02B4B9B6803F00C027B685B689B0082
:103C58009A42EBD1254B1B6803F007033A689A4256
:103C68000CD2224B3A68D2B21A70204B1B6803F070
:103C780007033A689A4201D0012332E07B681B6847
:103C880003F00403002B08D0194B9B6823F4E0527F
:103C98007B68DB68164913438B607B681B6803F0FD
:103CA8000803002B09D0124B9B6823F460427B6801
:103CB8001B69DB000E4913438B6000F021F80246B4
:103CC8000B4B9B681B0903F00F030A49CB5C22FAD4
:103CD80003F3094A1360094B1B681846FFF7A8F855
:103CE800002318461037BD4680BD00BF003C024087
:103CF8000038024068630008540000205800002083
:103D08002DE9B04F94B000AF00237B640023FB641F
:103D180000233B640023BB64794B9B6803F00C03CE
:103D2800082B0DD0082B00F2E180002B02D0042BC9
:103D380003D0DBE0734BBB64DBE0734BBB64D8E0C0
:103D48006F4B5B6803F03F037B646D4B5B6803F468
:103D58008003002B63D06A4B5B689B090022BB631E
:103D6800FA63BB6BC3F308033B6300237B63D7E9A8
:103D78000C4522462B464FF000004FF00001590138
:103D880041EAD261500102460B462146511A396177
:103D9800294663EB01037B614FF000024FF00003FB
:103DA800D7E904AB59468B01514643EA9163514622
:103DB8008A015146B2EB0108594663EB01094FF0FD
:103DC80000024FF000034FEAC90343EA58734FEA71
:103DD800C80290469946234618EB0303BB602B465E
:103DE80049EB0303FB604FF000024FF00003D7E9F3
:103DF800024529464B02214643EAD15321464A024D
:103E0800104619467B6C0022BB62FA62D7E90A2386
:103E1800FCF7D6F902460B461346FB6458E0384BCC
:103E28005B689B09002218461146C0F308033B62F1
:103E380000237B62D7E9088942464B464FF00000D1
:103E48004FF00001590141EAD261500102460B4688
:103E58004146B2EB010A494663EB010B4FF0000201
:103E68004FF000034FEA8B1343EA9A634FEA8A1232
:103E7800B2EB0A0463EB0B054FF000024FF00003AE
:103E8800EB0043EA5473E20014461D464346E31828
:103E98003B604B4645EB03037B604FF000024FF05D
:103EA8000003D7E9004529468B02214643EA91538E
:103EB80021468A02104619467B6C0022BB61FA61D2
:103EC800D7E90623FCF77CF902460B461346FB6448
:103ED8000B4B5B681B0C03F0030301335B003B6473
:103EE800FA6C3B6CB2FBF3F3BB6402E0054BBB64BA
:103EF80000BFBB6C18465037BD46BDE8B08F00BF49
:103F0800003802400024F40000127A0080B400AFA8
:103F1800034B1B681846BD465DF8047B704700BF1D
:103F28005400002080B500AFFFF7F0FF0246054BB4
:103F38009B689B0A03F007030349CB5C22FA03F34F
:103F4800184680BD003802407863000880B500AF8D
:103F5800FFF7DCFF0246054B9B685B0B03F007038A
:103F68000349CB5C22FA03F3184680BD00380240AF
:103F78007863000880B582B000AF78607B68002B5A
:103F880001D1012341E07B6893F83D30DBB2002B7F
:103F980006D17B68002283F83C207868FEF7F4FBA2
:103FA8007B68022283F83D207B681A687B680433AB
:103FB8001946104600F04CFC7B68012283F8462025
:103FC8007B68012283F83E207B68012283F83F202A
:103FD8007B68012283F840207B68012283F8412016
:103FE8007B68012283F842207B68012283F8432002
:103FF8007B68012283F844207B68012283F84520EE
:104008007B68012283F83D20002318460837BD4607
:1040180080BD000080B485B000AF78607B6893F8FD
:104028003D30DBB2012B01D001234EE07B68022238
:1040380083F83D207B681B68DA687B681B6842F060
:104048000102DA607B681B68234A934222D07B68AE
:104058001B68B3F1804F1DD07B681B681F4A9342D1
:1040680018D07B681B681E4A934213D07B681B6874
:104078001C4A93420ED07B681B681B4A934209D0A6
:104088007B681B68194A934204D07B681B68184AEE
:10409800934211D17B681B689B6803F00703FB60A0
:1040A800FB68062B10D07B681B681A687B681B6846
:1040B80042F001021A6007E07B681B681A687B6897
:1040C8001B6842F001021A60002318461437BD46E7
:1040D8005DF8047B704700BF000001400004004009
:1040E80000080040000C004000040140004001406E
:1040F8000018004080B582B000AF78607B68002B64
:1041080001D1012341E07B6893F83D30DBB2002BFD
:1041180006D17B68002283F83C207868FEF7E0FA35
:104128007B68022283F83D207B681A687B68043329
:104138001946104600F08CFB7B68012283F8462064
:104148007B68012283F83E207B68012283F83F20A8
:104158007B68012283F840207B68012283F8412094
:104168007B68012283F842207B68012283F8432080
:104178007B68012283F844207B68012283F845206C
:104188007B68012283F83D20002318460837BD4686
:1041980080BD000080B584B000AF786039603B68AE
:1041A800002B09D17B6893F83E30DBB2012B14BF9A
:1041B80001230023DBB222E03B68042B09D17B6892
:1041C80093F83F30DBB2012B14BF01230023DBB28D
:1041D80015E03B68082B09D17B6893F84030DBB2C7
:1041E800012B14BF01230023DBB208E07B6893F89E
:1041F8004130DBB2012B14BF01230023DBB2002BBB
:1042080001D001237CE03B68002B04D17B680222AB
:1042180083F83E2013E03B68042B04D17B6802221C
:1042280083F83F200BE03B68082B04D17B6802220F
:1042380083F8402003E07B68022283F841207B68F2
:104248001B6801223968184600F068FE7B681B6805
:104258002D4A934204D07B681B682C4A934201D1B3
:10426800012300E00023002B07D07B681B685A6CF1
:104278007B681B6842F400425A647B681B68224AC8
:10428800934222D07B681B68B3F1804F1DD07B68B6
:104298001B681F4A934218D07B681B681D4A9342CB
:1042A80013D07B681B681C4A93420ED07B681B683E
:1042B800164A934209D07B681B68184A934204D077
:1042C8007B681B68164A934211D17B681B689B6800
:1042D80003F00703FB60FB68062B10D07B681B68A4
:1042E8001A687B681B6842F001021A6007E07B6865
:1042F8001B681A687B681B6842F001021A60002379
:1043080018461037BD4680BD00000140000401403A
:104318000004004000080040000C0040004001403C
:104328000018004080B582B000AF786039607B68C3
:104338001B6800223968184600F0F0FD7B681B688E
:104348002E4A934204D07B681B682D4A934201D1C0
:10435800012300E00023002B17D07B681B681A6A32
:1043680041F211131340002B0FD17B681B681A6AA6
:1043780040F244431340002B07D17B681B685A6CFA
:104388007B681B6822F400425A647B681B681A6ABF
:1043980041F211131340002B0FD17B681B681A6A76
:1043A80040F244431340002B07D17B681B681A680E
:1043B8007B681B6822F001021A603B68002B04D15D
:1043C8007B68012283F83E2013E03B68042B04D16C
:1043D8007B68012283F83F200BE03B68082B04D15F
:1043E8007B68012283F8402003E07B68012283F880
:1043F8004120002318460837BD4680BD0000014013
:104408000004014080B584B000AF78607B681B6809
:10441800DB68FB607B681B681B69BB60BB6803F0DB
:104428000203002B20D0FB6803F00203002B1BD0F3
:104438007B681B686FF002021A617B6801221A7799
:104448007B681B689B6903F00303002B03D0786823
:1044580000F0E0F905E0786800F0D2F9786800F03B
:10446800E3F97B6800221A77BB6803F00403002B8A
:1044780020D0FB6803F00403002B1BD07B681B686B
:104488006FF004021A617B6802221A777B681B6846
:104498009B6903F44073002B03D0786800F0BAF9E5
:1044A80005E0786800F0ACF9786800F0BDF97B6841
:1044B80000221A77BB6803F00803002B20D0FB68A2
:1044C80003F00803002B1BD07B681B686FF0080201
:1044D8001A617B6804221A777B681B68DB6903F022
:1044E8000303002B03D0786800F094F905E078689E
:1044F80000F086F9786800F097F97B6800221A774F
:10450800BB6803F01003002B20D0FB6803F01003F6
:10451800002B1BD07B681B686FF010021A617B6848
:1045280008221A777B681B68DB6903F44073002B49
:1045380003D0786800F06EF905E0786800F060F95B
:10454800786800F071F97B6800221A77BB6803F07D
:104558000103002B0CD0FB6803F00103002B07D0EC
:104568007B681B686FF001021A61786800F03EF9F9
:10457800BB6803F08003002B0CD0FB6803F08003BA
:10458800002B07D07B681B686FF080021A6178687F
:1045980000F0C2FDBB6803F04003002B0CD0FB68A1
:1045A80003F04003002B07D07B681B686FF04002C4
:1045B8001A61786800F042F9BB6803F02003002B09
:1045C8000CD0FB6803F02003002B07D07B681B6826
:1045D8006FF020021A61786800F094FD00BF103770
:1045E800BD4680BD80B586B000AFF860B9607A601E
:1045F8000023FB75FB6893F83C30012B01D10223A3
:10460800AEE0FB68012283F83C207B680C2B00F2AB
:104618009F8001A252F823F0554600085947000828
:1046280059470008594700089546000859470008A7
:104638005947000859470008D74600085947000855
:10464800594700085947000817470008FB681B68C6
:10465800B968184600F0A2F9FB681B689A69FB68FC
:104668001B6842F008029A61FB681B689A69FB683C
:104678001B6822F004029A61FB681B689969BB6891
:104688001A69FB681B680A439A6164E0FB681B6847
:10469800B968184600F0F2F9FB681B689A69FB686C
:1046A8001B6842F400629A61FB681B689A69FB68A0
:1046B8001B6822F480629A61FB681B689969BB6871
:1046C8001B691A02FB681B680A439A6143E0FB688E
:1046D8001B68B968184600F047FAFB681B68DA6976
:1046E800FB681B6842F00802DA61FB681B68DA693C
:1046F800FB681B6822F00402DA61FB681B68D96951
:10470800BB681A69FB681B680A43DA6123E0FB6827
:104718001B68B968184600F09BFAFB681B68DA69E1
:10472800FB681B6842F40062DA61FB681B68DA699F
:10473800FB681B6822F48062DA61FB681B68D96930
:10474800BB681B691A02FB681B680A43DA6102E04E
:104758000123FB7500BFFB68002283F83C20FB7D2A
:1047680018461837BD4680BD80B582B000AF786066
:1047780039607B6893F83C30012B01D1022331E08A
:104788007B68012283F83C207B68022283F83D2065
:104798003968786800F0B2FA0346002B09D07B68C4
:1047A800012283F83D207B68002283F83C20012306
:1047B80018E07B681B68DA687B681B6822F0400297
:1047C800DA607B681B68DA687B681B6822F48042C1
:1047D800DA607B68012283F83D207B68002283F839
:1047E8003C20002318460837BD4680BD80B483B0FE
:1047F80000AF786000BF0C37BD465DF8047B70479A
:1048080080B483B000AF786000BF0C37BD465DF858
:10481800047B704780B483B000AF786000BF0C376A
:10482800BD465DF8047B704780B483B000AF786004
:1048380000BF0C37BD465DF8047B704780B483B079
:1048480000AF786000BF0C37BD465DF8047B704749
:1048580080B485B000AF786039607B681B68FB6006
:104868007B68434A934213D07B68B3F1804F0FD0E3
:104878007B68404A93420BD07B683F4A934207D0FB
:104888007B683E4A934203D07B683D4A934208D1F5
:10489800FB6823F07003FB603B685B68FA681343AE
:1048A800FB607B68324A93422BD07B68B3F1804F20
:1048B80027D07B682F4A934223D07B682E4A9342A5
:1048C8001FD07B682D4A93421BD07B682C4A9342A9
:1048D80017D07B682B4A934213D07B682A4A9342AD
:1048E8000FD07B68294A93420BD07B68284A9342B1
:1048F80007D07B68274A934203D07B68264A9342B5
:1049080008D1FB6823F44073FB603B68DB68FA68F6
:104918001343FB60FB6823F080023B685B69134329
:10492800FB603B689A687B68DA623B681A687B6858
:104938009A627B680E4A934203D07B68104A93427E
:1049480003D13B681A697B681A637B681B6843F06C
:1049580004027B681A607B6801225A617B68FA68E6
:104968001A6000BF1437BD465DF8047B704700BF6E
:10497800000001400004004000080040000C004016
:10498800000401400040014000440140004801404B
:1049980000180040001C00400020004080B487B090
:1049A80000AF786039607B681B6A7B617B681B6A33
:1049B80023F001027B681A627B685B683B617B6855
:1049C8009B69FB60FB6823F07003FB60FB6823F0C6
:1049D8000303FB603B681B68FA681343FB607B6951
:1049E80023F002037B613B689B687A6913437B6110
:1049F8007B68204A934203D07B681F4A93420CD1BC
:104A08007B6923F008037B613B68DB687A691343A1
:104A18007B617B6923F004037B617B68154A9342C1
:104A280003D07B68144A934211D13B6923F4807305
:104A38003B613B6923F400733B613B685B693A69FE
:104A480013433B613B689B693A6913433B617B684D
:104A58003A695A607B68FA689A613B685A687B6869
:104A68005A637B687A691A6200BF1C37BD465DF8D5
:104A7800047B7047000001400004014080B487B007
:104A880000AF786039607B681B6A7B617B681B6A52
:104A980023F010027B681A627B685B683B617B6865
:104AA8009B69FB60FB6823F4E043FB60FB6823F42D
:104AB8004073FB603B681B681B02FA681343FB608A
:104AC8007B6923F020037B613B689B681B017A6943
:104AD80013437B617B68224A934203D07B68214A57
:104AE80093420DD17B6923F080037B613B68DB68CF
:104AF8001B017A6913437B617B6923F040037B6167
:104B08007B68174A934203D07B68164A934213D1B5
:104B18003B6923F480633B613B6923F400633B6199
:104B28003B685B699B003A6913433B613B689B693F
:104B38009B003A6913433B617B683A695A607B681A
:104B4800FA689A613B685A687B689A637B687A69F5
:104B58001A6200BF1C37BD465DF8047B704700BF72
:104B6800000001400004014080B487B000AF7860C5
:104B780039607B681B6A7B617B681B6A23F48072DF
:104B88007B681A627B685B683B617B68DB69FB60FA
:104B9800FB6823F07003FB60FB6823F00303FB60F2
:104BA8003B681B68FA681343FB607B6923F4007356
:104BB8007B613B689B681B027A6913437B617B6856
:104BC800214A934203D07B68204A93420DD17B69E6
:104BD80023F400637B613B68DB681B027A6913433B
:104BE8007B617B6923F480637B617B68164A93420F
:104BF80003D07B68154A934213D13B6923F4805351
:104C08003B613B6923F400533B613B685B691B01D3
:104C18003A6913433B613B689B691B013A6913433B
:104C28003B617B683A695A607B68FA68DA613B687D
:104C38005A687B68DA637B687A691A6200BF1C3736
:104C4800BD465DF8047B7047000001400004014048
:104C580080B487B000AF786039607B681B6A3B61BD
:104C68007B681B6A23F480527B681A627B685B68E6
:104C78007B617B68DB69FB60FB6823F4E043FB60D6
:104C8800FB6823F44073FB603B681B681B02FA68EF
:104C98001343FB603B6923F400533B613B689B680B
:104CA8001B033A6913433B617B68124A934203D062
:104CB8007B68114A934209D17B6923F480437B6165
:104CC8003B685B699B017A6913437B617B687A69FE
:104CD8005A607B68FA68DA613B685A687B681A64CC
:104CE8007B683A691A6200BF1C37BD465DF8047BD1
:104CF800704700BF000001400004014080B586B045
:104D080000AF786039600023FB757B681B689B687F
:104D18003B613B6923F070033B613B685B683A6920
:104D280013433B613B6923F007033B613B681B6806
:104D38003A6913433B617B681B683A699A603B6830
:104D48005B68702B1AD0702B60D8602B54D0602B06
:104D58005CD8502B46D0502B58D8402B19D0402B1C
:104D680054D8302B55D0302B50D8202B51D0202B55
:104D78004CD8002B4DD0102B4BD047E07B681868DF
:104D88003B68D9683B689A683B681B6900F0A6F8DD
:104D980040E03B681B68052B01D101233BE07B68A1
:104DA8001B681B6AFB607B681B681A6A7B681B6848
:104DB80022F001021A627B681B689B69BB60BB68B2
:104DC80023F0F003BB603B681B691B01BA681343FF
:104DD800BB607B681B68BA689A617B681B68FA6865
:104DE8001A6217E07B6818683B6899683B681B691A
:104DF8001A4600F014F80DE07B6818683B6899685B
:104E08003B681B691A4600F039F803E00123FB757B
:104E180000E000BFFB7D18461837BD4680BD80B452
:104E280087B000AFF860B9607A60FB681B6A7B6185
:104E3800FB681B6A23F00102FB681A62FB689B6926
:104E48003B613B6923F0F0033B617B681B013A69D6
:104E580013433B617B6923F00A037B617A69BB6872
:104E680013437B61FB683A699A61FB687A691A6245
:104E780000BF1C37BD465DF8047B704780B487B01F
:104E880000AFF860B9607A60FB681B6A7B61FB68F9
:104E98001B6A23F01002FB681A62FB689B693B617E
:104EA8003B6923F470433B617B681B033A691343F6
:104EB8003B617B6923F0A0037B61BB681B017A69B6
:104EC80013437B61FB683A699A61FB687A691A62E5
:104ED80000BF1C37BD465DF8047B704780B487B0BF
:104EE80000AFF860B9607A603B60FB689B687B61E3
:104EF8007B6923F47F437B613B681A027B681A4312
:104F0800BB6813437A6913437B61FB687A699A60CB
:104F180000BF1C37BD465DF8047B704780B487B07E
:104F280000AFF860B9607A60BB6803F01F03012224
:104F380002FA03F37B61FB681A6A7B69DB431A4058
:104F4800FB681A62FB681A6ABB6803F01F0379687A
:104F580001FA03F31A43FB681A6200BF1C37BD4607
:104F68005DF8047B7047000080B485B000AF7860BE
:104F780039607B6893F83C30012B01D102235AE059
:104F88007B68012283F83C207B68022283F83D205D
:104F98007B681B685B68FB607B681B689B68BB6001
:104FA800FB6823F07003FB603B681B68FA681343D7
:104FB800FB607B681B68FA685A607B681B68214A3B
:104FC800934222D07B681B68B3F1804F1DD07B6869
:104FD8001B681D4A934218D07B681B681B4A934282
:104FE80013D07B681B681A4A93420ED07B681B68F3
:104FF800184A934209D07B681B68174A934204D029
:105008007B681B68154A93420CD1BB6823F0800368
:10501800BB603B685B68BA681343BB607B681B680E
:10502800BA689A607B68012283F83D207B68002279
:1050380083F83C20002318461437BD465DF8047BEE
:10504800704700BF00000140000400400008004015
:10505800000C0040000401400040014000180040DE
:1050680080B485B000AF786039600023FB607B684E
:1050780093F83C30012B01D102233DE07B680122EB
:1050880083F83C20FB6823F0FF023B68DB6813438E
:10509800FB60FB6823F440723B689B681343FB602A
:1050A800FB6823F480623B685B681343FB60FB6822
:1050B80023F400623B681B681343FB60FB6823F41E
:1050C80080523B681B691343FB60FB6823F4005262
:1050D8003B685B691343FB60FB6823F480423B68D1
:1050E800DB691343FB607B681B68FA685A647B685A
:1050F800002283F83C20002318461437BD465DF88B
:10510800047B704780B483B000AF786000BF0C3771
:10511800BD465DF8047B704780B483B000AF78600B
:1051280000BF0C37BD465DF8047B704780B582B080
:1051380000AF78607B68002B01D1012342E07B68D7
:1051480093F84130DBB2002B06D17B68002283F84C
:1051580040207868FDF740FC7B68242283F84120D2
:105168007B681B68DA687B681B6822F40052DA6087
:10517800786800F009FE7B681B681A697B681B6801
:1051880022F490421A617B681B685A697B681B6825
:1051980022F02A025A617B681B68DA687B681B6800
:1051A80042F40052DA607B6800225A647B6820224D
:1051B80083F841207B68202283F842207B68002204
:1051C8005A63002318460837BD4680BD80B58AB0AB
:1051D80002AFF860B9603B601346FB8000237B6137
:1051E800FB6893F84130DBB2202B75D1BB68002BEC
:1051F80002D0FB88002B01D101236EE0FB6800225E
:105208005A64FB68212283F84120FDF755FE786136
:10521800FB68FA889A84FB68FA88DA84FB689B68DA
:10522800B3F5805F08D1FB681B69002B04D100230C
:10523800FB61BB68BB6103E0BB68FB610023BB612A
:105248002EE03B6800937B6900228021F86800F01B
:105258006DFB0346002B05D0FB68202283F8412014
:1052680003233AE0FB69002B0BD1BB691B881A4664
:10527800FB681B68C2F308025A60BB690233BB6152
:1052880007E0FB691A78FB681B685A60FB69013301
:10529800FB61FB68DB8C9BB2013B9AB2FB68DA844A
:1052A800FB68DB8C9BB2002BCBD13B6800937B69FE
:1052B80000224021F86800F039FB0346002B05D096
:1052C800FB68202283F84120032306E0FB682022A4
:1052D80083F84120002300E0022318462037BD460A
:1052E80080BD80B58CB000AFF860B9601346FB8014
:1052F800FB6893F84230DBB2202B4AD1BB68002B05
:1053080002D0FB88002B01D1012343E0FB68012276
:105318001A63FB6800225A63FB881A46B968F86862
:1053280000F05DFB034687F82F3097F82F30002BED
:105338002CD1FB681B6B012B25D100233B61FB683B
:105348001B681B683B61FB681B685B683B613B69CA
:10535800FB681B680C33BB61BB6953E8003F7B618A
:105368007B6943F01003BB62FB681B680C33BA6AA5
:105378007A623B62396A7A6A41E80023FB61FB6919
:10538800002BE5D102E0012387F82F3097F82F3062
:1053980000E0022318463037BD4680BD80B5BAB05C
:1053A80000AF78607B681B681B68C7F8E4307B68CF
:1053B8001B68DB68C7F8E0307B681B685B69C7F867
:1053C800DC300023C7F8D8300023C7F8D430D7F82A
:1053D800E43003F00F03C7F8D830D7F8D830002BE3
:1053E8000FD1D7F8E43003F02003002B09D0D7F809
:1053F800E03003F02003002B03D0786800F005FCB0
:1054080073E2D7F8D830002B00F0DE80D7F8DC3014
:1054180003F00103002B06D1D7F8E03003F49073B2
:10542800002B00F0D180D7F8E43003F00103002B03
:105438000BD0D7F8E03003F48073002B05D07B68DD
:105448005B6C43F001027B685A64D7F8E43003F0E0
:105458000403002B0BD0D7F8DC3003F00103002B3A
:1054680005D07B685B6C43F002027B685A64D7F80E
:10547800E43003F00203002B0BD0D7F8DC3003F044
:105488000103002B05D07B685B6C43F004027B684A
:105498005A64D7F8E43003F00803002B11D0D7F88A
:1054A800E03003F02003002B05D1D7F8DC3003F0FF
:1054B8000103002B05D07B685B6C43F008027B6816
:1054C8005A647B685B6C002B00F00A82D7F8E430E2
:1054D80003F02003002B08D0D7F8E03003F02003B6
:1054E800002B02D0786800F090FB7B681B685B6932
:1054F80003F04003402B0CBF01230023DBB2C7F8A5
:10550800D4307B685B6C03F00803002B03D1D7F819
:10551800D430002B4FD0786800F09BFA7B681B686A
:105528005B6903F04003402B41D17B681B6814334F
:10553800C7F89C30D7F89C3053E8003FC7F898303C
:10554800D7F8983023F04003C7F8D0307B681B6841
:105558001433D7F8D020C7F8A820C7F8A430D7F854
:10556800A410D7F8A82041E80023C7F8A030D7F83E
:10557800A030002BD9D17B68DB6B002B13D07B6864
:10558800DB6B8A4A1A657B68DB6B1846FDF745FEBC
:105598000346002B16D07B68DB6B1B6D7A68D26BD9
:1055A800104698470EE0786800F0B6F90AE0786887
:1055B80000F0B2F906E0786800F0AEF97B680022E6
:1055C8005A648DE100BF8BE17B681B6B012B40F0B7
:1055D8006781D7F8E43003F01003002B00F06081F6
:1055E800D7F8E03003F01003002B00F059810023B6
:1055F800BB607B681B681B68BB607B681B685B685B
:10560800BB60BB687B681B685B6903F04003402B89
:1056180040F0CE807B68DB6B1B685B68A7F8BE3008
:10562800B7F8BE30002B00F0A9807B689B8DB7F8D7
:10563800BE209A4280F0A2807B68B7F8BE20DA8547
:105648007B68DB6BDB69B3F5807F00F088807B6863
:105658001B680C33C7F88830D7F8883053E8003F08
:10566800C7F88430D7F8843023F48073C7F8B8308B
:105678007B681B680C33D7F8B820C7F89420C7F8A4
:105688009030D7F89010D7F8942041E80023C7F855
:105698008C30D7F88C30002BD9D17B681B68143339
:1056A8007B677B6F53E8003F3B673B6F23F0010349
:1056B800C7F8B4307B681B681433D7F8B420C7F830
:1056C8008020FB67F96FD7F8802041E80023BB678B
:1056D800BB6F002BE1D17B681B6814333B663B6EC4
:1056E80053E8003FFB65FB6D23F04003C7F8B0307B
:1056F8007B681B681433D7F8B020FA66BB66B96EAE
:10570800FA6E41E800237B667B6E002BE3D17B6851
:10571800202283F842207B6800221A637B681B687A
:105728000C33FB64FB6C53E8003FBB64BB6C23F099
:105738001003C7F8AC307B681B680C33D7F8AC2073
:10574800BA657B65796DBA6D41E800233B653B6DB1
:10575800002BE3D17B68DB6B1846FDF7EEFC7B681A
:1057680002225A637B689A8D7B68DB8D9BB2D31AC1
:105778009BB219467868FCF781F8B3E07B689B8D8B
:10578800B7F8BE209A4240F0AD807B68DB6BDB69DE
:10579800B3F5807F40F0A6807B6802225A637B685D
:1057A8009B8D19467868FCF769F89BE0215B000837
:1057B8007B689A8D7B68DB8D9BB2D31AA7F8CE30B5
:1057C8007B68DB8D9BB2002B00F08E80B7F8CE3063
:1057D800002B00F089807B681B680C33BB63BB6BB4
:1057E80053E8003F7B637B6B23F49073C7F8C830A2
:1057F8007B681B680C33D7F8C8207A643B64396C23
:105808007A6C41E80023FB63FB6B002BE3D17B68D8
:105818001B6814337B627B6A53E8003F3B623B6A38
:1058280023F00103C7F8C4307B681B681433D7F82A
:10583800C4203A63FB62F96A3A6B41E80023BB6211
:10584800BB6A002BE3D17B68202283F842207B6867
:1058580000221A637B681B680C333B613B6953E881
:10586800003FFB60FB6823F01003C7F8C0307B687B
:105878001B680C33D7F8C020FA61BB61B969FA69B3
:1058880041E800237B617B69002BE3D17B6802221E
:105898005A63B7F8CE3019467868FBF7EFFF23E074
:1058A800D7F8E43003F08003002B09D0D7F8E030B4
:1058B80003F08003002B03D0786800F03EF914E071
:1058C800D7F8E43003F04003002B0ED0D7F8E030CF
:1058D80003F04003002B08D0786800F07EF904E05C
:1058E80000BF02E000BF00E000BFE837BD4680BD52
:1058F80080B483B000AF786000BF0C37BD465DF858
:10590800047B704780B483B000AF786000BF0C3769
:10591800BD465DF8047B704780B483B000AF786003
:1059280000BF0C37BD465DF8047B704780B586B074
:1059380000AFF860B9603B601346FB713BE03B6A1F
:10594800B3F1FF3F37D0FDF7B7FA02463B68D31AE9
:105958003A6A9A4202D33B6A002B01D103233AE008
:10596800FB681B68DB6803F00403002B23D0BB68CB
:10597800802B20D0BB68402B1DD0FB681B681B68A0
:1059880003F00803082B16D100237B61FB681B6812
:105998001B687B61FB681B685B687B617B69F868D7
:1059A80000F057F8FB6808225A64FB68002283F865
:1059B800402001230FE0FB681B681A68BB6813408E
:1059C800BA689A420CBF01230023DBB21A46FB795E
:1059D8009A42B4D0002318461837BD4680BD80B41B
:1059E80085B000AFF860B9601346FB80FB68BA6801
:1059F8009A62FB68FA889A85FB68FA88DA85FB68F8
:105A080000225A64FB68222283F84220FB681B6943
:105A1800002B07D0FB681B68DA68FB681B6842F438
:105A28008072DA60FB681B685A69FB681B6842F081
:105A380001025A61FB681B68DA68FB681B6842F060
:105A48002002DA60002318461437BD465DF8047B4F
:105A5800704780B495B000AF78607B681B680C33E2
:105A68007B637B6B53E8003F3B633B6B23F4907392
:105A7800FB647B681B680C33FA6C3A64FB63F96B54
:105A88003A6C41E80023BB63BB6B002BE5D17B6814
:105A98001B6814333B623B6A53E8003FFB61FB69B8
:105AA80023F00103BB647B681B681433BA6CFA6289
:105AB800BB62B96AFA6A41E800237B627B6A002B01
:105AC800E5D17B681B6B012B19D17B681B680C33F4
